{
  "contractName": "Auth",
  "abi": [
    {
      "inputs": [],
      "stateMutability": "nonpayable",
      "type": "constructor"
    },
    {
      "anonymous": false,
      "inputs": [
        {
          "indexed": true,
          "internalType": "uint256",
          "name": "actorId",
          "type": "uint256"
        },
        {
          "indexed": true,
          "internalType": "address",
          "name": "actorAddress",
          "type": "address"
        },
        {
          "indexed": false,
          "internalType": "enum Auth.Role",
          "name": "role",
          "type": "uint8"
        }
      ],
      "name": "ActorCreated",
      "type": "event"
    },
    {
      "anonymous": false,
      "inputs": [
        {
          "indexed": false,
          "internalType": "string",
          "name": "functionName",
          "type": "string"
        },
        {
          "indexed": true,
          "internalType": "address",
          "name": "caller",
          "type": "address"
        },
        {
          "indexed": false,
          "internalType": "bool",
          "name": "success",
          "type": "bool"
        }
      ],
      "name": "FunctionExecuted",
      "type": "event"
    },
    {
      "inputs": [],
      "name": "actorIdCounter",
      "outputs": [
        {
          "internalType": "uint256",
          "name": "",
          "type": "uint256"
        }
      ],
      "stateMutability": "view",
      "type": "function",
      "constant": true
    },
    {
      "inputs": [
        {
          "internalType": "uint256",
          "name": "",
          "type": "uint256"
        }
      ],
      "name": "actors",
      "outputs": [
        {
          "internalType": "string",
          "name": "name",
          "type": "string"
        },
        {
          "internalType": "uint256",
          "name": "id",
          "type": "uint256"
        },
        {
          "internalType": "address",
          "name": "wallet",
          "type": "address"
        },
        {
          "internalType": "string",
          "name": "imageUrl",
          "type": "string"
        },
        {
          "internalType": "enum Auth.Role",
          "name": "role",
          "type": "uint8"
        },
        {
          "internalType": "string",
          "name": "cin",
          "type": "string"
        },
        {
          "internalType": "string",
          "name": "description",
          "type": "string"
        },
        {
          "internalType": "string",
          "name": "password",
          "type": "string"
        }
      ],
      "stateMutability": "view",
      "type": "function",
      "constant": true
    },
    {
      "inputs": [
        {
          "internalType": "string",
          "name": "_name",
          "type": "string"
        },
        {
          "internalType": "address",
          "name": "_address",
          "type": "address"
        },
        {
          "internalType": "string",
          "name": "_imageUrl",
          "type": "string"
        },
        {
          "internalType": "enum Auth.Role",
          "name": "_role",
          "type": "uint8"
        },
        {
          "internalType": "string",
          "name": "_cin",
          "type": "string"
        },
        {
          "internalType": "string",
          "name": "_description",
          "type": "string"
        },
        {
          "internalType": "string",
          "name": "_password",
          "type": "string"
        }
      ],
      "name": "createActor",
      "outputs": [],
      "stateMutability": "nonpayable",
      "type": "function"
    },
    {
      "inputs": [
        {
          "internalType": "address",
          "name": "_address",
          "type": "address"
        }
      ],
      "name": "addAdmin",
      "outputs": [],
      "stateMutability": "nonpayable",
      "type": "function"
    },
    {
      "inputs": [
        {
          "internalType": "address",
          "name": "_address",
          "type": "address"
        }
      ],
      "name": "getActorData",
      "outputs": [
        {
          "internalType": "string",
          "name": "name",
          "type": "string"
        },
        {
          "internalType": "uint256",
          "name": "id",
          "type": "uint256"
        },
        {
          "internalType": "string",
          "name": "imageUrl",
          "type": "string"
        },
        {
          "internalType": "enum Auth.Role",
          "name": "role",
          "type": "uint8"
        },
        {
          "internalType": "string",
          "name": "cin",
          "type": "string"
        },
        {
          "internalType": "string",
          "name": "description",
          "type": "string"
        },
        {
          "internalType": "address",
          "name": "wallet",
          "type": "address"
        },
        {
          "internalType": "string",
          "name": "password",
          "type": "string"
        }
      ],
      "stateMutability": "view",
      "type": "function",
      "constant": true
    },
    {
      "inputs": [
        {
          "internalType": "address",
          "name": "_address",
          "type": "address"
        }
      ],
      "name": "getActorRole",
      "outputs": [
        {
          "internalType": "enum Auth.Role",
          "name": "",
          "type": "uint8"
        }
      ],
      "stateMutability": "view",
      "type": "function",
      "constant": true
    },
    {
      "inputs": [
        {
          "internalType": "address",
          "name": "_address",
          "type": "address"
        }
      ],
      "name": "addressExists",
      "outputs": [
        {
          "internalType": "bool",
          "name": "",
          "type": "bool"
        }
      ],
      "stateMutability": "view",
      "type": "function",
      "constant": true
    },
    {
      "inputs": [],
      "name": "getAllActors",
      "outputs": [
        {
          "components": [
            {
              "internalType": "string",
              "name": "name",
              "type": "string"
            },
            {
              "internalType": "uint256",
              "name": "id",
              "type": "uint256"
            },
            {
              "internalType": "address",
              "name": "wallet",
              "type": "address"
            },
            {
              "internalType": "string",
              "name": "imageUrl",
              "type": "string"
            },
            {
              "internalType": "enum Auth.Role",
              "name": "role",
              "type": "uint8"
            },
            {
              "internalType": "string",
              "name": "cin",
              "type": "string"
            },
            {
              "internalType": "string",
              "name": "description",
              "type": "string"
            },
            {
              "internalType": "string",
              "name": "password",
              "type": "string"
            }
          ],
          "internalType": "struct Auth.Actor[]",
          "name": "",
          "type": "tuple[]"
        }
      ],
      "stateMutability": "view",
      "type": "function",
      "constant": true
    }
  ],
  "bytecode": "0x60806040523480156200001157600080fd5b506200002c3362000032640100000000026401000000009004565b62000869565b60016040518061010001604052806040518060400160405280600581526020017f61646d696e000000000000000000000000000000000000000000000000000000815250815260200160005481526020018373ffffffffffffffffffffffffffffffffffffffff16815260200160405180606001604052806037815260200162002e1f60379139815260200160006004811115620000d557620000d462000339565b5b81526020016040518060400160405280600881526020017f3132363935383439000000000000000000000000000000000000000000000000815250815260200160405180606001604052806032815260200162002e5660329139815260200160405180606001604052806040815260200162002ddf6040913981525090806001815401808255809150506001900390600052602060002090600802016000909190919091506000820151816000019081620001919190620005e8565b506020820151816001015560408201518160020160006101000a81548173ffffffffffffffffffffffffffffffffffffffff021916908373ffffffffffffffffffffffffffffffffffffffff1602179055506060820151816003019081620001fa9190620005e8565b5060808201518160040160006101000a81548160ff0219169083600481111562000229576200022862000339565b5b021790555060a0820151816005019081620002459190620005e8565b5060c08201518160060190816200025d9190620005e8565b5060e0820151816007019081620002759190620005e8565b5050508073ffffffffffffffffffffffffffffffffffffffff166000547ff79984943ecc5c54444a79a72b1b598acbcfc0cb04c5cbe8a3a3187c70b13e7e6000604051620002c4919062000720565b60405180910390a33373ffffffffffffffffffffffffffffffffffffffff167f6b1b4455ddff2a2251fbd83ec9a198a39156c18e4c4fbcb9b64de74f1e4625cc6001604051620003159190620007bb565b60405180910390a260008081548092919062000331906200081c565b919050555050565b7f4e487b7100000000000000000000000000000000000000000000000000000000600052602160045260246000fd5b600081519050919050565b7f4e487b7100000000000000000000000000000000000000000000000000000000600052604160045260246000fd5b7f4e487b7100000000000000000000000000000000000000000000000000000000600052602260045260246000fd5b60006002820490506001821680620003ea57607f821691505b6020821081036200040057620003ff620003a2565b5b50919050565b60008190508160005260206000209050919050565b60006020601f8301049050919050565b60008160020a8302905092915050565b6000600883026200046d7fffffffffffffffffffffffffffffffffffffffffffffffffffffffffffffffff826200042b565b6200047986836200042b565b95508019841693508086168417925050509392505050565b6000819050919050565b6000819050919050565b6000620004c6620004c0620004ba8462000491565b6200049b565b62000491565b9050919050565b6000819050919050565b620004e283620004a5565b620004fa620004f182620004cd565b8484546200043b565b825550505050565b600090565b6200051162000502565b6200051e818484620004d7565b505050565b5b8181101562000546576200053a60008262000507565b60018101905062000524565b5050565b601f82111562000595576200055f8162000406565b6200056a846200041b565b810160208510156200057a578190505b6200059262000589856200041b565b83018262000523565b50505b505050565b60008160020a8304905092915050565b6000620005bd600019846008026200059a565b1980831691505092915050565b6000620005d88383620005aa565b9150826002028217905092915050565b620005f38262000368565b67ffffffffffffffff8111156200060f576200060e62000373565b5b6200061b8254620003d1565b620006288282856200054a565b600060209050601f8311600181146200066057600084156200064b578287015190505b620006578582620005ca565b865550620006c7565b601f198416620006708662000406565b60005b828110156200069a5784890151825560018201915060208501945060208101905062000673565b86831015620006ba5784890151620006b6601f891682620005aa565b8355505b6001600288020188555050505b505050505050565b60058110620006e357620006e262000339565b5b50565b6000819050620006f682620006cf565b919050565b60006200070882620006e6565b9050919050565b6200071a81620006fb565b82525050565b60006020820190506200073760008301846200070f565b92915050565b600082825260208201905092915050565b7f61646441646d696e000000000000000000000000000000000000000000000000600082015250565b6000620007866008836200073d565b915062000793826200074e565b602082019050919050565b60008115159050919050565b620007b5816200079e565b82525050565b60006040820190508181036000830152620007d68162000777565b9050620007e76020830184620007aa565b92915050565b7f4e487b7100000000000000000000000000000000000000000000000000000000600052601160045260246000fd5b6000620008298262000491565b91507fffffffffffffffffffffffffffffffffffffffffffffffffffffffffffffffff82036200085e576200085d620007ed565b5b600182019050919050565b61256680620008796000396000f3fe608060405234801561001057600080fd5b50600436106100a5576000357c0100000000000000000000000000000000000000000000000000000000900480638795cc06116100785780638795cc061461013957806393c0e83a14610155578063a50252221461018c578063e3a00ef1146101bc576100a5565b806310189f5c146100aa578063171cfb90146100c85780631d010ed5146100ff578063704802751461011d575b600080fd5b6100b26101ec565b6040516100bf919061170c565b60405180910390f35b6100e260048036038101906100dd9190611799565b6101f2565b6040516100f69897969594939291906118dc565b60405180910390f35b610107610740565b6040516101149190611b82565b60405180910390f35b61013760048036038101906101329190611799565b610c47565b005b610153600480360381019061014e9190611cfe565b610f35565b005b61016f600480360381019061016a9190611e58565b6111be565b604051610183989796959493929190611e85565b60405180910390f35b6101a660048036038101906101a19190611799565b6114eb565b6040516101b39190611f41565b60405180910390f35b6101d660048036038101906101d19190611799565b6115a0565b6040516101e39190611f5c565b60405180910390f35b60005481565b60606000606060006060806000606060005b6001805490508110156106c6578973ffffffffffffffffffffffffffffffffffffffff166001828154811061023c5761023b611f77565b5b906000526020600020906008020160020160009054906101000a900473ffffffffffffffffffffffffffffffffffffffff1673ffffffffffffffffffffffffffffffffffffffff16036106b3576001818154811061029d5761029c611f77565b5b9060005260206000209060080201600001600182815481106102c2576102c1611f77565b5b906000526020600020906008020160010154600183815481106102e8576102e7611f77565b5b90600052602060002090600802016003016001848154811061030d5761030c611f77565b5b906000526020600020906008020160040160009054906101000a900460ff16600185815481106103405761033f611f77565b5b90600052602060002090600802016005016001868154811061036557610364611f77565b5b90600052602060002090600802016006016001878154811061038a57610389611f77565b5b906000526020600020906008020160020160009054906101000a900473ffffffffffffffffffffffffffffffffffffffff16600188815481106103d0576103cf611f77565b5b90600052602060002090600802016007018780546103ed90611fd5565b80601f016020809104026020016040519081016040528092919081815260200182805461041990611fd5565b80156104665780601f1061043b57610100808354040283529160200191610466565b820191906000526020600020905b81548152906001019060200180831161044957829003601f168201915b5050505050975085805461047990611fd5565b80601f01602080910402602001604051908101604052809291908181526020018280546104a590611fd5565b80156104f25780601f106104c7576101008083540402835291602001916104f2565b820191906000526020600020905b8154815290600101906020018083116104d557829003601f168201915b5050505050955083805461050590611fd5565b80601f016020809104026020016040519081016040528092919081815260200182805461053190611fd5565b801561057e5780601f106105535761010080835404028352916020019161057e565b820191906000526020600020905b81548152906001019060200180831161056157829003601f168201915b5050505050935082805461059190611fd5565b80601f01602080910402602001604051908101604052809291908181526020018280546105bd90611fd5565b801561060a5780601f106105df5761010080835404028352916020019161060a565b820191906000526020600020905b8154815290600101906020018083116105ed57829003601f168201915b5050505050925080805461061d90611fd5565b80601f016020809104026020016040519081016040528092919081815260200182805461064990611fd5565b80156106965780601f1061066b57610100808354040283529160200191610696565b820191906000526020600020905b81548152906001019060200180831161067957829003601f168201915b505050505090509850985098509850985098509850985050610735565b80806106be90612035565b915050610204565b50600060046000604051806020016040528060008152509291906040518060200160405280600081525091906040518060200160405280600081525090604051806020016040528060008152509060405180602001604052806000815250975097509750975097509750975097505b919395975091939597565b6060600060018054905067ffffffffffffffff81111561076357610762611bae565b5b60405190808252806020026020018201604052801561079c57816020015b610789611686565b8152602001906001900390816107815790505b50905060005b600180549050811015610c3f57604051806101000160405280600183815481106107cf576107ce611f77565b5b906000526020600020906008020160000180546107eb90611fd5565b80601f016020809104026020016040519081016040528092919081815260200182805461081790611fd5565b80156108645780601f1061083957610100808354040283529160200191610864565b820191906000526020600020905b81548152906001019060200180831161084757829003601f168201915b505050505081526020016001838154811061088257610881611f77565b5b9060005260206000209060080201600101548152602001600183815481106108ad576108ac611f77565b5b906000526020600020906008020160020160009054906101000a900473ffffffffffffffffffffffffffffffffffffffff1673ffffffffffffffffffffffffffffffffffffffff1681526020016001838154811061090e5761090d611f77565b5b9060005260206000209060080201600301805461092a90611fd5565b80601f016020809104026020016040519081016040528092919081815260200182805461095690611fd5565b80156109a35780601f10610978576101008083540402835291602001916109a3565b820191906000526020600020905b81548152906001019060200180831161098657829003601f168201915b50505050508152602001600183815481106109c1576109c0611f77565b5b906000526020600020906008020160040160009054906101000a900460ff1660048111156109f2576109f1611856565b5b815260200160018381548110610a0b57610a0a611f77565b5b90600052602060002090600802016005018054610a2790611fd5565b80601f0160208091040260200160405190810160405280929190818152602001828054610a5390611fd5565b8015610aa05780601f10610a7557610100808354040283529160200191610aa0565b820191906000526020600020905b815481529060010190602001808311610a8357829003601f168201915b5050505050815260200160018381548110610abe57610abd611f77565b5b90600052602060002090600802016006018054610ada90611fd5565b80601f0160208091040260200160405190810160405280929190818152602001828054610b0690611fd5565b8015610b535780601f10610b2857610100808354040283529160200191610b53565b820191906000526020600020905b815481529060010190602001808311610b3657829003601f168201915b5050505050815260200160018381548110610b7157610b70611f77565b5b90600052602060002090600802016007018054610b8d90611fd5565b80601f0160208091040260200160405190810160405280929190818152602001828054610bb990611fd5565b8015610c065780601f10610bdb57610100808354040283529160200191610c06565b820191906000526020600020905b815481529060010190602001808311610be957829003601f168201915b5050505050815250828281518110610c2157610c20611f77565b5b60200260200101819052508080610c3790612035565b9150506107a2565b508091505090565b60016040518061010001604052806040518060400160405280600581526020017f61646d696e000000000000000000000000000000000000000000000000000000815250815260200160005481526020018373ffffffffffffffffffffffffffffffffffffffff1681526020016040518060600160405280603781526020016124c860379139815260200160006004811115610ce657610ce5611856565b5b81526020016040518060400160405280600881526020017f313236393538343900000000000000000000000000000000000000000000000081525081526020016040518060600160405280603281526020016124ff6032913981526020016040518060600160405280604081526020016124886040913981525090806001815401808255809150506001900390600052602060002090600802016000909190919091506000820151816000019081610d9e919061222f565b506020820151816001015560408201518160020160006101000a81548173ffffffffffffffffffffffffffffffffffffffff021916908373ffffffffffffffffffffffffffffffffffffffff1602179055506060820151816003019081610e05919061222f565b5060808201518160040160006101000a81548160ff02191690836004811115610e3157610e30611856565b5b021790555060a0820151816005019081610e4b919061222f565b5060c0820151816006019081610e61919061222f565b5060e0820151816007019081610e77919061222f565b5050508073ffffffffffffffffffffffffffffffffffffffff166000547ff79984943ecc5c54444a79a72b1b598acbcfc0cb04c5cbe8a3a3187c70b13e7e6000604051610ec49190611f5c565b60405180910390a33373ffffffffffffffffffffffffffffffffffffffff167f6b1b4455ddff2a2251fbd83ec9a198a39156c18e4c4fbcb9b64de74f1e4625cc6001604051610f13919061234d565b60405180910390a2600080815480929190610f2d90612035565b919050555050565b610f3e866114eb565b15610f7e576040517f08c379a0000000000000000000000000000000000000000000000000000000008152600401610f75906123ed565b60405180910390fd5b600160405180610100016040528089815260200160005481526020018873ffffffffffffffffffffffffffffffffffffffff168152602001878152602001866004811115610fcf57610fce611856565b5b81526020018581526020018481526020018381525090806001815401808255809150506001900390600052602060002090600802016000909190919091506000820151816000019081611022919061222f565b506020820151816001015560408201518160020160006101000a81548173ffffffffffffffffffffffffffffffffffffffff021916908373ffffffffffffffffffffffffffffffffffffffff1602179055506060820151816003019081611089919061222f565b5060808201518160040160006101000a81548160ff021916908360048111156110b5576110b4611856565b5b021790555060a08201518160050190816110cf919061222f565b5060c08201518160060190816110e5919061222f565b5060e08201518160070190816110fb919061222f565b5050508573ffffffffffffffffffffffffffffffffffffffff166000547ff79984943ecc5c54444a79a72b1b598acbcfc0cb04c5cbe8a3a3187c70b13e7e866040516111479190611f5c565b60405180910390a33373ffffffffffffffffffffffffffffffffffffffff167f6b1b4455ddff2a2251fbd83ec9a198a39156c18e4c4fbcb9b64de74f1e4625cc60016040516111969190612459565b60405180910390a26000808154809291906111b090612035565b919050555050505050505050565b600181815481106111ce57600080fd5b90600052602060002090600802016000915090508060000180546111f190611fd5565b80601f016020809104026020016040519081016040528092919081815260200182805461121d90611fd5565b801561126a5780601f1061123f5761010080835404028352916020019161126a565b820191906000526020600020905b81548152906001019060200180831161124d57829003601f168201915b5050505050908060010154908060020160009054906101000a900473ffffffffffffffffffffffffffffffffffffffff16908060030180546112ab90611fd5565b80601f01602080910402602001604051908101604052809291908181526020018280546112d790611fd5565b80156113245780601f106112f957610100808354040283529160200191611324565b820191906000526020600020905b81548152906001019060200180831161130757829003601f168201915b5050505050908060040160009054906101000a900460ff169080600501805461134c90611fd5565b80601f016020809104026020016040519081016040528092919081815260200182805461137890611fd5565b80156113c55780601f1061139a576101008083540402835291602001916113c5565b820191906000526020600020905b8154815290600101906020018083116113a857829003601f168201915b5050505050908060060180546113da90611fd5565b80601f016020809104026020016040519081016040528092919081815260200182805461140690611fd5565b80156114535780601f1061142857610100808354040283529160200191611453565b820191906000526020600020905b81548152906001019060200180831161143657829003601f168201915b50505050509080600701805461146890611fd5565b80601f016020809104026020016040519081016040528092919081815260200182805461149490611fd5565b80156114e15780601f106114b6576101008083540402835291602001916114e1565b820191906000526020600020905b8154815290600101906020018083116114c457829003601f168201915b5050505050905088565b600080600090505b600180549050811015611595578273ffffffffffffffffffffffffffffffffffffffff166001828154811061152b5761152a611f77565b5b906000526020600020906008020160020160009054906101000a900473ffffffffffffffffffffffffffffffffffffffff1673ffffffffffffffffffffffffffffffffffffffff160361158257600191505061159b565b808061158d90612035565b9150506114f3565b50600090505b919050565b600080600090505b60018054905081101561167b578273ffffffffffffffffffffffffffffffffffffffff16600182815481106115e0576115df611f77565b5b906000526020600020906008020160020160009054906101000a900473ffffffffffffffffffffffffffffffffffffffff1673ffffffffffffffffffffffffffffffffffffffff1603611668576001818154811061164157611640611f77565b5b906000526020600020906008020160040160009054906101000a900460ff16915050611681565b808061167390612035565b9150506115a8565b50600490505b919050565b6040518061010001604052806060815260200160008152602001600073ffffffffffffffffffffffffffffffffffffffff16815260200160608152602001600060048111156116d8576116d7611856565b5b81526020016060815260200160608152602001606081525090565b6000819050919050565b611706816116f3565b82525050565b600060208201905061172160008301846116fd565b92915050565b6000604051905090565b600080fd5b600080fd5b600073ffffffffffffffffffffffffffffffffffffffff82169050919050565b60006117668261173b565b9050919050565b6117768161175b565b811461178157600080fd5b50565b6000813590506117938161176d565b92915050565b6000602082840312156117af576117ae611731565b5b60006117bd84828501611784565b91505092915050565b600081519050919050565b600082825260208201905092915050565b60005b838110156118005780820151818401526020810190506117e5565b60008484015250505050565b6000601f19601f8301169050919050565b6000611828826117c6565b61183281856117d1565b93506118428185602086016117e2565b61184b8161180c565b840191505092915050565b7f4e487b7100000000000000000000000000000000000000000000000000000000600052602160045260246000fd5b6005811061189657611895611856565b5b50565b60008190506118a782611885565b919050565b60006118b782611899565b9050919050565b6118c7816118ac565b82525050565b6118d68161175b565b82525050565b60006101008201905081810360008301526118f7818b61181d565b9050611906602083018a6116fd565b8181036040830152611918818961181d565b905061192760608301886118be565b8181036080830152611939818761181d565b905081810360a083015261194d818661181d565b905061195c60c08301856118cd565b81810360e083015261196e818461181d565b90509998505050505050505050565b600081519050919050565b600082825260208201905092915050565b6000819050602082019050919050565b600082825260208201905092915050565b60006119c5826117c6565b6119cf81856119a9565b93506119df8185602086016117e2565b6119e88161180c565b840191505092915050565b6119fc816116f3565b82525050565b611a0b8161175b565b82525050565b611a1a816118ac565b82525050565b6000610100830160008301518482036000860152611a3e82826119ba565b9150506020830151611a5360208601826119f3565b506040830151611a666040860182611a02565b5060608301518482036060860152611a7e82826119ba565b9150506080830151611a936080860182611a11565b5060a083015184820360a0860152611aab82826119ba565b91505060c083015184820360c0860152611ac582826119ba565b91505060e083015184820360e0860152611adf82826119ba565b9150508091505092915050565b6000611af88383611a20565b905092915050565b6000602082019050919050565b6000611b188261197d565b611b228185611988565b935083602082028501611b3485611999565b8060005b85811015611b705784840389528151611b518582611aec565b9450611b5c83611b00565b925060208a01995050600181019050611b38565b50829750879550505050505092915050565b60006020820190508181036000830152611b9c8184611b0d565b905092915050565b600080fd5b600080fd5b7f4e487b7100000000000000000000000000000000000000000000000000000000600052604160045260246000fd5b611be68261180c565b810181811067ffffffffffffffff82111715611c0557611c04611bae565b5b80604052505050565b6000611c18611727565b9050611c248282611bdd565b919050565b600067ffffffffffffffff821115611c4457611c43611bae565b5b611c4d8261180c565b9050602081019050919050565b82818337600083830152505050565b6000611c7c611c7784611c29565b611c0e565b905082815260208101848484011115611c9857611c97611ba9565b5b611ca3848285611c5a565b509392505050565b600082601f830112611cc057611cbf611ba4565b5b8135611cd0848260208601611c69565b91505092915050565b60058110611ce657600080fd5b50565b600081359050611cf881611cd9565b92915050565b600080600080600080600060e0888a031215611d1d57611d1c611731565b5b600088013567ffffffffffffffff811115611d3b57611d3a611736565b5b611d478a828b01611cab565b9750506020611d588a828b01611784565b965050604088013567ffffffffffffffff811115611d7957611d78611736565b5b611d858a828b01611cab565b9550506060611d968a828b01611ce9565b945050608088013567ffffffffffffffff811115611db757611db6611736565b5b611dc38a828b01611cab565b93505060a088013567ffffffffffffffff811115611de457611de3611736565b5b611df08a828b01611cab565b92505060c088013567ffffffffffffffff811115611e1157611e10611736565b5b611e1d8a828b01611cab565b91505092959891949750929550565b611e35816116f3565b8114611e4057600080fd5b50565b600081359050611e5281611e2c565b92915050565b600060208284031215611e6e57611e6d611731565b5b6000611e7c84828501611e43565b91505092915050565b6000610100820190508181036000830152611ea0818b61181d565b9050611eaf602083018a6116fd565b611ebc60408301896118cd565b8181036060830152611ece818861181d565b9050611edd60808301876118be565b81810360a0830152611eef818661181d565b905081810360c0830152611f03818561181d565b905081810360e0830152611f17818461181d565b90509998505050505050505050565b60008115159050919050565b611f3b81611f26565b82525050565b6000602082019050611f566000830184611f32565b92915050565b6000602082019050611f7160008301846118be565b92915050565b7f4e487b7100000000000000000000000000000000000000000000000000000000600052603260045260246000fd5b7f4e487b7100000000000000000000000000000000000000000000000000000000600052602260045260246000fd5b60006002820490506001821680611fed57607f821691505b60208210810361200057611fff611fa6565b5b50919050565b7f4e487b7100000000000000000000000000000000000000000000000000000000600052601160045260246000fd5b6000612040826116f3565b91507fffffffffffffffffffffffffffffffffffffffffffffffffffffffffffffffff820361207257612071612006565b5b600182019050919050565b60008190508160005260206000209050919050565b60006020601f8301049050919050565b60008160020a8302905092915050565b6000600883026120e27fffffffffffffffffffffffffffffffffffffffffffffffffffffffffffffffff826120a2565b6120ec86836120a2565b95508019841693508086168417925050509392505050565b6000819050919050565b600061212961212461211f846116f3565b612104565b6116f3565b9050919050565b6000819050919050565b6121438361210e565b61215761214f82612130565b8484546120b2565b825550505050565b600090565b61216c61215f565b61217781848461213a565b505050565b5b8181101561219b57612190600082612164565b60018101905061217d565b5050565b601f8211156121e0576121b18161207d565b6121ba84612092565b810160208510156121c9578190505b6121dd6121d585612092565b83018261217c565b50505b505050565b60008160020a8304905092915050565b6000612206600019846008026121e5565b1980831691505092915050565b600061221f83836121f5565b9150826002028217905092915050565b612238826117c6565b67ffffffffffffffff81111561225157612250611bae565b5b61225b8254611fd5565b61226682828561219f565b600060209050601f8311600181146122995760008415612287578287015190505b6122918582612213565b8655506122f9565b601f1984166122a78661207d565b60005b828110156122cf578489015182556001820191506020850194506020810190506122aa565b868310156122ec57848901516122e8601f8916826121f5565b8355505b6001600288020188555050505b505050505050565b7f61646441646d696e000000000000000000000000000000000000000000000000600082015250565b60006123376008836117d1565b915061234282612301565b602082019050919050565b600060408201905081810360008301526123668161232a565b90506123756020830184611f32565b92915050565b7f4164647265737320697320616c7265616479206173736f63696174656420776960008201527f746820616e206163746f72000000000000000000000000000000000000000000602082015250565b60006123d7602b836117d1565b91506123e28261237b565b604082019050919050565b60006020820190508181036000830152612406816123ca565b9050919050565b7f6372656174654163746f72000000000000000000000000000000000000000000600082015250565b6000612443600b836117d1565b915061244e8261240d565b602082019050919050565b6000604082019050818103600083015261247281612436565b90506124816020830184611f32565b9291505056fe3863363937366535623534313034313562646539303862643464656531356466623136376139633837336663346262386138316636663261623434386139313868747470733a2f2f63646e2d69636f6e732d706e672e666c617469636f6e2e636f6d2f3132382f363032342f363032343139302e706e6749276d207468652061646d696e20616e6420746865206f776e6572206f66207468697320736d61727420636f6e7472616374a2646970667358221220ca69024f3572d63e3469e3187ef3970771611e78ff5583d42de59aa210fef89464736f6c634300081400333863363937366535623534313034313562646539303862643464656531356466623136376139633837336663346262386138316636663261623434386139313868747470733a2f2f63646e2d69636f6e732d706e672e666c617469636f6e2e636f6d2f3132382f363032342f363032343139302e706e6749276d207468652061646d696e20616e6420746865206f776e6572206f66207468697320736d61727420636f6e7472616374",
  "immutableReferences": {},
  "source": "// SPDX-License-Identifier: MIT\r\npragma solidity ^0.8.20;\r\n\r\ncontract Auth {\r\n    enum Role {\r\n        Admin,\r\n        Association,\r\n        Donor,\r\n        Evaluator,\r\n        NotFound\r\n    }\r\n\r\n    struct Actor {\r\n        string name;\r\n        uint256 id;\r\n        address wallet;\r\n        string imageUrl;\r\n        Role role;\r\n        string cin;\r\n        string description;\r\n        string password;\r\n    }\r\n\r\n    uint256 public actorIdCounter;\r\n    Actor[] public actors;\r\n\r\n    // Event for actor creation\r\n    event ActorCreated(\r\n        uint256 indexed actorId,\r\n        address indexed actorAddress,\r\n        Role role\r\n    );\r\n\r\n    // Event for function execution\r\n    event FunctionExecuted(\r\n        string functionName,\r\n        address indexed caller,\r\n        bool success\r\n    );\r\n\r\n    constructor() {\r\n        addAdmin(msg.sender);\r\n    }\r\n\r\n    function createActor(\r\n        string memory _name,\r\n        address _address,\r\n        string memory _imageUrl,\r\n        Role _role,\r\n        string memory _cin,\r\n        string memory _description,\r\n        string memory _password\r\n    ) public {\r\n        require(\r\n            !addressExists(_address),\r\n            \"Address is already associated with an actor\"\r\n        );\r\n\r\n        actors.push(\r\n            Actor(\r\n                _name,\r\n                actorIdCounter,\r\n                _address,\r\n                _imageUrl,\r\n                _role,\r\n                _cin,\r\n                _description,\r\n                _password\r\n            )\r\n        );\r\n\r\n        // Emit an event to log actor creation\r\n        emit ActorCreated(actorIdCounter, _address, _role);\r\n\r\n        // Emit a generic event to log the execution of this function\r\n        emit FunctionExecuted(\"createActor\", msg.sender, true);\r\n\r\n        actorIdCounter++;\r\n    }\r\n\r\n    modifier onlyAdmin() {\r\n        require(getActorRole(msg.sender) == Role.Admin, \"Permission denied\");\r\n        _;\r\n    }\r\n\r\n    function addAdmin(address _address) public {\r\n        actors.push(\r\n            Actor(\r\n                \"admin\",\r\n                actorIdCounter,\r\n                _address,\r\n                \"https://cdn-icons-png.flaticon.com/128/6024/6024190.png\",\r\n                Role.Admin,\r\n                \"12695849\",\r\n                \"I'm the admin and the owner of this smart contract\",\r\n                \"8c6976e5b5410415bde908bd4dee15dfb167a9c873fc4bb8a81f6f2ab448a918\"\r\n            )\r\n        );\r\n\r\n        // Emit an event to log actor creation\r\n        emit ActorCreated(actorIdCounter, _address, Role.Admin);\r\n\r\n        // Emit a generic event to log the execution of this function\r\n        emit FunctionExecuted(\"addAdmin\", msg.sender, true);\r\n\r\n        actorIdCounter++;\r\n    }\r\n\r\n    function getActorData(\r\n        address _address\r\n    )\r\n        public\r\n        view\r\n        returns (\r\n            string memory name,\r\n            uint256 id,\r\n            string memory imageUrl,\r\n            Role role,\r\n            string memory cin,\r\n            string memory description,\r\n            address wallet,\r\n            string memory password\r\n        )\r\n    {\r\n        for (uint256 i = 0; i < actors.length; i++) {\r\n            if (actors[i].wallet == _address) {\r\n                return (\r\n                    actors[i].name,\r\n                    actors[i].id,\r\n                    actors[i].imageUrl,\r\n                    actors[i].role,\r\n                    actors[i].cin,\r\n                    actors[i].description,\r\n                    actors[i].wallet,\r\n                    actors[i].password\r\n                );\r\n            }\r\n        }\r\n\r\n        // Return default values if the address is not found\r\n        return (\"\",0, \"\", Role.NotFound, \"\", \"\", address(0), \"\");\r\n    }\r\n\r\n    function getActorRole(address _address) public view returns (Role) {\r\n        for (uint256 i = 0; i < actors.length; i++) {\r\n            if (actors[i].wallet == _address) {\r\n                return actors[i].role;\r\n            }\r\n        }\r\n\r\n        return Role.NotFound; // Return NotFound if the address is not found\r\n    }\r\n\r\n    function addressExists(address _address) public view returns (bool) {\r\n        for (uint256 i = 0; i < actors.length; i++) {\r\n            if (actors[i].wallet == _address) {\r\n                return true;\r\n            }\r\n        }\r\n\r\n        return false;\r\n    }\r\n\r\n    function getAllActors() public view returns (Actor[] memory) {\r\n        Actor[] memory data = new Actor[](actors.length);\r\n\r\n        for (uint256 i = 0; i < actors.length; i++) {\r\n            data[i] = Actor(\r\n                actors[i].name,\r\n                actors[i].id,\r\n                actors[i].wallet,\r\n                actors[i].imageUrl,\r\n                actors[i].role,\r\n                actors[i].cin,\r\n                actors[i].description,\r\n                actors[i].password\r\n            );\r\n        }\r\n\r\n        // Emit a generic event to log the execution of this function\r\n        return data;\r\n    }\r\n}\r\n",
  "sourcePath": "D:\\crowdfunding\\contracts\\Auth.sol",
  "compiler": {
    "name": "solc",
    "version": "0.8.20+commit.a1b79de6.Emscripten.clang"
  },
  "schemaVersion": "3.4.12",
  "updatedAt": "2023-12-12T00:31:51.084Z",
  "networkType": "ethereum",
  "devdoc": {
    "kind": "dev",
    "methods": {},
    "version": 1
  },
  "userdoc": {
    "kind": "user",
    "methods": {},
    "version": 1
  }
}