{
  "contractName": "Auth",
  "abi": [
    {
      "inputs": [],
      "stateMutability": "nonpayable",
      "type": "constructor"
    },
    {
      "anonymous": false,
      "inputs": [
        {
          "indexed": true,
          "internalType": "uint256",
          "name": "actorId",
          "type": "uint256"
        },
        {
          "indexed": true,
          "internalType": "address",
          "name": "actorAddress",
          "type": "address"
        },
        {
          "indexed": false,
          "internalType": "enum Auth.Role",
          "name": "role",
          "type": "uint8"
        }
      ],
      "name": "ActorCreated",
      "type": "event"
    },
    {
      "anonymous": false,
      "inputs": [
        {
          "indexed": false,
          "internalType": "string",
          "name": "functionName",
          "type": "string"
        },
        {
          "indexed": true,
          "internalType": "address",
          "name": "caller",
          "type": "address"
        },
        {
          "indexed": false,
          "internalType": "bool",
          "name": "success",
          "type": "bool"
        }
      ],
      "name": "FunctionExecuted",
      "type": "event"
    },
    {
      "inputs": [],
      "name": "actorIdCounter",
      "outputs": [
        {
          "internalType": "uint256",
          "name": "",
          "type": "uint256"
        }
      ],
      "stateMutability": "view",
      "type": "function",
      "constant": true
    },
    {
      "inputs": [
        {
          "internalType": "uint256",
          "name": "",
          "type": "uint256"
        }
      ],
      "name": "actors",
      "outputs": [
        {
          "internalType": "uint256",
          "name": "id",
          "type": "uint256"
        },
        {
          "internalType": "address",
          "name": "wallet",
          "type": "address"
        },
        {
          "internalType": "string",
          "name": "imageUrl",
          "type": "string"
        },
        {
          "internalType": "enum Auth.Role",
          "name": "role",
          "type": "uint8"
        },
        {
          "internalType": "string",
          "name": "cin",
          "type": "string"
        },
        {
          "internalType": "string",
          "name": "description",
          "type": "string"
        },
        {
          "internalType": "string",
          "name": "password",
          "type": "string"
        }
      ],
      "stateMutability": "view",
      "type": "function",
      "constant": true
    },
    {
      "inputs": [
        {
          "internalType": "address",
          "name": "_address",
          "type": "address"
        },
        {
          "internalType": "string",
          "name": "_imageUrl",
          "type": "string"
        },
        {
          "internalType": "enum Auth.Role",
          "name": "_role",
          "type": "uint8"
        },
        {
          "internalType": "string",
          "name": "_cin",
          "type": "string"
        },
        {
          "internalType": "string",
          "name": "_description",
          "type": "string"
        },
        {
          "internalType": "string",
          "name": "_password",
          "type": "string"
        }
      ],
      "name": "createActor",
      "outputs": [],
      "stateMutability": "nonpayable",
      "type": "function"
    },
    {
      "inputs": [
        {
          "internalType": "address",
          "name": "_address",
          "type": "address"
        }
      ],
      "name": "addAdmin",
      "outputs": [],
      "stateMutability": "nonpayable",
      "type": "function"
    },
    {
      "inputs": [
        {
          "internalType": "address",
          "name": "_address",
          "type": "address"
        }
      ],
      "name": "getActorData",
      "outputs": [
        {
          "internalType": "uint256",
          "name": "id",
          "type": "uint256"
        },
        {
          "internalType": "string",
          "name": "imageUrl",
          "type": "string"
        },
        {
          "internalType": "enum Auth.Role",
          "name": "role",
          "type": "uint8"
        },
        {
          "internalType": "string",
          "name": "cin",
          "type": "string"
        },
        {
          "internalType": "string",
          "name": "description",
          "type": "string"
        },
        {
          "internalType": "address",
          "name": "wallet",
          "type": "address"
        },
        {
          "internalType": "string",
          "name": "password",
          "type": "string"
        }
      ],
      "stateMutability": "view",
      "type": "function",
      "constant": true
    },
    {
      "inputs": [
        {
          "internalType": "address",
          "name": "_address",
          "type": "address"
        }
      ],
      "name": "getActorRole",
      "outputs": [
        {
          "internalType": "enum Auth.Role",
          "name": "",
          "type": "uint8"
        }
      ],
      "stateMutability": "view",
      "type": "function",
      "constant": true
    },
    {
      "inputs": [
        {
          "internalType": "address",
          "name": "_address",
          "type": "address"
        }
      ],
      "name": "addressExists",
      "outputs": [
        {
          "internalType": "bool",
          "name": "",
          "type": "bool"
        }
      ],
      "stateMutability": "view",
      "type": "function",
      "constant": true
    },
    {
      "inputs": [],
      "name": "getAllActors",
      "outputs": [
        {
          "components": [
            {
              "internalType": "uint256",
              "name": "id",
              "type": "uint256"
            },
            {
              "internalType": "address",
              "name": "wallet",
              "type": "address"
            },
            {
              "internalType": "string",
              "name": "imageUrl",
              "type": "string"
            },
            {
              "internalType": "enum Auth.Role",
              "name": "role",
              "type": "uint8"
            },
            {
              "internalType": "string",
              "name": "cin",
              "type": "string"
            },
            {
              "internalType": "string",
              "name": "description",
              "type": "string"
            },
            {
              "internalType": "string",
              "name": "password",
              "type": "string"
            }
          ],
          "internalType": "struct Auth.Actor[]",
          "name": "",
          "type": "tuple[]"
        }
      ],
      "stateMutability": "view",
      "type": "function",
      "constant": true
    }
  ],
  "bytecode": "0x60806040523480156200001157600080fd5b506200002c3362000032640100000000026401000000009004565b62000815565b60016040518060e0016040528060005481526020018373ffffffffffffffffffffffffffffffffffffffff16815260200160405180606001604052806037815260200162002acd60379139815260200160006004811115620000995762000098620002e5565b5b81526020016040518060400160405280600881526020017f3132363935383439000000000000000000000000000000000000000000000000815250815260200160405180606001604052806032815260200162002b0460329139815260200160405180606001604052806040815260200162002a8d6040913981525090806001815401808255809150506001900390600052602060002090600702016000909190919091506000820151816000015560208201518160010160006101000a81548173ffffffffffffffffffffffffffffffffffffffff021916908373ffffffffffffffffffffffffffffffffffffffff1602179055506040820151816002019081620001a6919062000594565b5060608201518160030160006101000a81548160ff02191690836004811115620001d557620001d4620002e5565b5b02179055506080820151816004019081620001f1919062000594565b5060a082015181600501908162000209919062000594565b5060c082015181600601908162000221919062000594565b5050508073ffffffffffffffffffffffffffffffffffffffff166000547ff79984943ecc5c54444a79a72b1b598acbcfc0cb04c5cbe8a3a3187c70b13e7e6000604051620002709190620006cc565b60405180910390a33373ffffffffffffffffffffffffffffffffffffffff167f6b1b4455ddff2a2251fbd83ec9a198a39156c18e4c4fbcb9b64de74f1e4625cc6001604051620002c1919062000767565b60405180910390a2600080815480929190620002dd90620007c8565b919050555050565b7f4e487b7100000000000000000000000000000000000000000000000000000000600052602160045260246000fd5b600081519050919050565b7f4e487b7100000000000000000000000000000000000000000000000000000000600052604160045260246000fd5b7f4e487b7100000000000000000000000000000000000000000000000000000000600052602260045260246000fd5b600060028204905060018216806200039657607f821691505b602082108103620003ac57620003ab6200034e565b5b50919050565b60008190508160005260206000209050919050565b60006020601f8301049050919050565b60008160020a8302905092915050565b600060088302620004197fffffffffffffffffffffffffffffffffffffffffffffffffffffffffffffffff82620003d7565b620004258683620003d7565b95508019841693508086168417925050509392505050565b6000819050919050565b6000819050919050565b6000620004726200046c62000466846200043d565b62000447565b6200043d565b9050919050565b6000819050919050565b6200048e8362000451565b620004a66200049d8262000479565b848454620003e7565b825550505050565b600090565b620004bd620004ae565b620004ca81848462000483565b505050565b5b81811015620004f257620004e6600082620004b3565b600181019050620004d0565b5050565b601f82111562000541576200050b81620003b2565b6200051684620003c7565b8101602085101562000526578190505b6200053e6200053585620003c7565b830182620004cf565b50505b505050565b60008160020a8304905092915050565b6000620005696000198460080262000546565b1980831691505092915050565b600062000584838362000556565b9150826002028217905092915050565b6200059f8262000314565b67ffffffffffffffff811115620005bb57620005ba6200031f565b5b620005c782546200037d565b620005d4828285620004f6565b600060209050601f8311600181146200060c5760008415620005f7578287015190505b62000603858262000576565b86555062000673565b601f1984166200061c86620003b2565b60005b8281101562000646578489015182556001820191506020850194506020810190506200061f565b8683101562000666578489015162000662601f89168262000556565b8355505b6001600288020188555050505b505050505050565b600581106200068f576200068e620002e5565b5b50565b6000819050620006a2826200067b565b919050565b6000620006b48262000692565b9050919050565b620006c681620006a7565b82525050565b6000602082019050620006e36000830184620006bb565b92915050565b600082825260208201905092915050565b7f61646441646d696e000000000000000000000000000000000000000000000000600082015250565b600062000732600883620006e9565b91506200073f82620006fa565b602082019050919050565b60008115159050919050565b62000761816200074a565b82525050565b60006040820190508181036000830152620007828162000723565b905062000793602083018462000756565b92915050565b7f4e487b7100000000000000000000000000000000000000000000000000000000600052601160045260246000fd5b6000620007d5826200043d565b91507fffffffffffffffffffffffffffffffffffffffffffffffffffffffffffffffff82036200080a576200080962000799565b5b600182019050919050565b61226880620008256000396000f3fe608060405234801561001057600080fd5b50600436106100a5576000357c01000000000000000000000000000000000000000000000000000000009004806393c0e83a1161007857806393c0e83a14610138578063a50252221461016e578063c6a23c831461019e578063e3a00ef1146101ba576100a5565b806310189f5c146100aa578063171cfb90146100c85780631d010ed5146100fe578063704802751461011c575b600080fd5b6100b26101ea565b6040516100bf9190611486565b60405180910390f35b6100e260048036038101906100dd9190611513565b6101f0565b6040516100f59796959493929190611656565b60405180910390f35b610106610674565b60405161011391906118cb565b60405180910390f35b61013660048036038101906101319190611513565b610ac7565b005b610152600480360381019061014d9190611919565b610d63565b6040516101659796959493929190611946565b60405180910390f35b61018860048036038101906101839190611513565b611002565b60405161019591906119ec565b60405180910390f35b6101b860048036038101906101b39190611b61565b6110b7565b005b6101d460048036038101906101cf9190611513565b611322565b6040516101e19190611c5e565b60405180910390f35b60005481565b6000606060006060806000606060005b60018054905081101561060f578873ffffffffffffffffffffffffffffffffffffffff166001828154811061023857610237611c79565b5b906000526020600020906007020160010160009054906101000a900473ffffffffffffffffffffffffffffffffffffffff1673ffffffffffffffffffffffffffffffffffffffff16036105fc576001818154811061029957610298611c79565b5b906000526020600020906007020160000154600182815481106102bf576102be611c79565b5b9060005260206000209060070201600201600183815481106102e4576102e3611c79565b5b906000526020600020906007020160030160009054906101000a900460ff166001848154811061031757610316611c79565b5b90600052602060002090600702016004016001858154811061033c5761033b611c79565b5b90600052602060002090600702016005016001868154811061036157610360611c79565b5b906000526020600020906007020160010160009054906101000a900473ffffffffffffffffffffffffffffffffffffffff16600187815481106103a7576103a6611c79565b5b90600052602060002090600702016006018580546103c490611cd7565b80601f01602080910402602001604051908101604052809291908181526020018280546103f090611cd7565b801561043d5780601f106104125761010080835404028352916020019161043d565b820191906000526020600020905b81548152906001019060200180831161042057829003601f168201915b5050505050955083805461045090611cd7565b80601f016020809104026020016040519081016040528092919081815260200182805461047c90611cd7565b80156104c95780601f1061049e576101008083540402835291602001916104c9565b820191906000526020600020905b8154815290600101906020018083116104ac57829003601f168201915b505050505093508280546104dc90611cd7565b80601f016020809104026020016040519081016040528092919081815260200182805461050890611cd7565b80156105555780601f1061052a57610100808354040283529160200191610555565b820191906000526020600020905b81548152906001019060200180831161053857829003601f168201915b5050505050925080805461056890611cd7565b80601f016020809104026020016040519081016040528092919081815260200182805461059490611cd7565b80156105e15780601f106105b6576101008083540402835291602001916105e1565b820191906000526020600020905b8154815290600101906020018083116105c457829003601f168201915b50505050509050975097509750975097509750975050610669565b808061060790611d37565b915050610200565b50600060046000604051806020016040528060008152509190604051806020016040528060008152509060405180602001604052806000815250906040518060200160405280600081525096509650965096509650965096505b919395979092949650565b6060600060018054905067ffffffffffffffff81111561069757610696611a11565b5b6040519080825280602002602001820160405280156106d057816020015b6106bd611408565b8152602001906001900390816106b55790505b50905060005b600180549050811015610abf576040518060e001604052806001838154811061070257610701611c79565b5b90600052602060002090600702016000015481526020016001838154811061072d5761072c611c79565b5b906000526020600020906007020160010160009054906101000a900473ffffffffffffffffffffffffffffffffffffffff1673ffffffffffffffffffffffffffffffffffffffff1681526020016001838154811061078e5761078d611c79565b5b906000526020600020906007020160020180546107aa90611cd7565b80601f01602080910402602001604051908101604052809291908181526020018280546107d690611cd7565b80156108235780601f106107f857610100808354040283529160200191610823565b820191906000526020600020905b81548152906001019060200180831161080657829003601f168201915b505050505081526020016001838154811061084157610840611c79565b5b906000526020600020906007020160030160009054906101000a900460ff166004811115610872576108716115d0565b5b81526020016001838154811061088b5761088a611c79565b5b906000526020600020906007020160040180546108a790611cd7565b80601f01602080910402602001604051908101604052809291908181526020018280546108d390611cd7565b80156109205780601f106108f557610100808354040283529160200191610920565b820191906000526020600020905b81548152906001019060200180831161090357829003601f168201915b505050505081526020016001838154811061093e5761093d611c79565b5b9060005260206000209060070201600501805461095a90611cd7565b80601f016020809104026020016040519081016040528092919081815260200182805461098690611cd7565b80156109d35780601f106109a8576101008083540402835291602001916109d3565b820191906000526020600020905b8154815290600101906020018083116109b657829003601f168201915b50505050508152602001600183815481106109f1576109f0611c79565b5b90600052602060002090600702016006018054610a0d90611cd7565b80601f0160208091040260200160405190810160405280929190818152602001828054610a3990611cd7565b8015610a865780601f10610a5b57610100808354040283529160200191610a86565b820191906000526020600020905b815481529060010190602001808311610a6957829003601f168201915b5050505050815250828281518110610aa157610aa0611c79565b5b60200260200101819052508080610ab790611d37565b9150506106d6565b508091505090565b60016040518060e0016040528060005481526020018373ffffffffffffffffffffffffffffffffffffffff1681526020016040518060600160405280603781526020016121ca60379139815260200160006004811115610b2a57610b296115d0565b5b81526020016040518060400160405280600881526020017f3132363935383439000000000000000000000000000000000000000000000000815250815260200160405180606001604052806032815260200161220160329139815260200160405180606001604052806040815260200161218a6040913981525090806001815401808255809150506001900390600052602060002090600702016000909190919091506000820151816000015560208201518160010160006101000a81548173ffffffffffffffffffffffffffffffffffffffff021916908373ffffffffffffffffffffffffffffffffffffffff1602179055506040820151816002019081610c339190611f31565b5060608201518160030160006101000a81548160ff02191690836004811115610c5f57610c5e6115d0565b5b02179055506080820151816004019081610c799190611f31565b5060a0820151816005019081610c8f9190611f31565b5060c0820151816006019081610ca59190611f31565b5050508073ffffffffffffffffffffffffffffffffffffffff166000547ff79984943ecc5c54444a79a72b1b598acbcfc0cb04c5cbe8a3a3187c70b13e7e6000604051610cf29190611c5e565b60405180910390a33373ffffffffffffffffffffffffffffffffffffffff167f6b1b4455ddff2a2251fbd83ec9a198a39156c18e4c4fbcb9b64de74f1e4625cc6001604051610d41919061204f565b60405180910390a2600080815480929190610d5b90611d37565b919050555050565b60018181548110610d7357600080fd5b90600052602060002090600702016000915090508060000154908060010160009054906101000a900473ffffffffffffffffffffffffffffffffffffffff1690806002018054610dc290611cd7565b80601f0160208091040260200160405190810160405280929190818152602001828054610dee90611cd7565b8015610e3b5780601f10610e1057610100808354040283529160200191610e3b565b820191906000526020600020905b815481529060010190602001808311610e1e57829003601f168201915b5050505050908060030160009054906101000a900460ff1690806004018054610e6390611cd7565b80601f0160208091040260200160405190810160405280929190818152602001828054610e8f90611cd7565b8015610edc5780601f10610eb157610100808354040283529160200191610edc565b820191906000526020600020905b815481529060010190602001808311610ebf57829003601f168201915b505050505090806005018054610ef190611cd7565b80601f0160208091040260200160405190810160405280929190818152602001828054610f1d90611cd7565b8015610f6a5780601f10610f3f57610100808354040283529160200191610f6a565b820191906000526020600020905b815481529060010190602001808311610f4d57829003601f168201915b505050505090806006018054610f7f90611cd7565b80601f0160208091040260200160405190810160405280929190818152602001828054610fab90611cd7565b8015610ff85780601f10610fcd57610100808354040283529160200191610ff8565b820191906000526020600020905b815481529060010190602001808311610fdb57829003601f168201915b5050505050905087565b600080600090505b6001805490508110156110ac578273ffffffffffffffffffffffffffffffffffffffff166001828154811061104257611041611c79565b5b906000526020600020906007020160010160009054906101000a900473ffffffffffffffffffffffffffffffffffffffff1673ffffffffffffffffffffffffffffffffffffffff16036110995760019150506110b2565b80806110a490611d37565b91505061100a565b50600090505b919050565b6110c086611002565b15611100576040517f08c379a00000000000000000000000000000000000000000000000000000000081526004016110f7906120ef565b60405180910390fd5b60016040518060e0016040528060005481526020018873ffffffffffffffffffffffffffffffffffffffff16815260200187815260200186600481111561114a576111496115d0565b5b81526020018581526020018481526020018381525090806001815401808255809150506001900390600052602060002090600702016000909190919091506000820151816000015560208201518160010160006101000a81548173ffffffffffffffffffffffffffffffffffffffff021916908373ffffffffffffffffffffffffffffffffffffffff16021790555060408201518160020190816111ee9190611f31565b5060608201518160030160006101000a81548160ff0219169083600481111561121a576112196115d0565b5b021790555060808201518160040190816112349190611f31565b5060a082015181600501908161124a9190611f31565b5060c08201518160060190816112609190611f31565b5050508573ffffffffffffffffffffffffffffffffffffffff166000547ff79984943ecc5c54444a79a72b1b598acbcfc0cb04c5cbe8a3a3187c70b13e7e866040516112ac9190611c5e565b60405180910390a33373ffffffffffffffffffffffffffffffffffffffff167f6b1b4455ddff2a2251fbd83ec9a198a39156c18e4c4fbcb9b64de74f1e4625cc60016040516112fb919061215b565b60405180910390a260008081548092919061131590611d37565b9190505550505050505050565b600080600090505b6001805490508110156113fd578273ffffffffffffffffffffffffffffffffffffffff166001828154811061136257611361611c79565b5b906000526020600020906007020160010160009054906101000a900473ffffffffffffffffffffffffffffffffffffffff1673ffffffffffffffffffffffffffffffffffffffff16036113ea57600181815481106113c3576113c2611c79565b5b906000526020600020906007020160030160009054906101000a900460ff16915050611403565b80806113f590611d37565b91505061132a565b50600490505b919050565b6040518060e0016040528060008152602001600073ffffffffffffffffffffffffffffffffffffffff1681526020016060815260200160006004811115611452576114516115d0565b5b81526020016060815260200160608152602001606081525090565b6000819050919050565b6114808161146d565b82525050565b600060208201905061149b6000830184611477565b92915050565b6000604051905090565b600080fd5b600080fd5b600073ffffffffffffffffffffffffffffffffffffffff82169050919050565b60006114e0826114b5565b9050919050565b6114f0816114d5565b81146114fb57600080fd5b50565b60008135905061150d816114e7565b92915050565b600060208284031215611529576115286114ab565b5b6000611537848285016114fe565b91505092915050565b600081519050919050565b600082825260208201905092915050565b60005b8381101561157a57808201518184015260208101905061155f565b60008484015250505050565b6000601f19601f8301169050919050565b60006115a282611540565b6115ac818561154b565b93506115bc81856020860161155c565b6115c581611586565b840191505092915050565b7f4e487b7100000000000000000000000000000000000000000000000000000000600052602160045260246000fd5b600581106116105761160f6115d0565b5b50565b6000819050611621826115ff565b919050565b600061163182611613565b9050919050565b61164181611626565b82525050565b611650816114d5565b82525050565b600060e08201905061166b600083018a611477565b818103602083015261167d8189611597565b905061168c6040830188611638565b818103606083015261169e8187611597565b905081810360808301526116b28186611597565b90506116c160a0830185611647565b81810360c08301526116d38184611597565b905098975050505050505050565b600081519050919050565b600082825260208201905092915050565b6000819050602082019050919050565b6117168161146d565b82525050565b611725816114d5565b82525050565b600082825260208201905092915050565b600061174782611540565b611751818561172b565b935061176181856020860161155c565b61176a81611586565b840191505092915050565b61177e81611626565b82525050565b600060e08301600083015161179c600086018261170d565b5060208301516117af602086018261171c565b50604083015184820360408601526117c7828261173c565b91505060608301516117dc6060860182611775565b50608083015184820360808601526117f4828261173c565b91505060a083015184820360a086015261180e828261173c565b91505060c083015184820360c0860152611828828261173c565b9150508091505092915050565b60006118418383611784565b905092915050565b6000602082019050919050565b6000611861826116e1565b61186b81856116ec565b93508360208202850161187d856116fd565b8060005b858110156118b9578484038952815161189a8582611835565b94506118a583611849565b925060208a01995050600181019050611881565b50829750879550505050505092915050565b600060208201905081810360008301526118e58184611856565b905092915050565b6118f68161146d565b811461190157600080fd5b50565b600081359050611913816118ed565b92915050565b60006020828403121561192f5761192e6114ab565b5b600061193d84828501611904565b91505092915050565b600060e08201905061195b600083018a611477565b6119686020830189611647565b818103604083015261197a8188611597565b90506119896060830187611638565b818103608083015261199b8186611597565b905081810360a08301526119af8185611597565b905081810360c08301526119c38184611597565b905098975050505050505050565b60008115159050919050565b6119e6816119d1565b82525050565b6000602082019050611a0160008301846119dd565b92915050565b600080fd5b600080fd5b7f4e487b7100000000000000000000000000000000000000000000000000000000600052604160045260246000fd5b611a4982611586565b810181811067ffffffffffffffff82111715611a6857611a67611a11565b5b80604052505050565b6000611a7b6114a1565b9050611a878282611a40565b919050565b600067ffffffffffffffff821115611aa757611aa6611a11565b5b611ab082611586565b9050602081019050919050565b82818337600083830152505050565b6000611adf611ada84611a8c565b611a71565b905082815260208101848484011115611afb57611afa611a0c565b5b611b06848285611abd565b509392505050565b600082601f830112611b2357611b22611a07565b5b8135611b33848260208601611acc565b91505092915050565b60058110611b4957600080fd5b50565b600081359050611b5b81611b3c565b92915050565b60008060008060008060c08789031215611b7e57611b7d6114ab565b5b6000611b8c89828a016114fe565b965050602087013567ffffffffffffffff811115611bad57611bac6114b0565b5b611bb989828a01611b0e565b9550506040611bca89828a01611b4c565b945050606087013567ffffffffffffffff811115611beb57611bea6114b0565b5b611bf789828a01611b0e565b935050608087013567ffffffffffffffff811115611c1857611c176114b0565b5b611c2489828a01611b0e565b92505060a087013567ffffffffffffffff811115611c4557611c446114b0565b5b611c5189828a01611b0e565b9150509295509295509295565b6000602082019050611c736000830184611638565b92915050565b7f4e487b7100000000000000000000000000000000000000000000000000000000600052603260045260246000fd5b7f4e487b7100000000000000000000000000000000000000000000000000000000600052602260045260246000fd5b60006002820490506001821680611cef57607f821691505b602082108103611d0257611d01611ca8565b5b50919050565b7f4e487b7100000000000000000000000000000000000000000000000000000000600052601160045260246000fd5b6000611d428261146d565b91507fffffffffffffffffffffffffffffffffffffffffffffffffffffffffffffffff8203611d7457611d73611d08565b5b600182019050919050565b60008190508160005260206000209050919050565b60006020601f8301049050919050565b60008160020a8302905092915050565b600060088302611de47fffffffffffffffffffffffffffffffffffffffffffffffffffffffffffffffff82611da4565b611dee8683611da4565b95508019841693508086168417925050509392505050565b6000819050919050565b6000611e2b611e26611e218461146d565b611e06565b61146d565b9050919050565b6000819050919050565b611e4583611e10565b611e59611e5182611e32565b848454611db4565b825550505050565b600090565b611e6e611e61565b611e79818484611e3c565b505050565b5b81811015611e9d57611e92600082611e66565b600181019050611e7f565b5050565b601f821115611ee257611eb381611d7f565b611ebc84611d94565b81016020851015611ecb578190505b611edf611ed785611d94565b830182611e7e565b50505b505050565b60008160020a8304905092915050565b6000611f0860001984600802611ee7565b1980831691505092915050565b6000611f218383611ef7565b9150826002028217905092915050565b611f3a82611540565b67ffffffffffffffff811115611f5357611f52611a11565b5b611f5d8254611cd7565b611f68828285611ea1565b600060209050601f831160018114611f9b5760008415611f89578287015190505b611f938582611f15565b865550611ffb565b601f198416611fa986611d7f565b60005b82811015611fd157848901518255600182019150602085019450602081019050611fac565b86831015611fee5784890151611fea601f891682611ef7565b8355505b6001600288020188555050505b505050505050565b7f61646441646d696e000000000000000000000000000000000000000000000000600082015250565b600061203960088361154b565b915061204482612003565b602082019050919050565b600060408201905081810360008301526120688161202c565b905061207760208301846119dd565b92915050565b7f4164647265737320697320616c7265616479206173736f63696174656420776960008201527f746820616e206163746f72000000000000000000000000000000000000000000602082015250565b60006120d9602b8361154b565b91506120e48261207d565b604082019050919050565b60006020820190508181036000830152612108816120cc565b9050919050565b7f6372656174654163746f72000000000000000000000000000000000000000000600082015250565b6000612145600b8361154b565b91506121508261210f565b602082019050919050565b6000604082019050818103600083015261217481612138565b905061218360208301846119dd565b9291505056fe3863363937366535623534313034313562646539303862643464656531356466623136376139633837336663346262386138316636663261623434386139313868747470733a2f2f63646e2d69636f6e732d706e672e666c617469636f6e2e636f6d2f3132382f363032342f363032343139302e706e6749276d207468652061646d696e20616e6420746865206f776e6572206f66207468697320736d61727420636f6e7472616374a26469706673582212208188d9740c4fa8c0db8f9d491bc45eaf0f471eb1926c6cd0beefecc40bdacff164736f6c634300081400333863363937366535623534313034313562646539303862643464656531356466623136376139633837336663346262386138316636663261623434386139313868747470733a2f2f63646e2d69636f6e732d706e672e666c617469636f6e2e636f6d2f3132382f363032342f363032343139302e706e6749276d207468652061646d696e20616e6420746865206f776e6572206f66207468697320736d61727420636f6e7472616374",
  "immutableReferences": {},
  "source": "// SPDX-License-Identifier: MIT\r\npragma solidity ^0.8.0;\r\n\r\ncontract Auth {\r\n    enum Role {\r\n        Admin,\r\n        Association,\r\n        Donor,\r\n        Evaluator,\r\n        NotFound\r\n    }\r\n\r\n    struct Actor {\r\n        uint256 id;\r\n        address wallet;\r\n        string imageUrl;\r\n        Role role;\r\n        string cin;\r\n        string description;\r\n        string password;\r\n    }\r\n\r\n    uint256 public actorIdCounter;\r\n    Actor[] public actors;\r\n\r\n    // Event for actor creation\r\n    event ActorCreated(\r\n        uint256 indexed actorId,\r\n        address indexed actorAddress,\r\n        Role role\r\n    );\r\n\r\n    // Event for function execution\r\n    event FunctionExecuted(\r\n        string functionName,\r\n        address indexed caller,\r\n        bool success\r\n    );\r\n\r\n    constructor() {\r\n        addAdmin(msg.sender);\r\n    }\r\n\r\n    function createActor(\r\n        address _address,\r\n        string memory _imageUrl,\r\n        Role _role,\r\n        string memory _cin,\r\n        string memory _description,\r\n        string memory _password\r\n    ) public {\r\n        require(\r\n            !addressExists(_address),\r\n            \"Address is already associated with an actor\"\r\n        );\r\n\r\n        actors.push(\r\n            Actor(\r\n                actorIdCounter,\r\n                _address,\r\n                _imageUrl,\r\n                _role,\r\n                _cin,\r\n                _description,\r\n                _password\r\n            )\r\n        );\r\n\r\n        // Emit an event to log actor creation\r\n        emit ActorCreated(actorIdCounter, _address, _role);\r\n\r\n        // Emit a generic event to log the execution of this function\r\n        emit FunctionExecuted(\"createActor\", msg.sender, true);\r\n\r\n        actorIdCounter++;\r\n    }\r\n\r\n    modifier onlyAdmin() {\r\n        require(getActorRole(msg.sender) == Role.Admin, \"Permission denied\");\r\n        _;\r\n    }\r\n\r\n    function addAdmin(address _address) public {\r\n        actors.push(\r\n            Actor(\r\n                actorIdCounter,\r\n                _address,\r\n                \"https://cdn-icons-png.flaticon.com/128/6024/6024190.png\",\r\n                Role.Admin,\r\n                \"12695849\",\r\n                \"I'm the admin and the owner of this smart contract\",\r\n                \"8c6976e5b5410415bde908bd4dee15dfb167a9c873fc4bb8a81f6f2ab448a918\"\r\n            )\r\n        );\r\n\r\n        // Emit an event to log actor creation\r\n        emit ActorCreated(actorIdCounter, _address, Role.Admin);\r\n\r\n        // Emit a generic event to log the execution of this function\r\n        emit FunctionExecuted(\"addAdmin\", msg.sender, true);\r\n\r\n        actorIdCounter++;\r\n    }\r\n\r\n    function getActorData(\r\n        address _address\r\n    )\r\n        public\r\n        view\r\n        returns (\r\n            uint256 id,\r\n            string memory imageUrl,\r\n            Role role,\r\n            string memory cin,\r\n            string memory description,\r\n            address wallet,\r\n            string memory password\r\n        )\r\n    {\r\n        for (uint256 i = 0; i < actors.length; i++) {\r\n            if (actors[i].wallet == _address) {\r\n                return (\r\n                    actors[i].id,\r\n                    actors[i].imageUrl,\r\n                    actors[i].role,\r\n                    actors[i].cin,\r\n                    actors[i].description,\r\n                    actors[i].wallet,\r\n                    actors[i].password\r\n                );\r\n            }\r\n        }\r\n\r\n        // Return default values if the address is not found\r\n        return (0, \"\", Role.NotFound, \"\", \"\", address(0), \"\");\r\n    }\r\n\r\n    function getActorRole(address _address) public view returns (Role) {\r\n        for (uint256 i = 0; i < actors.length; i++) {\r\n            if (actors[i].wallet == _address) {\r\n                return actors[i].role;\r\n            }\r\n        }\r\n\r\n        return Role.NotFound; // Return NotFound if the address is not found\r\n    }\r\n\r\n    function addressExists(address _address) public view returns (bool) {\r\n        for (uint256 i = 0; i < actors.length; i++) {\r\n            if (actors[i].wallet == _address) {\r\n                return true;\r\n            }\r\n        }\r\n\r\n        return false;\r\n    }\r\n\r\n    function getAllActors() public view returns (Actor[] memory) {\r\n        Actor[] memory data = new Actor[](actors.length);\r\n\r\n        for (uint256 i = 0; i < actors.length; i++) {\r\n            data[i] = Actor(\r\n                actors[i].id,\r\n                actors[i].wallet,\r\n                actors[i].imageUrl,\r\n                actors[i].role,\r\n                actors[i].cin,\r\n                actors[i].description,\r\n                actors[i].password\r\n            );\r\n        }\r\n\r\n        // Emit a generic event to log the execution of this function\r\n        return data;\r\n    }\r\n}\r\n",
  "sourcePath": "D:\\crowdfunding\\contracts\\Auth.sol",
  "compiler": {
    "name": "solc",
    "version": "0.8.20+commit.a1b79de6.Emscripten.clang"
  },
  "schemaVersion": "3.4.12",
  "updatedAt": "2023-11-21T12:41:04.386Z",
  "networkType": "ethereum",
  "devdoc": {
    "kind": "dev",
    "methods": {},
    "version": 1
  },
  "userdoc": {
    "kind": "user",
    "methods": {},
    "version": 1
  }
}