{
  "contractName": "Auth",
  "abi": [
    {
      "inputs": [],
      "stateMutability": "nonpayable",
      "type": "constructor"
    },
    {
      "inputs": [],
      "name": "actorIdCounter",
      "outputs": [
        {
          "internalType": "uint256",
          "name": "",
          "type": "uint256"
        }
      ],
      "stateMutability": "view",
      "type": "function",
      "constant": true
    },
    {
      "inputs": [
        {
          "internalType": "uint256",
          "name": "",
          "type": "uint256"
        }
      ],
      "name": "actors",
      "outputs": [
        {
          "internalType": "uint256",
          "name": "id",
          "type": "uint256"
        },
        {
          "internalType": "address",
          "name": "wallet",
          "type": "address"
        },
        {
          "internalType": "string",
          "name": "imageUrl",
          "type": "string"
        },
        {
          "internalType": "enum Auth.Role",
          "name": "role",
          "type": "uint8"
        },
        {
          "internalType": "string",
          "name": "cin",
          "type": "string"
        },
        {
          "internalType": "string",
          "name": "description",
          "type": "string"
        },
        {
          "internalType": "string",
          "name": "password",
          "type": "string"
        }
      ],
      "stateMutability": "view",
      "type": "function",
      "constant": true
    },
    {
      "inputs": [
        {
          "internalType": "address",
          "name": "_address",
          "type": "address"
        },
        {
          "internalType": "string",
          "name": "_imageUrl",
          "type": "string"
        },
        {
          "internalType": "enum Auth.Role",
          "name": "_role",
          "type": "uint8"
        },
        {
          "internalType": "string",
          "name": "_cin",
          "type": "string"
        },
        {
          "internalType": "string",
          "name": "_description",
          "type": "string"
        },
        {
          "internalType": "string",
          "name": "_password",
          "type": "string"
        }
      ],
      "name": "createActor",
      "outputs": [],
      "stateMutability": "nonpayable",
      "type": "function"
    },
    {
      "inputs": [
        {
          "internalType": "address",
          "name": "_address",
          "type": "address"
        }
      ],
      "name": "getActorData",
      "outputs": [
        {
          "internalType": "uint256",
          "name": "id",
          "type": "uint256"
        },
        {
          "internalType": "string",
          "name": "imageUrl",
          "type": "string"
        },
        {
          "internalType": "enum Auth.Role",
          "name": "role",
          "type": "uint8"
        },
        {
          "internalType": "string",
          "name": "cin",
          "type": "string"
        },
        {
          "internalType": "string",
          "name": "description",
          "type": "string"
        },
        {
          "internalType": "address",
          "name": "wallet",
          "type": "address"
        },
        {
          "internalType": "string",
          "name": "password",
          "type": "string"
        }
      ],
      "stateMutability": "view",
      "type": "function",
      "constant": true
    },
    {
      "inputs": [
        {
          "internalType": "address",
          "name": "_address",
          "type": "address"
        }
      ],
      "name": "getActorRole",
      "outputs": [
        {
          "internalType": "enum Auth.Role",
          "name": "",
          "type": "uint8"
        }
      ],
      "stateMutability": "view",
      "type": "function",
      "constant": true
    },
    {
      "inputs": [
        {
          "internalType": "address",
          "name": "_address",
          "type": "address"
        }
      ],
      "name": "addressExists",
      "outputs": [
        {
          "internalType": "bool",
          "name": "",
          "type": "bool"
        }
      ],
      "stateMutability": "view",
      "type": "function",
      "constant": true
    },
    {
      "inputs": [],
      "name": "getAllActors",
      "outputs": [
        {
          "components": [
            {
              "internalType": "uint256",
              "name": "id",
              "type": "uint256"
            },
            {
              "internalType": "address",
              "name": "wallet",
              "type": "address"
            },
            {
              "internalType": "string",
              "name": "imageUrl",
              "type": "string"
            },
            {
              "internalType": "enum Auth.Role",
              "name": "role",
              "type": "uint8"
            },
            {
              "internalType": "string",
              "name": "cin",
              "type": "string"
            },
            {
              "internalType": "string",
              "name": "description",
              "type": "string"
            },
            {
              "internalType": "string",
              "name": "password",
              "type": "string"
            }
          ],
          "internalType": "struct Auth.Actor[]",
          "name": "",
          "type": "tuple[]"
        }
      ],
      "stateMutability": "view",
      "type": "function",
      "constant": true
    }
  ],
  "bytecode": "0x60806040523480156200001157600080fd5b5060016040518060e0016040528060005481526020013373ffffffffffffffffffffffffffffffffffffffff168152602001604051806060016040528060378152602001620023c56037913981526020016000600481111562000079576200007862000223565b5b81526020016040518060400160405280600881526020017f31323639353834390000000000000000000000000000000000000000000000008152508152602001604051806060016040528060338152602001620023fc603391398152602001604051806060016040528060408152602001620023856040913981525090806001815401808255809150506001900390600052602060002090600702016000909190919091506000820151816000015560208201518160010160006101000a81548173ffffffffffffffffffffffffffffffffffffffff021916908373ffffffffffffffffffffffffffffffffffffffff1602179055506040820151816002019081620001869190620004d2565b5060608201518160030160006101000a81548160ff02191690836004811115620001b557620001b462000223565b5b02179055506080820151816004019081620001d19190620004d2565b5060a0820151816005019081620001e99190620004d2565b5060c0820151816006019081620002019190620004d2565b5050506000808154809291906200021890620005e8565b919050555062000635565b7f4e487b7100000000000000000000000000000000000000000000000000000000600052602160045260246000fd5b600081519050919050565b7f4e487b7100000000000000000000000000000000000000000000000000000000600052604160045260246000fd5b7f4e487b7100000000000000000000000000000000000000000000000000000000600052602260045260246000fd5b60006002820490506001821680620002d457607f821691505b602082108103620002ea57620002e96200028c565b5b50919050565b60008190508160005260206000209050919050565b60006020601f8301049050919050565b60008160020a8302905092915050565b600060088302620003577fffffffffffffffffffffffffffffffffffffffffffffffffffffffffffffffff8262000315565b62000363868362000315565b95508019841693508086168417925050509392505050565b6000819050919050565b6000819050919050565b6000620003b0620003aa620003a4846200037b565b62000385565b6200037b565b9050919050565b6000819050919050565b620003cc836200038f565b620003e4620003db82620003b7565b84845462000325565b825550505050565b600090565b620003fb620003ec565b62000408818484620003c1565b505050565b5b81811015620004305762000424600082620003f1565b6001810190506200040e565b5050565b601f8211156200047f576200044981620002f0565b620004548462000305565b8101602085101562000464578190505b6200047c620004738562000305565b8301826200040d565b50505b505050565b60008160020a8304905092915050565b6000620004a76000198460080262000484565b1980831691505092915050565b6000620004c2838362000494565b9150826002028217905092915050565b620004dd8262000252565b67ffffffffffffffff811115620004f957620004f86200025d565b5b620005058254620002bb565b6200051282828562000434565b600060209050601f8311600181146200054a576000841562000535578287015190505b620005418582620004b4565b865550620005b1565b601f1984166200055a86620002f0565b60005b8281101562000584578489015182556001820191506020850194506020810190506200055d565b86831015620005a45784890151620005a0601f89168262000494565b8355505b6001600288020188555050505b505050505050565b7f4e487b7100000000000000000000000000000000000000000000000000000000600052601160045260246000fd5b6000620005f5826200037b565b91507fffffffffffffffffffffffffffffffffffffffffffffffffffffffffffffffff82036200062a5762000629620005b9565b5b600182019050919050565b611d4080620006456000396000f3fe608060405234801561001057600080fd5b506004361061009a576000357c01000000000000000000000000000000000000000000000000000000009004806393c0e83a1161007857806393c0e83a14610111578063a502522214610147578063c6a23c8314610177578063e3a00ef1146101935761009a565b806310189f5c1461009f578063171cfb90146100bd5780631d010ed5146100f3575b600080fd5b6100a76101c3565b6040516100b4919061108f565b60405180910390f35b6100d760048036038101906100d2919061111c565b6101c9565b6040516100ea979695949392919061125f565b60405180910390f35b6100fb61064d565b60405161010891906114d4565b60405180910390f35b61012b60048036038101906101269190611522565b610a00565b60405161013e979695949392919061154f565b60405180910390f35b610161600480360381019061015c919061111c565b610c9f565b60405161016e91906115f5565b60405180910390f35b610191600480360381019061018c919061176a565b610d54565b005b6101ad60048036038101906101a8919061111c565b610f90565b6040516101ba9190611867565b60405180910390f35b60005481565b6000606060006060806000606060005b6001805490508110156105e8578873ffffffffffffffffffffffffffffffffffffffff166001828154811061021157610210611882565b5b906000526020600020906007020160010160009054906101000a900473ffffffffffffffffffffffffffffffffffffffff1673ffffffffffffffffffffffffffffffffffffffff16036105d5576001818154811061027257610271611882565b5b9060005260206000209060070201600001546001828154811061029857610297611882565b5b9060005260206000209060070201600201600183815481106102bd576102bc611882565b5b906000526020600020906007020160030160009054906101000a900460ff16600184815481106102f0576102ef611882565b5b90600052602060002090600702016004016001858154811061031557610314611882565b5b90600052602060002090600702016005016001868154811061033a57610339611882565b5b906000526020600020906007020160010160009054906101000a900473ffffffffffffffffffffffffffffffffffffffff16600187815481106103805761037f611882565b5b906000526020600020906007020160060185805461039d906118e0565b80601f01602080910402602001604051908101604052809291908181526020018280546103c9906118e0565b80156104165780601f106103eb57610100808354040283529160200191610416565b820191906000526020600020905b8154815290600101906020018083116103f957829003601f168201915b50505050509550838054610429906118e0565b80601f0160208091040260200160405190810160405280929190818152602001828054610455906118e0565b80156104a25780601f10610477576101008083540402835291602001916104a2565b820191906000526020600020905b81548152906001019060200180831161048557829003601f168201915b505050505093508280546104b5906118e0565b80601f01602080910402602001604051908101604052809291908181526020018280546104e1906118e0565b801561052e5780601f106105035761010080835404028352916020019161052e565b820191906000526020600020905b81548152906001019060200180831161051157829003601f168201915b50505050509250808054610541906118e0565b80601f016020809104026020016040519081016040528092919081815260200182805461056d906118e0565b80156105ba5780601f1061058f576101008083540402835291602001916105ba565b820191906000526020600020905b81548152906001019060200180831161059d57829003601f168201915b50505050509050975097509750975097509750975050610642565b80806105e090611940565b9150506101d9565b50600060046000604051806020016040528060008152509190604051806020016040528060008152509060405180602001604052806000815250906040518060200160405280600081525096509650965096509650965096505b919395979092949650565b60606000806004811115610664576106636111d9565b5b61066d33610f90565b600481111561067f5761067e6111d9565b5b146106bf576040517f08c379a00000000000000000000000000000000000000000000000000000000081526004016106b6906119d4565b60405180910390fd5b6001805480602002602001604051908101604052809291908181526020016000905b828210156109f657838290600052602060002090600702016040518060e0016040529081600082015481526020016001820160009054906101000a900473ffffffffffffffffffffffffffffffffffffffff1673ffffffffffffffffffffffffffffffffffffffff1673ffffffffffffffffffffffffffffffffffffffff168152602001600282018054610774906118e0565b80601f01602080910402602001604051908101604052809291908181526020018280546107a0906118e0565b80156107ed5780601f106107c2576101008083540402835291602001916107ed565b820191906000526020600020905b8154815290600101906020018083116107d057829003601f168201915b505050505081526020016003820160009054906101000a900460ff16600481111561081b5761081a6111d9565b5b600481111561082d5761082c6111d9565b5b8152602001600482018054610841906118e0565b80601f016020809104026020016040519081016040528092919081815260200182805461086d906118e0565b80156108ba5780601f1061088f576101008083540402835291602001916108ba565b820191906000526020600020905b81548152906001019060200180831161089d57829003601f168201915b505050505081526020016005820180546108d3906118e0565b80601f01602080910402602001604051908101604052809291908181526020018280546108ff906118e0565b801561094c5780601f106109215761010080835404028352916020019161094c565b820191906000526020600020905b81548152906001019060200180831161092f57829003601f168201915b50505050508152602001600682018054610965906118e0565b80601f0160208091040260200160405190810160405280929190818152602001828054610991906118e0565b80156109de5780601f106109b3576101008083540402835291602001916109de565b820191906000526020600020905b8154815290600101906020018083116109c157829003601f168201915b505050505081525050815260200190600101906106e1565b5050505091505090565b60018181548110610a1057600080fd5b90600052602060002090600702016000915090508060000154908060010160009054906101000a900473ffffffffffffffffffffffffffffffffffffffff1690806002018054610a5f906118e0565b80601f0160208091040260200160405190810160405280929190818152602001828054610a8b906118e0565b8015610ad85780601f10610aad57610100808354040283529160200191610ad8565b820191906000526020600020905b815481529060010190602001808311610abb57829003601f168201915b5050505050908060030160009054906101000a900460ff1690806004018054610b00906118e0565b80601f0160208091040260200160405190810160405280929190818152602001828054610b2c906118e0565b8015610b795780601f10610b4e57610100808354040283529160200191610b79565b820191906000526020600020905b815481529060010190602001808311610b5c57829003601f168201915b505050505090806005018054610b8e906118e0565b80601f0160208091040260200160405190810160405280929190818152602001828054610bba906118e0565b8015610c075780601f10610bdc57610100808354040283529160200191610c07565b820191906000526020600020905b815481529060010190602001808311610bea57829003601f168201915b505050505090806006018054610c1c906118e0565b80601f0160208091040260200160405190810160405280929190818152602001828054610c48906118e0565b8015610c955780601f10610c6a57610100808354040283529160200191610c95565b820191906000526020600020905b815481529060010190602001808311610c7857829003601f168201915b5050505050905087565b600080600090505b600180549050811015610d49578273ffffffffffffffffffffffffffffffffffffffff1660018281548110610cdf57610cde611882565b5b906000526020600020906007020160010160009054906101000a900473ffffffffffffffffffffffffffffffffffffffff1673ffffffffffffffffffffffffffffffffffffffff1603610d36576001915050610d4f565b8080610d4190611940565b915050610ca7565b50600090505b919050565b6000806004811115610d6957610d686111d9565b5b610d7233610f90565b6004811115610d8457610d836111d9565b5b14610dc4576040517f08c379a0000000000000000000000000000000000000000000000000000000008152600401610dbb906119d4565b60405180910390fd5b610dcd87610c9f565b15610e0d576040517f08c379a0000000000000000000000000000000000000000000000000000000008152600401610e0490611a66565b60405180910390fd5b60016040518060e0016040528060005481526020018973ffffffffffffffffffffffffffffffffffffffff168152602001888152602001876004811115610e5757610e566111d9565b5b81526020018681526020018581526020018481525090806001815401808255809150506001900390600052602060002090600702016000909190919091506000820151816000015560208201518160010160006101000a81548173ffffffffffffffffffffffffffffffffffffffff021916908373ffffffffffffffffffffffffffffffffffffffff1602179055506040820151816002019081610efb9190611c38565b5060608201518160030160006101000a81548160ff02191690836004811115610f2757610f266111d9565b5b02179055506080820151816004019081610f419190611c38565b5060a0820151816005019081610f579190611c38565b5060c0820151816006019081610f6d9190611c38565b505050600080815480929190610f8290611940565b919050555050505050505050565b600080600090505b60018054905081101561106b578273ffffffffffffffffffffffffffffffffffffffff1660018281548110610fd057610fcf611882565b5b906000526020600020906007020160010160009054906101000a900473ffffffffffffffffffffffffffffffffffffffff1673ffffffffffffffffffffffffffffffffffffffff1603611058576001818154811061103157611030611882565b5b906000526020600020906007020160030160009054906101000a900460ff16915050611071565b808061106390611940565b915050610f98565b50600490505b919050565b6000819050919050565b61108981611076565b82525050565b60006020820190506110a46000830184611080565b92915050565b6000604051905090565b600080fd5b600080fd5b600073ffffffffffffffffffffffffffffffffffffffff82169050919050565b60006110e9826110be565b9050919050565b6110f9816110de565b811461110457600080fd5b50565b600081359050611116816110f0565b92915050565b600060208284031215611132576111316110b4565b5b600061114084828501611107565b91505092915050565b600081519050919050565b600082825260208201905092915050565b60005b83811015611183578082015181840152602081019050611168565b60008484015250505050565b6000601f19601f8301169050919050565b60006111ab82611149565b6111b58185611154565b93506111c5818560208601611165565b6111ce8161118f565b840191505092915050565b7f4e487b7100000000000000000000000000000000000000000000000000000000600052602160045260246000fd5b60058110611219576112186111d9565b5b50565b600081905061122a82611208565b919050565b600061123a8261121c565b9050919050565b61124a8161122f565b82525050565b611259816110de565b82525050565b600060e082019050611274600083018a611080565b818103602083015261128681896111a0565b90506112956040830188611241565b81810360608301526112a781876111a0565b905081810360808301526112bb81866111a0565b90506112ca60a0830185611250565b81810360c08301526112dc81846111a0565b905098975050505050505050565b600081519050919050565b600082825260208201905092915050565b6000819050602082019050919050565b61131f81611076565b82525050565b61132e816110de565b82525050565b600082825260208201905092915050565b600061135082611149565b61135a8185611334565b935061136a818560208601611165565b6113738161118f565b840191505092915050565b6113878161122f565b82525050565b600060e0830160008301516113a56000860182611316565b5060208301516113b86020860182611325565b50604083015184820360408601526113d08282611345565b91505060608301516113e5606086018261137e565b50608083015184820360808601526113fd8282611345565b91505060a083015184820360a08601526114178282611345565b91505060c083015184820360c08601526114318282611345565b9150508091505092915050565b600061144a838361138d565b905092915050565b6000602082019050919050565b600061146a826112ea565b61147481856112f5565b93508360208202850161148685611306565b8060005b858110156114c257848403895281516114a3858261143e565b94506114ae83611452565b925060208a0199505060018101905061148a565b50829750879550505050505092915050565b600060208201905081810360008301526114ee818461145f565b905092915050565b6114ff81611076565b811461150a57600080fd5b50565b60008135905061151c816114f6565b92915050565b600060208284031215611538576115376110b4565b5b60006115468482850161150d565b91505092915050565b600060e082019050611564600083018a611080565b6115716020830189611250565b818103604083015261158381886111a0565b90506115926060830187611241565b81810360808301526115a481866111a0565b905081810360a08301526115b881856111a0565b905081810360c08301526115cc81846111a0565b905098975050505050505050565b60008115159050919050565b6115ef816115da565b82525050565b600060208201905061160a60008301846115e6565b92915050565b600080fd5b600080fd5b7f4e487b7100000000000000000000000000000000000000000000000000000000600052604160045260246000fd5b6116528261118f565b810181811067ffffffffffffffff821117156116715761167061161a565b5b80604052505050565b60006116846110aa565b90506116908282611649565b919050565b600067ffffffffffffffff8211156116b0576116af61161a565b5b6116b98261118f565b9050602081019050919050565b82818337600083830152505050565b60006116e86116e384611695565b61167a565b90508281526020810184848401111561170457611703611615565b5b61170f8482856116c6565b509392505050565b600082601f83011261172c5761172b611610565b5b813561173c8482602086016116d5565b91505092915050565b6005811061175257600080fd5b50565b60008135905061176481611745565b92915050565b60008060008060008060c08789031215611787576117866110b4565b5b600061179589828a01611107565b965050602087013567ffffffffffffffff8111156117b6576117b56110b9565b5b6117c289828a01611717565b95505060406117d389828a01611755565b945050606087013567ffffffffffffffff8111156117f4576117f36110b9565b5b61180089828a01611717565b935050608087013567ffffffffffffffff811115611821576118206110b9565b5b61182d89828a01611717565b92505060a087013567ffffffffffffffff81111561184e5761184d6110b9565b5b61185a89828a01611717565b9150509295509295509295565b600060208201905061187c6000830184611241565b92915050565b7f4e487b7100000000000000000000000000000000000000000000000000000000600052603260045260246000fd5b7f4e487b7100000000000000000000000000000000000000000000000000000000600052602260045260246000fd5b600060028204905060018216806118f857607f821691505b60208210810361190b5761190a6118b1565b5b50919050565b7f4e487b7100000000000000000000000000000000000000000000000000000000600052601160045260246000fd5b600061194b82611076565b91507fffffffffffffffffffffffffffffffffffffffffffffffffffffffffffffffff820361197d5761197c611911565b5b600182019050919050565b7f5065726d697373696f6e2064656e696564000000000000000000000000000000600082015250565b60006119be601183611154565b91506119c982611988565b602082019050919050565b600060208201905081810360008301526119ed816119b1565b9050919050565b7f4164647265737320697320616c7265616479206173736f63696174656420776960008201527f746820616e206163746f72000000000000000000000000000000000000000000602082015250565b6000611a50602b83611154565b9150611a5b826119f4565b604082019050919050565b60006020820190508181036000830152611a7f81611a43565b9050919050565b60008190508160005260206000209050919050565b60006020601f8301049050919050565b60008160020a8302905092915050565b600060088302611aeb7fffffffffffffffffffffffffffffffffffffffffffffffffffffffffffffffff82611aab565b611af58683611aab565b95508019841693508086168417925050509392505050565b6000819050919050565b6000611b32611b2d611b2884611076565b611b0d565b611076565b9050919050565b6000819050919050565b611b4c83611b17565b611b60611b5882611b39565b848454611abb565b825550505050565b600090565b611b75611b68565b611b80818484611b43565b505050565b5b81811015611ba457611b99600082611b6d565b600181019050611b86565b5050565b601f821115611be957611bba81611a86565b611bc384611a9b565b81016020851015611bd2578190505b611be6611bde85611a9b565b830182611b85565b50505b505050565b60008160020a8304905092915050565b6000611c0f60001984600802611bee565b1980831691505092915050565b6000611c288383611bfe565b9150826002028217905092915050565b611c4182611149565b67ffffffffffffffff811115611c5a57611c5961161a565b5b611c6482546118e0565b611c6f828285611ba8565b600060209050601f831160018114611ca25760008415611c90578287015190505b611c9a8582611c1c565b865550611d02565b601f198416611cb086611a86565b60005b82811015611cd857848901518255600182019150602085019450602081019050611cb3565b86831015611cf55784890151611cf1601f891682611bfe565b8355505b6001600288020188555050505b50505050505056fea26469706673582212204f8f793333bdc2016c98af89e020941322d7da04f6a9f39db49457930d376ca364736f6c634300081400333863363937366535623534313034313562646539303862643464656531356466623136376139633837336663346262386138316636663261623434386139313868747470733a2f2f63646e2d69636f6e732d706e672e666c617469636f6e2e636f6d2f3132382f363032342f363032343139302e706e674927616d207468652061646d696e20616e6420746865206f776e6572206f66207468697320736d61727420636f6e7472616374",
  "immutableReferences": {},
  "source": "// SPDX-License-Identifier: MIT\r\npragma solidity ^0.8.0;\r\n\r\ncontract Auth {\r\n    enum Role {\r\n        Admin,\r\n        Association,\r\n        Donor,\r\n        Evaluator,\r\n        NotFound\r\n    }\r\n\r\n    struct Actor {\r\n        uint256 id;\r\n        address wallet;\r\n        string imageUrl;\r\n        Role role;\r\n        string cin;\r\n        string description;\r\n        string password;\r\n    }\r\n\r\n    uint256 public actorIdCounter;\r\n    Actor[] public actors;\r\n\r\n    constructor() {\r\n        actors.push(\r\n            Actor(\r\n                actorIdCounter,\r\n                msg.sender,\r\n                \"https://cdn-icons-png.flaticon.com/128/6024/6024190.png\",\r\n                Role.Admin,\r\n                \"12695849\",\r\n                \"I'am the admin and the owner of this smart contract\",\r\n                \"8c6976e5b5410415bde908bd4dee15dfb167a9c873fc4bb8a81f6f2ab448a918\"\r\n            )\r\n        );\r\n        actorIdCounter++;\r\n    }\r\n\r\n    modifier onlyRole(Role role) {\r\n        require(getActorRole(msg.sender) == role, \"Permission denied\");\r\n        _;\r\n    }\r\n\r\n    function createActor(\r\n        address _address,\r\n        string memory _imageUrl,\r\n        Role _role,\r\n        string memory _cin,\r\n        string memory _description,\r\n        string memory _password\r\n    ) public onlyRole(Role.Admin) {\r\n        require(\r\n            !addressExists(_address),\r\n            \"Address is already associated with an actor\"\r\n        );\r\n        actors.push(\r\n            Actor(\r\n                actorIdCounter,\r\n                _address,\r\n                _imageUrl,\r\n                _role,\r\n                _cin,\r\n                _description,\r\n                _password\r\n            )\r\n        );\r\n        actorIdCounter++;\r\n    }\r\n\r\n    function getActorData(\r\n        address _address\r\n    )\r\n        public\r\n        view\r\n        returns (\r\n            uint256 id,\r\n            string memory imageUrl,\r\n            Role role,\r\n            string memory cin,\r\n            string memory description,\r\n            address wallet,\r\n            string memory password\r\n        )\r\n    {\r\n        for (uint256 i = 0; i < actors.length; i++) {\r\n            if (actors[i].wallet == _address) {\r\n                return (\r\n                    actors[i].id,\r\n                    actors[i].imageUrl,\r\n                    actors[i].role,\r\n                    actors[i].cin,\r\n                    actors[i].description,\r\n                    actors[i].wallet,\r\n                    actors[i].password\r\n                );\r\n            }\r\n        }\r\n        // Return default values if the address is not found\r\n        return (0, \"\", Role.NotFound, \"\", \"\", address(0), \"\");\r\n    }\r\n\r\n    function getActorRole(address _address) public view returns (Role) {\r\n        for (uint256 i = 0; i < actors.length; i++) {\r\n            if (actors[i].wallet == _address) {\r\n                return actors[i].role;\r\n            }\r\n        }\r\n        return Role.NotFound; // Return NotFound if the address is not found\r\n    }\r\n\r\n    function addressExists(address _address) public view returns (bool) {\r\n        for (uint256 i = 0; i < actors.length; i++) {\r\n            if (actors[i].wallet == _address) {\r\n                return true;\r\n            }\r\n        }\r\n        return false;\r\n    }\r\n\r\n    function getAllActors()\r\n        public\r\n        view\r\n        onlyRole(Role.Admin)\r\n        returns (Actor[] memory)\r\n    {\r\n        return actors;\r\n    }\r\n}\r\n",
  "sourcePath": "D:\\crowdfunding\\contracts\\Auth.sol",
  "compiler": {
    "name": "solc",
    "version": "0.8.20+commit.a1b79de6.Emscripten.clang"
  },
  "schemaVersion": "3.4.12",
  "updatedAt": "2023-10-23T04:29:26.561Z",
  "networkType": "ethereum",
  "devdoc": {
    "kind": "dev",
    "methods": {},
    "version": 1
  },
  "userdoc": {
    "kind": "user",
    "methods": {},
    "version": 1
  }
}