{
  "contractName": "Crowdfunding",
  "abi": [
    {
      "inputs": [
        {
          "internalType": "address",
          "name": "_authContractAddress",
          "type": "address"
        }
      ],
      "stateMutability": "nonpayable",
      "type": "constructor"
    },
    {
      "inputs": [],
      "name": "authContract",
      "outputs": [
        {
          "internalType": "contract Auth",
          "name": "",
          "type": "address"
        }
      ],
      "stateMutability": "view",
      "type": "function",
      "constant": true
    },
    {
      "inputs": [],
      "name": "campaignIdCounter",
      "outputs": [
        {
          "internalType": "uint256",
          "name": "",
          "type": "uint256"
        }
      ],
      "stateMutability": "view",
      "type": "function",
      "constant": true
    },
    {
      "inputs": [
        {
          "internalType": "uint256",
          "name": "",
          "type": "uint256"
        }
      ],
      "name": "campaigns",
      "outputs": [
        {
          "internalType": "uint256",
          "name": "id",
          "type": "uint256"
        },
        {
          "internalType": "address",
          "name": "creator",
          "type": "address"
        },
        {
          "internalType": "string",
          "name": "field",
          "type": "string"
        },
        {
          "internalType": "string",
          "name": "title",
          "type": "string"
        },
        {
          "internalType": "string",
          "name": "description",
          "type": "string"
        },
        {
          "internalType": "uint256",
          "name": "endDate",
          "type": "uint256"
        },
        {
          "internalType": "uint256",
          "name": "period",
          "type": "uint256"
        },
        {
          "internalType": "uint256",
          "name": "amount",
          "type": "uint256"
        },
        {
          "internalType": "uint256",
          "name": "raisedAmount",
          "type": "uint256"
        },
        {
          "internalType": "string",
          "name": "imageUrl",
          "type": "string"
        },
        {
          "internalType": "string",
          "name": "dataUrl",
          "type": "string"
        },
        {
          "internalType": "enum Crowdfunding.Status",
          "name": "status",
          "type": "uint8"
        }
      ],
      "stateMutability": "view",
      "type": "function",
      "constant": true
    },
    {
      "inputs": [],
      "name": "donationIdCounter",
      "outputs": [
        {
          "internalType": "uint256",
          "name": "",
          "type": "uint256"
        }
      ],
      "stateMutability": "view",
      "type": "function",
      "constant": true
    },
    {
      "inputs": [
        {
          "internalType": "uint256",
          "name": "",
          "type": "uint256"
        }
      ],
      "name": "donations",
      "outputs": [
        {
          "internalType": "uint256",
          "name": "id",
          "type": "uint256"
        },
        {
          "internalType": "address",
          "name": "donor",
          "type": "address"
        },
        {
          "internalType": "uint256",
          "name": "amount",
          "type": "uint256"
        },
        {
          "internalType": "uint256",
          "name": "campaign",
          "type": "uint256"
        }
      ],
      "stateMutability": "view",
      "type": "function",
      "constant": true
    },
    {
      "inputs": [],
      "name": "nftContract",
      "outputs": [
        {
          "internalType": "contract DonationNFT",
          "name": "",
          "type": "address"
        }
      ],
      "stateMutability": "view",
      "type": "function",
      "constant": true
    },
    {
      "inputs": [
        {
          "internalType": "string",
          "name": "_field",
          "type": "string"
        },
        {
          "internalType": "string",
          "name": "_title",
          "type": "string"
        },
        {
          "internalType": "string",
          "name": "_description",
          "type": "string"
        },
        {
          "internalType": "uint256",
          "name": "_period",
          "type": "uint256"
        },
        {
          "internalType": "uint256",
          "name": "_amount",
          "type": "uint256"
        },
        {
          "internalType": "string",
          "name": "_imageUrl",
          "type": "string"
        },
        {
          "internalType": "string",
          "name": "_dataUrl",
          "type": "string"
        }
      ],
      "name": "createCampaign",
      "outputs": [],
      "stateMutability": "nonpayable",
      "type": "function"
    },
    {
      "inputs": [
        {
          "internalType": "uint256",
          "name": "_id",
          "type": "uint256"
        },
        {
          "internalType": "enum Crowdfunding.Status",
          "name": "_status",
          "type": "uint8"
        }
      ],
      "name": "evaluateCampaign",
      "outputs": [],
      "stateMutability": "nonpayable",
      "type": "function"
    },
    {
      "inputs": [
        {
          "internalType": "uint256",
          "name": "_campaignId",
          "type": "uint256"
        }
      ],
      "name": "donateToCampaign",
      "outputs": [],
      "stateMutability": "payable",
      "type": "function",
      "payable": true
    },
    {
      "inputs": [],
      "name": "getAllCampaigns",
      "outputs": [
        {
          "components": [
            {
              "internalType": "uint256",
              "name": "id",
              "type": "uint256"
            },
            {
              "internalType": "address",
              "name": "creator",
              "type": "address"
            },
            {
              "internalType": "string",
              "name": "field",
              "type": "string"
            },
            {
              "internalType": "string",
              "name": "title",
              "type": "string"
            },
            {
              "internalType": "string",
              "name": "description",
              "type": "string"
            },
            {
              "internalType": "uint256",
              "name": "endDate",
              "type": "uint256"
            },
            {
              "internalType": "uint256",
              "name": "period",
              "type": "uint256"
            },
            {
              "internalType": "uint256",
              "name": "amount",
              "type": "uint256"
            },
            {
              "internalType": "uint256",
              "name": "raisedAmount",
              "type": "uint256"
            },
            {
              "internalType": "address[]",
              "name": "donors",
              "type": "address[]"
            },
            {
              "internalType": "string",
              "name": "imageUrl",
              "type": "string"
            },
            {
              "internalType": "string",
              "name": "dataUrl",
              "type": "string"
            },
            {
              "internalType": "enum Crowdfunding.Status",
              "name": "status",
              "type": "uint8"
            }
          ],
          "internalType": "struct Crowdfunding.Campaign[]",
          "name": "",
          "type": "tuple[]"
        }
      ],
      "stateMutability": "view",
      "type": "function",
      "constant": true
    },
    {
      "inputs": [],
      "name": "getAllDonations",
      "outputs": [
        {
          "components": [
            {
              "internalType": "uint256",
              "name": "id",
              "type": "uint256"
            },
            {
              "internalType": "address",
              "name": "donor",
              "type": "address"
            },
            {
              "internalType": "uint256",
              "name": "amount",
              "type": "uint256"
            },
            {
              "internalType": "uint256",
              "name": "campaign",
              "type": "uint256"
            }
          ],
          "internalType": "struct Crowdfunding.Donation[]",
          "name": "",
          "type": "tuple[]"
        }
      ],
      "stateMutability": "view",
      "type": "function",
      "constant": true
    }
  ],
  "bytecode": "0x60806040523480156200001157600080fd5b506040516200508f3803806200508f833981810160405281019062000037919062000163565b80600560006101000a81548173ffffffffffffffffffffffffffffffffffffffff021916908373ffffffffffffffffffffffffffffffffffffffff1602179055506040516200008690620000eb565b604051809103906000f080158015620000a3573d6000803e3d6000fd5b50600460006101000a81548173ffffffffffffffffffffffffffffffffffffffff021916908373ffffffffffffffffffffffffffffffffffffffff1602179055505062000195565b6126678062002a2883390190565b600080fd5b600073ffffffffffffffffffffffffffffffffffffffff82169050919050565b60006200012b82620000fe565b9050919050565b6200013d816200011e565b81146200014957600080fd5b50565b6000815190506200015d8162000132565b92915050565b6000602082840312156200017c576200017b620000f9565b5b60006200018c848285016200014c565b91505092915050565b61288380620001a56000396000f3fe6080604052600436106100b9576000357c01000000000000000000000000000000000000000000000000000000009004806342a4fda81161008157806342a4fda8146101b057806386cdf604146101cc578063b62367c9146101f7578063d56d229d14610222578063f0da09601461024d578063f8626af814610276576100b9565b8063141961bc146100be578063161432c7146101065780632e6186761461012f57806336cf0c191461015a57806338a59a0714610185575b600080fd5b3480156100ca57600080fd5b506100e560048036038101906100e09190611774565b6102b6565b6040516100fd9c9b9a999897969594939291906118f8565b60405180910390f35b34801561011257600080fd5b5061012d600480360381019061012891906119fa565b6105fb565b005b34801561013b57600080fd5b5061014461085f565b6040516101519190611a3a565b60405180910390f35b34801561016657600080fd5b5061016f610865565b60405161017c9190611a3a565b60405180910390f35b34801561019157600080fd5b5061019a61086b565b6040516101a79190611b77565b60405180910390f35b6101ca60048036038101906101c59190611774565b61093e565b005b3480156101d857600080fd5b506101e1610dd8565b6040516101ee9190611e9f565b60405180910390f35b34801561020357600080fd5b5061020c611263565b6040516102199190611f20565b60405180910390f35b34801561022e57600080fd5b50610237611289565b6040516102449190611f5c565b60405180910390f35b34801561025957600080fd5b50610274600480360381019061026f91906120ac565b6112af565b005b34801561028257600080fd5b5061029d60048036038101906102989190611774565b611623565b6040516102ad94939291906121da565b60405180910390f35b600281815481106102c657600080fd5b90600052602060002090600d02016000915090508060000154908060010160009054906101000a900473ffffffffffffffffffffffffffffffffffffffff16908060020180546103159061224e565b80601f01602080910402602001604051908101604052809291908181526020018280546103419061224e565b801561038e5780601f106103635761010080835404028352916020019161038e565b820191906000526020600020905b81548152906001019060200180831161037157829003601f168201915b5050505050908060030180546103a39061224e565b80601f01602080910402602001604051908101604052809291908181526020018280546103cf9061224e565b801561041c5780601f106103f15761010080835404028352916020019161041c565b820191906000526020600020905b8154815290600101906020018083116103ff57829003601f168201915b5050505050908060040180546104319061224e565b80601f016020809104026020016040519081016040528092919081815260200182805461045d9061224e565b80156104aa5780601f1061047f576101008083540402835291602001916104aa565b820191906000526020600020905b81548152906001019060200180831161048d57829003601f168201915b50505050509080600501549080600601549080600701549080600801549080600a0180546104d79061224e565b80601f01602080910402602001604051908101604052809291908181526020018280546105039061224e565b80156105505780601f1061052557610100808354040283529160200191610550565b820191906000526020600020905b81548152906001019060200180831161053357829003601f168201915b50505050509080600b0180546105659061224e565b80601f01602080910402602001604051908101604052809291908181526020018280546105919061224e565b80156105de5780601f106105b3576101008083540402835291602001916105de565b820191906000526020600020905b8154815290600101906020018083116105c157829003601f168201915b50505050509080600c0160009054906101000a900460ff1690508c565b60038060048111156106105761060f611881565b5b600560009054906101000a900473ffffffffffffffffffffffffffffffffffffffff1673ffffffffffffffffffffffffffffffffffffffff1663e3a00ef1336040518263ffffffff167c0100000000000000000000000000000000000000000000000000000000028152600401610687919061227f565b602060405180830381865afa1580156106a4573d6000803e3d6000fd5b505050506040513d601f19601f820116820180604052508101906106c891906122bf565b60048111156106da576106d9611881565b5b1461071a576040517f08c379a000000000000000000000000000000000000000000000000000000000815260040161071190612338565b60405180910390fd5b60008311801561072c57506000548311155b61076b576040517f08c379a0000000000000000000000000000000000000000000000000000000008152600401610762906123a4565b60405180910390fd5b6000600260018561077c91906123f3565b8154811061078d5761078c612427565b5b90600052602060002090600d02019050600060038111156107b1576107b0611881565b5b81600c0160009054906101000a900460ff1660038111156107d5576107d4611881565b5b14610815576040517f08c379a000000000000000000000000000000000000000000000000000000000815260040161080c906124a2565b60405180910390fd5b80600601544261082591906124c2565b81600501819055508281600c0160006101000a81548160ff0219169083600381111561085457610853611881565b5b021790555050505050565b60005481565b60015481565b60606003805480602002602001604051908101604052809291908181526020016000905b828210156109355783829060005260206000209060040201604051806080016040529081600082015481526020016001820160009054906101000a900473ffffffffffffffffffffffffffffffffffffffff1673ffffffffffffffffffffffffffffffffffffffff1673ffffffffffffffffffffffffffffffffffffffff168152602001600282015481526020016003820154815250508152602001906001019061088f565b50505050905090565b600280600481111561095357610952611881565b5b600560009054906101000a900473ffffffffffffffffffffffffffffffffffffffff1673ffffffffffffffffffffffffffffffffffffffff1663e3a00ef1336040518263ffffffff167c01000000000000000000000000000000000000000000000000000000000281526004016109ca919061227f565b602060405180830381865afa1580156109e7573d6000803e3d6000fd5b505050506040513d601f19601f82011682018060405250810190610a0b91906122bf565b6004811115610a1d57610a1c611881565b5b14610a5d576040517f08c379a0000000000000000000000000000000000000000000000000000000008152600401610a5490612338565b60405180910390fd5b600082118015610a6f57506000548211155b610aae576040517f08c379a0000000000000000000000000000000000000000000000000000000008152600401610aa5906123a4565b60405180910390fd5b60006002600184610abf91906123f3565b81548110610ad057610acf612427565b5b90600052602060002090600d0201905060026003811115610af457610af3611881565b5b81600c0160009054906101000a900460ff166003811115610b1857610b17611881565b5b14610b58576040517f08c379a0000000000000000000000000000000000000000000000000000000008152600401610b4f90612542565b60405180910390fd5b600460009054906101000a900473ffffffffffffffffffffffffffffffffffffffff1673ffffffffffffffffffffffffffffffffffffffff1663f24c9f06336001546040518363ffffffff167c0100000000000000000000000000000000000000000000000000000000028152600401610bd3929190612562565b600060405180830381600087803b158015610bed57600080fd5b505af1158015610c01573d6000803e3d6000fd5b505050506003604051806080016040528060015481526020013373ffffffffffffffffffffffffffffffffffffffff1681526020013481526020018581525090806001815401808255809150506001900390600052602060002090600402016000909190919091506000820151816000015560208201518160010160006101000a81548173ffffffffffffffffffffffffffffffffffffffff021916908373ffffffffffffffffffffffffffffffffffffffff1602179055506040820151816002015560608201518160030155505060016000815480929190610ce39061258b565b919050555034816008016000828254610cfc91906124c2565b9250508190555080600901339080600181540180825580915050600190039060005260206000200160009091909190916101000a81548173ffffffffffffffffffffffffffffffffffffffff021916908373ffffffffffffffffffffffffffffffffffffffff1602179055508060010160009054906101000a900473ffffffffffffffffffffffffffffffffffffffff1673ffffffffffffffffffffffffffffffffffffffff166108fc349081150290604051600060405180830381858888f19350505050158015610dd2573d6000803e3d6000fd5b50505050565b60606002805480602002602001604051908101604052809291908181526020016000905b8282101561125a57838290600052602060002090600d0201604051806101a0016040529081600082015481526020016001820160009054906101000a900473ffffffffffffffffffffffffffffffffffffffff1673ffffffffffffffffffffffffffffffffffffffff1673ffffffffffffffffffffffffffffffffffffffff168152602001600282018054610e909061224e565b80601f0160208091040260200160405190810160405280929190818152602001828054610ebc9061224e565b8015610f095780601f10610ede57610100808354040283529160200191610f09565b820191906000526020600020905b815481529060010190602001808311610eec57829003601f168201915b50505050508152602001600382018054610f229061224e565b80601f0160208091040260200160405190810160405280929190818152602001828054610f4e9061224e565b8015610f9b5780601f10610f7057610100808354040283529160200191610f9b565b820191906000526020600020905b815481529060010190602001808311610f7e57829003601f168201915b50505050508152602001600482018054610fb49061224e565b80601f0160208091040260200160405190810160405280929190818152602001828054610fe09061224e565b801561102d5780601f106110025761010080835404028352916020019161102d565b820191906000526020600020905b81548152906001019060200180831161101057829003601f168201915b5050505050815260200160058201548152602001600682015481526020016007820154815260200160088201548152602001600982018054806020026020016040519081016040528092919081815260200182805480156110e357602002820191906000526020600020905b8160009054906101000a900473ffffffffffffffffffffffffffffffffffffffff1673ffffffffffffffffffffffffffffffffffffffff1681526020019060010190808311611099575b50505050508152602001600a820180546110fc9061224e565b80601f01602080910402602001604051908101604052809291908181526020018280546111289061224e565b80156111755780601f1061114a57610100808354040283529160200191611175565b820191906000526020600020905b81548152906001019060200180831161115857829003601f168201915b50505050508152602001600b8201805461118e9061224e565b80601f01602080910402602001604051908101604052809291908181526020018280546111ba9061224e565b80156112075780601f106111dc57610100808354040283529160200191611207565b820191906000526020600020905b8154815290600101906020018083116111ea57829003601f168201915b50505050508152602001600c820160009054906101000a900460ff16600381111561123557611234611881565b5b600381111561124757611246611881565b5b8152505081526020019060010190610dfc565b50505050905090565b600560009054906101000a900473ffffffffffffffffffffffffffffffffffffffff1681565b600460009054906101000a900473ffffffffffffffffffffffffffffffffffffffff1681565b60018060048111156112c4576112c3611881565b5b600560009054906101000a900473ffffffffffffffffffffffffffffffffffffffff1673ffffffffffffffffffffffffffffffffffffffff1663e3a00ef1336040518263ffffffff167c010000000000000000000000000000000000000000000000000000000002815260040161133b919061227f565b602060405180830381865afa158015611358573d6000803e3d6000fd5b505050506040513d601f19601f8201168201806040525081019061137c91906122bf565b600481111561138e5761138d611881565b5b146113ce576040517f08c379a00000000000000000000000000000000000000000000000000000000081526004016113c590612338565b60405180910390fd5b6002604051806101a0016040528060005481526020013373ffffffffffffffffffffffffffffffffffffffff1681526020018a81526020018981526020018881526020016000815260200187815260200186815260200160008152602001600067ffffffffffffffff81111561144757611446611f81565b5b6040519080825280602002602001820160405280156114755781602001602082028036833780820191505090505b5081526020018581526020018481526020016000600381111561149b5761149a611881565b5b81525090806001815401808255809150506001900390600052602060002090600d02016000909190919091506000820151816000015560208201518160010160006101000a81548173ffffffffffffffffffffffffffffffffffffffff021916908373ffffffffffffffffffffffffffffffffffffffff160217905550604082015181600201908161152d919061277b565b506060820151816003019081611543919061277b565b506080820151816004019081611559919061277b565b5060a0820151816005015560c0820151816006015560e0820151816007015561010082015181600801556101208201518160090190805190602001906115a0929190611683565b5061014082015181600a0190816115b7919061277b565b5061016082015181600b0190816115ce919061277b565b5061018082015181600c0160006101000a81548160ff021916908360038111156115fb576115fa611881565b5b021790555050506000808154809291906116149061258b565b91905055505050505050505050565b6003818154811061163357600080fd5b90600052602060002090600402016000915090508060000154908060010160009054906101000a900473ffffffffffffffffffffffffffffffffffffffff16908060020154908060030154905084565b8280548282559060005260206000209081019282156116fc579160200282015b828111156116fb5782518260006101000a81548173ffffffffffffffffffffffffffffffffffffffff021916908373ffffffffffffffffffffffffffffffffffffffff160217905550916020019190600101906116a3565b5b509050611709919061170d565b5090565b5b8082111561172657600081600090555060010161170e565b5090565b6000604051905090565b600080fd5b600080fd5b6000819050919050565b6117518161173e565b811461175c57600080fd5b50565b60008135905061176e81611748565b92915050565b60006020828403121561178a57611789611734565b5b60006117988482850161175f565b91505092915050565b6117aa8161173e565b82525050565b600073ffffffffffffffffffffffffffffffffffffffff82169050919050565b60006117db826117b0565b9050919050565b6117eb816117d0565b82525050565b600081519050919050565b600082825260208201905092915050565b60005b8381101561182b578082015181840152602081019050611810565b60008484015250505050565b6000601f19601f8301169050919050565b6000611853826117f1565b61185d81856117fc565b935061186d81856020860161180d565b61187681611837565b840191505092915050565b7f4e487b7100000000000000000000000000000000000000000000000000000000600052602160045260246000fd5b600481106118c1576118c0611881565b5b50565b60008190506118d2826118b0565b919050565b60006118e2826118c4565b9050919050565b6118f2816118d7565b82525050565b60006101808201905061190e600083018f6117a1565b61191b602083018e6117e2565b818103604083015261192d818d611848565b90508181036060830152611941818c611848565b90508181036080830152611955818b611848565b905061196460a083018a6117a1565b61197160c08301896117a1565b61197e60e08301886117a1565b61198c6101008301876117a1565b81810361012083015261199f8186611848565b90508181036101408301526119b48185611848565b90506119c46101608301846118e9565b9d9c50505050505050505050505050565b600481106119e257600080fd5b50565b6000813590506119f4816119d5565b92915050565b60008060408385031215611a1157611a10611734565b5b6000611a1f8582860161175f565b9250506020611a30858286016119e5565b9150509250929050565b6000602082019050611a4f60008301846117a1565b92915050565b600081519050919050565b600082825260208201905092915050565b6000819050602082019050919050565b611a8a8161173e565b82525050565b611a99816117d0565b82525050565b608082016000820151611ab56000850182611a81565b506020820151611ac86020850182611a90565b506040820151611adb6040850182611a81565b506060820151611aee6060850182611a81565b50505050565b6000611b008383611a9f565b60808301905092915050565b6000602082019050919050565b6000611b2482611a55565b611b2e8185611a60565b9350611b3983611a71565b8060005b83811015611b6a578151611b518882611af4565b9750611b5c83611b0c565b925050600181019050611b3d565b5085935050505092915050565b60006020820190508181036000830152611b918184611b19565b905092915050565b600081519050919050565b600082825260208201905092915050565b6000819050602082019050919050565b600082825260208201905092915050565b6000611be1826117f1565b611beb8185611bc5565b9350611bfb81856020860161180d565b611c0481611837565b840191505092915050565b600081519050919050565b600082825260208201905092915050565b6000819050602082019050919050565b6000611c478383611a90565b60208301905092915050565b6000602082019050919050565b6000611c6b82611c0f565b611c758185611c1a565b9350611c8083611c2b565b8060005b83811015611cb1578151611c988882611c3b565b9750611ca383611c53565b925050600181019050611c84565b5085935050505092915050565b611cc7816118d7565b82525050565b60006101a083016000830151611ce66000860182611a81565b506020830151611cf96020860182611a90565b5060408301518482036040860152611d118282611bd6565b91505060608301518482036060860152611d2b8282611bd6565b91505060808301518482036080860152611d458282611bd6565b91505060a0830151611d5a60a0860182611a81565b5060c0830151611d6d60c0860182611a81565b5060e0830151611d8060e0860182611a81565b50610100830151611d95610100860182611a81565b50610120830151848203610120860152611daf8282611c60565b915050610140830151848203610140860152611dcb8282611bd6565b915050610160830151848203610160860152611de78282611bd6565b915050610180830151611dfe610180860182611cbe565b508091505092915050565b6000611e158383611ccd565b905092915050565b6000602082019050919050565b6000611e3582611b99565b611e3f8185611ba4565b935083602082028501611e5185611bb5565b8060005b85811015611e8d5784840389528151611e6e8582611e09565b9450611e7983611e1d565b925060208a01995050600181019050611e55565b50829750879550505050505092915050565b60006020820190508181036000830152611eb98184611e2a565b905092915050565b6000819050919050565b6000611ee6611ee1611edc846117b0565b611ec1565b6117b0565b9050919050565b6000611ef882611ecb565b9050919050565b6000611f0a82611eed565b9050919050565b611f1a81611eff565b82525050565b6000602082019050611f356000830184611f11565b92915050565b6000611f4682611eed565b9050919050565b611f5681611f3b565b82525050565b6000602082019050611f716000830184611f4d565b92915050565b600080fd5b600080fd5b7f4e487b7100000000000000000000000000000000000000000000000000000000600052604160045260246000fd5b611fb982611837565b810181811067ffffffffffffffff82111715611fd857611fd7611f81565b5b80604052505050565b6000611feb61172a565b9050611ff78282611fb0565b919050565b600067ffffffffffffffff82111561201757612016611f81565b5b61202082611837565b9050602081019050919050565b82818337600083830152505050565b600061204f61204a84611ffc565b611fe1565b90508281526020810184848401111561206b5761206a611f7c565b5b61207684828561202d565b509392505050565b600082601f83011261209357612092611f77565b5b81356120a384826020860161203c565b91505092915050565b600080600080600080600060e0888a0312156120cb576120ca611734565b5b600088013567ffffffffffffffff8111156120e9576120e8611739565b5b6120f58a828b0161207e565b975050602088013567ffffffffffffffff81111561211657612115611739565b5b6121228a828b0161207e565b965050604088013567ffffffffffffffff81111561214357612142611739565b5b61214f8a828b0161207e565b95505060606121608a828b0161175f565b94505060806121718a828b0161175f565b93505060a088013567ffffffffffffffff81111561219257612191611739565b5b61219e8a828b0161207e565b92505060c088013567ffffffffffffffff8111156121bf576121be611739565b5b6121cb8a828b0161207e565b91505092959891949750929550565b60006080820190506121ef60008301876117a1565b6121fc60208301866117e2565b61220960408301856117a1565b61221660608301846117a1565b95945050505050565b7f4e487b7100000000000000000000000000000000000000000000000000000000600052602260045260246000fd5b6000600282049050600182168061226657607f821691505b6020821081036122795761227861221f565b5b50919050565b600060208201905061229460008301846117e2565b92915050565b600581106122a757600080fd5b50565b6000815190506122b98161229a565b92915050565b6000602082840312156122d5576122d4611734565b5b60006122e3848285016122aa565b91505092915050565b7f5065726d697373696f6e2064656e696564000000000000000000000000000000600082015250565b60006123226011836117fc565b915061232d826122ec565b602082019050919050565b6000602082019050818103600083015261235181612315565b9050919050565b7f496e76616c69642063616d706169676e20494400000000000000000000000000600082015250565b600061238e6013836117fc565b915061239982612358565b602082019050919050565b600060208201905081810360008301526123bd81612381565b9050919050565b7f4e487b7100000000000000000000000000000000000000000000000000000000600052601160045260246000fd5b60006123fe8261173e565b91506124098361173e565b9250828203905081811115612421576124206123c4565b5b92915050565b7f4e487b7100000000000000000000000000000000000000000000000000000000600052603260045260246000fd5b7f43616d706169676e20737461747573206973206e6f742057616974696e670000600082015250565b600061248c601e836117fc565b915061249782612456565b602082019050919050565b600060208201905081810360008301526124bb8161247f565b9050919050565b60006124cd8261173e565b91506124d88361173e565b92508282019050808211156124f0576124ef6123c4565b5b92915050565b7f43616d706169676e20737461747573206973206e6f742056616c696400000000600082015250565b600061252c601c836117fc565b9150612537826124f6565b602082019050919050565b6000602082019050818103600083015261255b8161251f565b9050919050565b600060408201905061257760008301856117e2565b61258460208301846117a1565b9392505050565b60006125968261173e565b91507fffffffffffffffffffffffffffffffffffffffffffffffffffffffffffffffff82036125c8576125c76123c4565b5b600182019050919050565b60008190508160005260206000209050919050565b60006020601f8301049050919050565b60008160020a8302905092915050565b6000600883026126387fffffffffffffffffffffffffffffffffffffffffffffffffffffffffffffffff826125f8565b61264286836125f8565b95508019841693508086168417925050509392505050565b600061267561267061266b8461173e565b611ec1565b61173e565b9050919050565b6000819050919050565b61268f8361265a565b6126a361269b8261267c565b848454612608565b825550505050565b600090565b6126b86126ab565b6126c3818484612686565b505050565b5b818110156126e7576126dc6000826126b0565b6001810190506126c9565b5050565b601f82111561272c576126fd816125d3565b612706846125e8565b81016020851015612715578190505b612729612721856125e8565b8301826126c8565b50505b505050565b60008160020a8304905092915050565b600061275260001984600802612731565b1980831691505092915050565b600061276b8383612741565b9150826002028217905092915050565b612784826117f1565b67ffffffffffffffff81111561279d5761279c611f81565b5b6127a7825461224e565b6127b28282856126eb565b600060209050601f8311600181146127e557600084156127d3578287015190505b6127dd858261275f565b865550612845565b601f1984166127f3866125d3565b60005b8281101561281b578489015182556001820191506020850194506020810190506127f6565b868310156128385784890151612834601f891682612741565b8355505b6001600288020188555050505b50505050505056fea26469706673582212207779f58817f6ec08475902833500314141da6192deb7950ba4c9aaf8f446376464736f6c6343000814003360806040523480156200001157600080fd5b50336040518060400160405280600b81526020017f446f6e6174696f6e4e46540000000000000000000000000000000000000000008152506040518060400160405280600481526020017f444e465400000000000000000000000000000000000000000000000000000000815250816000908162000090919062000481565b508060019081620000a2919062000481565b505050600073ffffffffffffffffffffffffffffffffffffffff168173ffffffffffffffffffffffffffffffffffffffff16036200011a5760006040517f1e4fbdf7000000000000000000000000000000000000000000000000000000008152600401620001119190620005ad565b60405180910390fd5b62000134816200013b640100000000026401000000009004565b50620005ca565b6000600660009054906101000a900473ffffffffffffffffffffffffffffffffffffffff16905081600660006101000a81548173ffffffffffffffffffffffffffffffffffffffff021916908373ffffffffffffffffffffffffffffffffffffffff1602179055508173ffffffffffffffffffffffffffffffffffffffff168173ffffffffffffffffffffffffffffffffffffffff167f8be0079c531659141344cd1fd0a4f28419497f9722a3daafe3b4186f6b6457e060405160405180910390a35050565b600081519050919050565b7f4e487b7100000000000000000000000000000000000000000000000000000000600052604160045260246000fd5b7f4e487b7100000000000000000000000000000000000000000000000000000000600052602260045260246000fd5b600060028204905060018216806200028357607f821691505b6020821081036200029957620002986200023b565b5b50919050565b60008190508160005260206000209050919050565b60006020601f8301049050919050565b60008160020a8302905092915050565b600060088302620003067fffffffffffffffffffffffffffffffffffffffffffffffffffffffffffffffff82620002c4565b620003128683620002c4565b95508019841693508086168417925050509392505050565b6000819050919050565b6000819050919050565b60006200035f6200035962000353846200032a565b62000334565b6200032a565b9050919050565b6000819050919050565b6200037b836200033e565b620003936200038a8262000366565b848454620002d4565b825550505050565b600090565b620003aa6200039b565b620003b781848462000370565b505050565b5b81811015620003df57620003d3600082620003a0565b600181019050620003bd565b5050565b601f8211156200042e57620003f8816200029f565b6200040384620002b4565b8101602085101562000413578190505b6200042b6200042285620002b4565b830182620003bc565b50505b505050565b60008160020a8304905092915050565b6000620004566000198460080262000433565b1980831691505092915050565b600062000471838362000443565b9150826002028217905092915050565b6200048c8262000201565b67ffffffffffffffff811115620004a857620004a76200020c565b5b620004b482546200026a565b620004c1828285620003e3565b600060209050601f831160018114620004f95760008415620004e4578287015190505b620004f0858262000463565b86555062000560565b601f19841662000509866200029f565b60005b8281101562000533578489015182556001820191506020850194506020810190506200050c565b868310156200055357848901516200054f601f89168262000443565b8355505b6001600288020188555050505b505050505050565b600073ffffffffffffffffffffffffffffffffffffffff82169050919050565b6000620005958262000568565b9050919050565b620005a78162000588565b82525050565b6000602082019050620005c460008301846200059c565b92915050565b61208d80620005da6000396000f3fe608060405234801561001057600080fd5b5060043610610128576000357c010000000000000000000000000000000000000000000000000000000090048063715018a6116100bf578063b88d4fde1161008e578063b88d4fde146102c1578063c87b56dd146102dd578063e985e9c51461030d578063f24c9f061461033d578063f2fde38b1461035957610128565b8063715018a61461025f5780638da5cb5b1461026957806395d89b4114610287578063a22cb465146102a557610128565b806323b872dd116100fb57806323b872dd146101c757806342842e0e146101e35780636352211e146101ff57806370a082311461022f57610128565b806301ffc9a71461012d57806306fdde031461015d578063081812fc1461017b578063095ea7b3146101ab575b600080fd5b610147600480360381019061014291906118d7565b610375565b604051610154919061191f565b60405180910390f35b610165610457565b60405161017291906119ca565b60405180910390f35b61019560048036038101906101909190611a22565b6104e9565b6040516101a29190611a90565b60405180910390f35b6101c560048036038101906101c09190611ad7565b610505565b005b6101e160048036038101906101dc9190611b17565b61051b565b005b6101fd60048036038101906101f89190611b17565b61061d565b005b61021960048036038101906102149190611a22565b61063d565b6040516102269190611a90565b60405180910390f35b61024960048036038101906102449190611b6a565b61064f565b6040516102569190611ba6565b60405180910390f35b610267610709565b005b61027161071d565b60405161027e9190611a90565b60405180910390f35b61028f610747565b60405161029c91906119ca565b60405180910390f35b6102bf60048036038101906102ba9190611bed565b6107d9565b005b6102db60048036038101906102d69190611d62565b6107ef565b005b6102f760048036038101906102f29190611a22565b61080c565b60405161030491906119ca565b60405180910390f35b61032760048036038101906103229190611de5565b610875565b604051610334919061191f565b60405180910390f35b61035760048036038101906103529190611ad7565b610909565b005b610373600480360381019061036e9190611b6a565b61091f565b005b60007f80ac58cd000000000000000000000000000000000000000000000000000000007bffffffffffffffffffffffffffffffffffffffffffffffffffffffff1916827bffffffffffffffffffffffffffffffffffffffffffffffffffffffff1916148061044057507f5b5e139f000000000000000000000000000000000000000000000000000000007bffffffffffffffffffffffffffffffffffffffffffffffffffffffff1916827bffffffffffffffffffffffffffffffffffffffffffffffffffffffff1916145b80610450575061044f826109a5565b5b9050919050565b60606000805461046690611e54565b80601f016020809104026020016040519081016040528092919081815260200182805461049290611e54565b80156104df5780601f106104b4576101008083540402835291602001916104df565b820191906000526020600020905b8154815290600101906020018083116104c257829003601f168201915b5050505050905090565b60006104f482610a0f565b506104fe82610a97565b9050919050565b6105178282610512610ad4565b610adc565b5050565b600073ffffffffffffffffffffffffffffffffffffffff168273ffffffffffffffffffffffffffffffffffffffff160361058d5760006040517f64a0ae920000000000000000000000000000000000000000000000000000000081526004016105849190611a90565b60405180910390fd5b60006105a1838361059c610ad4565b610aee565b90508373ffffffffffffffffffffffffffffffffffffffff168173ffffffffffffffffffffffffffffffffffffffff1614610617578382826040517f64283d7b00000000000000000000000000000000000000000000000000000000815260040161060e93929190611e85565b60405180910390fd5b50505050565b610638838383604051806020016040528060008152506107ef565b505050565b600061064882610a0f565b9050919050565b60008073ffffffffffffffffffffffffffffffffffffffff168273ffffffffffffffffffffffffffffffffffffffff16036106c25760006040517f89c62b640000000000000000000000000000000000000000000000000000000081526004016106b99190611a90565b60405180910390fd5b600360008373ffffffffffffffffffffffffffffffffffffffff1673ffffffffffffffffffffffffffffffffffffffff168152602001908152602001600020549050919050565b610711610d08565b61071b6000610d8f565b565b6000600660009054906101000a900473ffffffffffffffffffffffffffffffffffffffff16905090565b60606001805461075690611e54565b80601f016020809104026020016040519081016040528092919081815260200182805461078290611e54565b80156107cf5780601f106107a4576101008083540402835291602001916107cf565b820191906000526020600020905b8154815290600101906020018083116107b257829003601f168201915b5050505050905090565b6107eb6107e4610ad4565b8383610e55565b5050565b6107fa84848461051b565b61080684848484610fc4565b50505050565b606061081782610a0f565b5060006108226111b3565b90506000815111610842576040518060200160405280600081525061086d565b8061084c846111ca565b60405160200161085d929190611ef8565b6040516020818303038152906040525b915050919050565b6000600560008473ffffffffffffffffffffffffffffffffffffffff1673ffffffffffffffffffffffffffffffffffffffff16815260200190815260200160002060008373ffffffffffffffffffffffffffffffffffffffff1673ffffffffffffffffffffffffffffffffffffffff16815260200190815260200160002060009054906101000a900460ff16905092915050565b610911610d08565b61091b8282611298565b5050565b610927610d08565b600073ffffffffffffffffffffffffffffffffffffffff168173ffffffffffffffffffffffffffffffffffffffff16036109995760006040517f1e4fbdf70000000000000000000000000000000000000000000000000000000081526004016109909190611a90565b60405180910390fd5b6109a281610d8f565b50565b60007f01ffc9a7000000000000000000000000000000000000000000000000000000007bffffffffffffffffffffffffffffffffffffffffffffffffffffffff1916827bffffffffffffffffffffffffffffffffffffffffffffffffffffffff1916149050919050565b600080610a1b83611391565b9050600073ffffffffffffffffffffffffffffffffffffffff168173ffffffffffffffffffffffffffffffffffffffff1603610a8e57826040517f7e273289000000000000000000000000000000000000000000000000000000008152600401610a859190611ba6565b60405180910390fd5b80915050919050565b60006004600083815260200190815260200160002060009054906101000a900473ffffffffffffffffffffffffffffffffffffffff169050919050565b600033905090565b610ae983838360016113ce565b505050565b600080610afa84611391565b9050600073ffffffffffffffffffffffffffffffffffffffff168373ffffffffffffffffffffffffffffffffffffffff1614610b3c57610b3b818486611593565b5b600073ffffffffffffffffffffffffffffffffffffffff168173ffffffffffffffffffffffffffffffffffffffff1614610bcd57610b7e6000856000806113ce565b6001600360008373ffffffffffffffffffffffffffffffffffffffff1673ffffffffffffffffffffffffffffffffffffffff168152602001908152602001600020600082825403925050819055505b600073ffffffffffffffffffffffffffffffffffffffff168573ffffffffffffffffffffffffffffffffffffffff1614610c50576001600360008773ffffffffffffffffffffffffffffffffffffffff1673ffffffffffffffffffffffffffffffffffffffff168152602001908152602001600020600082825401925050819055505b846002600086815260200190815260200160002060006101000a81548173ffffffffffffffffffffffffffffffffffffffff021916908373ffffffffffffffffffffffffffffffffffffffff160217905550838573ffffffffffffffffffffffffffffffffffffffff168273ffffffffffffffffffffffffffffffffffffffff167fddf252ad1be2c89b69c2b068fc378daa952ba7f163c4a11628f55a4df523b3ef60405160405180910390a4809150509392505050565b610d10610ad4565b73ffffffffffffffffffffffffffffffffffffffff16610d2e61071d565b73ffffffffffffffffffffffffffffffffffffffff1614610d8d57610d51610ad4565b6040517f118cdaa7000000000000000000000000000000000000000000000000000000008152600401610d849190611a90565b60405180910390fd5b565b6000600660009054906101000a900473ffffffffffffffffffffffffffffffffffffffff16905081600660006101000a81548173ffffffffffffffffffffffffffffffffffffffff021916908373ffffffffffffffffffffffffffffffffffffffff1602179055508173ffffffffffffffffffffffffffffffffffffffff168173ffffffffffffffffffffffffffffffffffffffff167f8be0079c531659141344cd1fd0a4f28419497f9722a3daafe3b4186f6b6457e060405160405180910390a35050565b600073ffffffffffffffffffffffffffffffffffffffff168273ffffffffffffffffffffffffffffffffffffffff1603610ec657816040517f5b08ba18000000000000000000000000000000000000000000000000000000008152600401610ebd9190611a90565b60405180910390fd5b80600560008573ffffffffffffffffffffffffffffffffffffffff1673ffffffffffffffffffffffffffffffffffffffff16815260200190815260200160002060008473ffffffffffffffffffffffffffffffffffffffff1673ffffffffffffffffffffffffffffffffffffffff16815260200190815260200160002060006101000a81548160ff0219169083151502179055508173ffffffffffffffffffffffffffffffffffffffff168373ffffffffffffffffffffffffffffffffffffffff167f17307eab39ab6107e8899845ad3d59bd9653f200f220920489ca2b5937696c3183604051610fb7919061191f565b60405180910390a3505050565b60008373ffffffffffffffffffffffffffffffffffffffff163b11156111ad578273ffffffffffffffffffffffffffffffffffffffff1663150b7a02611008610ad4565b8685856040518563ffffffff167c01000000000000000000000000000000000000000000000000000000000281526004016110469493929190611f71565b6020604051808303816000875af192505050801561108257506040513d601f19601f8201168201806040525081019061107f9190611fd2565b60015b611106573d80600081146110b2576040519150601f19603f3d011682016040523d82523d6000602084013e6110b7565b606091505b5060008151036110fe57836040517f64a0ae920000000000000000000000000000000000000000000000000000000081526004016110f59190611a90565b60405180910390fd5b805181602001fd5b63150b7a027c0100000000000000000000000000000000000000000000000000000000027bffffffffffffffffffffffffffffffffffffffffffffffffffffffff1916817bffffffffffffffffffffffffffffffffffffffffffffffffffffffff1916146111ab57836040517f64a0ae920000000000000000000000000000000000000000000000000000000081526004016111a29190611a90565b60405180910390fd5b505b50505050565b606060405180602001604052806000815250905090565b6060600060016111d984611657565b01905060008167ffffffffffffffff8111156111f8576111f7611c37565b5b6040519080825280601f01601f19166020018201604052801561122a5781602001600182028036833780820191505090505b509050600082602001820190505b60011561128d578080600190039150507f3031323334353637383961626364656600000000000000000000000000000000600a86061a8153600a858161128157611280611fff565b5b04945060008503611238575b819350505050919050565b600073ffffffffffffffffffffffffffffffffffffffff168273ffffffffffffffffffffffffffffffffffffffff160361130a5760006040517f64a0ae920000000000000000000000000000000000000000000000000000000081526004016113019190611a90565b60405180910390fd5b600061131883836000610aee565b9050600073ffffffffffffffffffffffffffffffffffffffff168173ffffffffffffffffffffffffffffffffffffffff161461138c5760006040517f73c6ac6e0000000000000000000000000000000000000000000000000000000081526004016113839190611a90565b60405180910390fd5b505050565b60006002600083815260200190815260200160002060009054906101000a900473ffffffffffffffffffffffffffffffffffffffff169050919050565b80806114075750600073ffffffffffffffffffffffffffffffffffffffff168273ffffffffffffffffffffffffffffffffffffffff1614155b1561153b57600061141784610a0f565b9050600073ffffffffffffffffffffffffffffffffffffffff168373ffffffffffffffffffffffffffffffffffffffff161415801561148257508273ffffffffffffffffffffffffffffffffffffffff168173ffffffffffffffffffffffffffffffffffffffff1614155b801561149557506114938184610875565b155b156114d757826040517fa9fbf51f0000000000000000000000000000000000000000000000000000000081526004016114ce9190611a90565b60405180910390fd5b811561153957838573ffffffffffffffffffffffffffffffffffffffff168273ffffffffffffffffffffffffffffffffffffffff167f8c5be1e5ebec7d5bd14f71427d1e84f3dd0314c0f7b2291e5b200ac8c7c3b92560405160405180910390a45b505b836004600085815260200190815260200160002060006101000a81548173ffffffffffffffffffffffffffffffffffffffff021916908373ffffffffffffffffffffffffffffffffffffffff16021790555050505050565b61159e8383836117aa565b61165257600073ffffffffffffffffffffffffffffffffffffffff168373ffffffffffffffffffffffffffffffffffffffff160361161357806040517f7e27328900000000000000000000000000000000000000000000000000000000815260040161160a9190611ba6565b60405180910390fd5b81816040517f177e802f00000000000000000000000000000000000000000000000000000000815260040161164992919061202e565b60405180910390fd5b505050565b600080600090507a184f03e93ff9f4daa797ed6e38ed64bf6a1f01000000000000000083106116b5577a184f03e93ff9f4daa797ed6e38ed64bf6a1f01000000000000000083816116ab576116aa611fff565b5b0492506040810190505b6d04ee2d6d415b85acef810000000083106116f2576d04ee2d6d415b85acef810000000083816116e8576116e7611fff565b5b0492506020810190505b662386f26fc10000831061172157662386f26fc10000838161171757611716611fff565b5b0492506010810190505b6305f5e100831061174a576305f5e10083816117405761173f611fff565b5b0492506008810190505b612710831061176f57612710838161176557611764611fff565b5b0492506004810190505b60648310611792576064838161178857611787611fff565b5b0492506002810190505b600a83106117a1576001810190505b80915050919050565b60008073ffffffffffffffffffffffffffffffffffffffff168373ffffffffffffffffffffffffffffffffffffffff161415801561186257508273ffffffffffffffffffffffffffffffffffffffff168473ffffffffffffffffffffffffffffffffffffffff16148061182357506118228484610875565b5b8061186157508273ffffffffffffffffffffffffffffffffffffffff1661184983610a97565b73ffffffffffffffffffffffffffffffffffffffff16145b5b90509392505050565b6000604051905090565b600080fd5b600080fd5b60007fffffffff0000000000000000000000000000000000000000000000000000000082169050919050565b6118b48161187f565b81146118bf57600080fd5b50565b6000813590506118d1816118ab565b92915050565b6000602082840312156118ed576118ec611875565b5b60006118fb848285016118c2565b91505092915050565b60008115159050919050565b61191981611904565b82525050565b60006020820190506119346000830184611910565b92915050565b600081519050919050565b600082825260208201905092915050565b60005b83811015611974578082015181840152602081019050611959565b60008484015250505050565b6000601f19601f8301169050919050565b600061199c8261193a565b6119a68185611945565b93506119b6818560208601611956565b6119bf81611980565b840191505092915050565b600060208201905081810360008301526119e48184611991565b905092915050565b6000819050919050565b6119ff816119ec565b8114611a0a57600080fd5b50565b600081359050611a1c816119f6565b92915050565b600060208284031215611a3857611a37611875565b5b6000611a4684828501611a0d565b91505092915050565b600073ffffffffffffffffffffffffffffffffffffffff82169050919050565b6000611a7a82611a4f565b9050919050565b611a8a81611a6f565b82525050565b6000602082019050611aa56000830184611a81565b92915050565b611ab481611a6f565b8114611abf57600080fd5b50565b600081359050611ad181611aab565b92915050565b60008060408385031215611aee57611aed611875565b5b6000611afc85828601611ac2565b9250506020611b0d85828601611a0d565b9150509250929050565b600080600060608486031215611b3057611b2f611875565b5b6000611b3e86828701611ac2565b9350506020611b4f86828701611ac2565b9250506040611b6086828701611a0d565b9150509250925092565b600060208284031215611b8057611b7f611875565b5b6000611b8e84828501611ac2565b91505092915050565b611ba0816119ec565b82525050565b6000602082019050611bbb6000830184611b97565b92915050565b611bca81611904565b8114611bd557600080fd5b50565b600081359050611be781611bc1565b92915050565b60008060408385031215611c0457611c03611875565b5b6000611c1285828601611ac2565b9250506020611c2385828601611bd8565b9150509250929050565b600080fd5b600080fd5b7f4e487b7100000000000000000000000000000000000000000000000000000000600052604160045260246000fd5b611c6f82611980565b810181811067ffffffffffffffff82111715611c8e57611c8d611c37565b5b80604052505050565b6000611ca161186b565b9050611cad8282611c66565b919050565b600067ffffffffffffffff821115611ccd57611ccc611c37565b5b611cd682611980565b9050602081019050919050565b82818337600083830152505050565b6000611d05611d0084611cb2565b611c97565b905082815260208101848484011115611d2157611d20611c32565b5b611d2c848285611ce3565b509392505050565b600082601f830112611d4957611d48611c2d565b5b8135611d59848260208601611cf2565b91505092915050565b60008060008060808587031215611d7c57611d7b611875565b5b6000611d8a87828801611ac2565b9450506020611d9b87828801611ac2565b9350506040611dac87828801611a0d565b925050606085013567ffffffffffffffff811115611dcd57611dcc61187a565b5b611dd987828801611d34565b91505092959194509250565b60008060408385031215611dfc57611dfb611875565b5b6000611e0a85828601611ac2565b9250506020611e1b85828601611ac2565b9150509250929050565b7f4e487b7100000000000000000000000000000000000000000000000000000000600052602260045260246000fd5b60006002820490506001821680611e6c57607f821691505b602082108103611e7f57611e7e611e25565b5b50919050565b6000606082019050611e9a6000830186611a81565b611ea76020830185611b97565b611eb46040830184611a81565b949350505050565b600081905092915050565b6000611ed28261193a565b611edc8185611ebc565b9350611eec818560208601611956565b80840191505092915050565b6000611f048285611ec7565b9150611f108284611ec7565b91508190509392505050565b600081519050919050565b600082825260208201905092915050565b6000611f4382611f1c565b611f4d8185611f27565b9350611f5d818560208601611956565b611f6681611980565b840191505092915050565b6000608082019050611f866000830187611a81565b611f936020830186611a81565b611fa06040830185611b97565b8181036060830152611fb28184611f38565b905095945050505050565b600081519050611fcc816118ab565b92915050565b600060208284031215611fe857611fe7611875565b5b6000611ff684828501611fbd565b91505092915050565b7f4e487b7100000000000000000000000000000000000000000000000000000000600052601260045260246000fd5b60006040820190506120436000830185611a81565b6120506020830184611b97565b939250505056fea2646970667358221220f31d436f798b4b096b568b9154ec7e34dac511073e4b6b4f8667df33aacfac0464736f6c63430008140033",
  "immutableReferences": {},
  "source": "// SPDX-License-Identifier: MIT\r\npragma solidity ^0.8.0;\r\nimport \"./Auth.sol\";\r\nimport \"@openzeppelin/contracts/token/ERC721/ERC721.sol\";\r\nimport \"@openzeppelin/contracts/access/Ownable.sol\";\r\n\r\ncontract DonationNFT is ERC721, Ownable {\r\n    constructor() ERC721(\"DonationNFT\", \"DNFT\") Ownable(msg.sender) {}\r\n    function mintDonationNFT(address to, uint256 tokenId) public onlyOwner {\r\n        _mint(to, tokenId);\r\n    }\r\n}\r\n\r\ncontract Crowdfunding {\r\n    enum Status {\r\n        Waiting,\r\n        Invalid,\r\n        Valid,\r\n        Done\r\n    }\r\n\r\n    struct Campaign {\r\n        uint256 id;\r\n        address creator;\r\n        string field;\r\n        string title;\r\n        string description;\r\n        uint256 endDate;\r\n        uint256 period;\r\n        uint256 amount;\r\n        uint256 raisedAmount;\r\n        address[] donors;\r\n        string imageUrl;\r\n        string dataUrl;\r\n        Status status;\r\n    }\r\n\r\n    struct Donation {\r\n        uint256 id;\r\n        address donor;\r\n        uint256 amount;\r\n        uint256 campaign;\r\n    }\r\n\r\n    uint256 public campaignIdCounter;\r\n    uint256 public donationIdCounter;\r\n\r\n    Campaign[] public campaigns;\r\n    Donation[] public donations;\r\n\r\n    DonationNFT public nftContract;\r\n    Auth public authContract;\r\n\r\n    constructor(address _authContractAddress) {\r\n        authContract = Auth(_authContractAddress);\r\n        nftContract = new DonationNFT();\r\n    }\r\n\r\n    modifier onlyRole(Auth.Role role) {\r\n        require(\r\n            authContract.getActorRole(msg.sender) == role,\r\n            \"Permission denied\"\r\n        );\r\n        _;\r\n    }\r\n\r\n    function createCampaign(\r\n        string memory _field,\r\n        string memory _title,\r\n        string memory _description,\r\n        uint256 _period,\r\n        uint256 _amount,\r\n        string memory _imageUrl,\r\n        string memory _dataUrl\r\n    ) public onlyRole(Auth.Role.Association) {\r\n        campaigns.push(\r\n            Campaign(\r\n                campaignIdCounter,\r\n                msg.sender,\r\n                _field,\r\n                _title,\r\n                _description,\r\n                0,\r\n                _period,\r\n                _amount,\r\n                0,\r\n                new address[](0),\r\n                _imageUrl,\r\n                _dataUrl,\r\n                Status.Waiting\r\n            )\r\n        );\r\n        campaignIdCounter++;\r\n    }\r\n\r\n    function evaluateCampaign(uint256 _id, Status _status)\r\n        public\r\n        onlyRole(Auth.Role.Evaluator)\r\n    {\r\n        require(_id > 0 && _id <= campaignIdCounter, \"Invalid campaign ID\");\r\n        Campaign storage campaign = campaigns[_id - 1];\r\n        require(\r\n            campaign.status == Status.Waiting,\r\n            \"Campaign status is not Waiting\"\r\n        );\r\n        campaign.endDate = block.timestamp + campaign.period;\r\n        campaign.status = _status;\r\n    }\r\n\r\n    function donateToCampaign(uint256 _campaignId)\r\n        public\r\n        payable\r\n        onlyRole(Auth.Role.Donor)\r\n    {\r\n        require(\r\n            _campaignId > 0 && _campaignId <= campaignIdCounter,\r\n            \"Invalid campaign ID\"\r\n        );\r\n        Campaign storage campaign = campaigns[_campaignId - 1];\r\n        require(\r\n            campaign.status == Status.Valid,\r\n            \"Campaign status is not Valid\"\r\n        );\r\n\r\n        // Mint a new Donation NFT for the donor\r\n        nftContract.mintDonationNFT(msg.sender, donationIdCounter);\r\n\r\n        // Create a new Donation and associate it with the NFT\r\n        donations.push(\r\n            Donation(donationIdCounter, msg.sender, msg.value, _campaignId)\r\n        );\r\n        donationIdCounter++;\r\n\r\n        // Update the campaign's raisedAmount and donors\r\n        campaign.raisedAmount += msg.value;\r\n        campaign.donors.push(msg.sender);\r\n\r\n        // Transfer the donated ether to the campaign's creator\r\n        payable(campaign.creator).transfer(msg.value);\r\n    }\r\n\r\n    function getAllCampaigns() public view returns (Campaign[] memory) {\r\n        return campaigns;\r\n    }\r\n\r\n    function getAllDonations() public view returns (Donation[] memory) {\r\n        return donations;\r\n    }\r\n}\r\n",
  "sourcePath": "D:\\crowdfunding\\contracts\\Crowdfunding.sol",
  "compiler": {
    "name": "solc",
    "version": "0.8.20+commit.a1b79de6.Emscripten.clang"
  },
  "schemaVersion": "3.4.12",
  "updatedAt": "2023-10-23T04:29:26.519Z",
  "networkType": "ethereum",
  "devdoc": {
    "kind": "dev",
    "methods": {},
    "version": 1
  },
  "userdoc": {
    "kind": "user",
    "methods": {},
    "version": 1
  }
}