{
  "contractName": "Crowdfunding",
  "abi": [
    {
      "inputs": [
        {
          "internalType": "address",
          "name": "_authContractAddress",
          "type": "address"
        }
      ],
      "stateMutability": "nonpayable",
      "type": "constructor"
    },
    {
      "inputs": [],
      "name": "authContract",
      "outputs": [
        {
          "internalType": "contract Auth",
          "name": "",
          "type": "address"
        }
      ],
      "stateMutability": "view",
      "type": "function",
      "constant": true
    },
    {
      "inputs": [],
      "name": "campaignIdCounter",
      "outputs": [
        {
          "internalType": "uint256",
          "name": "",
          "type": "uint256"
        }
      ],
      "stateMutability": "view",
      "type": "function",
      "constant": true
    },
    {
      "inputs": [
        {
          "internalType": "uint256",
          "name": "",
          "type": "uint256"
        }
      ],
      "name": "campaigns",
      "outputs": [
        {
          "internalType": "uint256",
          "name": "id",
          "type": "uint256"
        },
        {
          "internalType": "address",
          "name": "creator",
          "type": "address"
        },
        {
          "internalType": "string",
          "name": "field",
          "type": "string"
        },
        {
          "internalType": "string",
          "name": "title",
          "type": "string"
        },
        {
          "internalType": "string",
          "name": "description",
          "type": "string"
        },
        {
          "internalType": "uint256",
          "name": "endDate",
          "type": "uint256"
        },
        {
          "internalType": "uint256",
          "name": "period",
          "type": "uint256"
        },
        {
          "internalType": "uint256",
          "name": "amount",
          "type": "uint256"
        },
        {
          "internalType": "uint256",
          "name": "raisedAmount",
          "type": "uint256"
        },
        {
          "internalType": "string",
          "name": "imageUrl",
          "type": "string"
        },
        {
          "internalType": "string",
          "name": "dataUrl",
          "type": "string"
        },
        {
          "internalType": "enum Crowdfunding.Status",
          "name": "status",
          "type": "uint8"
        }
      ],
      "stateMutability": "view",
      "type": "function",
      "constant": true
    },
    {
      "inputs": [],
      "name": "donationIdCounter",
      "outputs": [
        {
          "internalType": "uint256",
          "name": "",
          "type": "uint256"
        }
      ],
      "stateMutability": "view",
      "type": "function",
      "constant": true
    },
    {
      "inputs": [
        {
          "internalType": "uint256",
          "name": "",
          "type": "uint256"
        }
      ],
      "name": "donations",
      "outputs": [
        {
          "internalType": "uint256",
          "name": "id",
          "type": "uint256"
        },
        {
          "internalType": "address",
          "name": "donor",
          "type": "address"
        },
        {
          "internalType": "uint256",
          "name": "amount",
          "type": "uint256"
        },
        {
          "internalType": "uint256",
          "name": "campaign",
          "type": "uint256"
        }
      ],
      "stateMutability": "view",
      "type": "function",
      "constant": true
    },
    {
      "inputs": [],
      "name": "nftContract",
      "outputs": [
        {
          "internalType": "contract DonationNFT",
          "name": "",
          "type": "address"
        }
      ],
      "stateMutability": "view",
      "type": "function",
      "constant": true
    },
    {
      "inputs": [
        {
          "internalType": "string",
          "name": "_field",
          "type": "string"
        },
        {
          "internalType": "string",
          "name": "_title",
          "type": "string"
        },
        {
          "internalType": "string",
          "name": "_description",
          "type": "string"
        },
        {
          "internalType": "uint256",
          "name": "_period",
          "type": "uint256"
        },
        {
          "internalType": "uint256",
          "name": "_amount",
          "type": "uint256"
        },
        {
          "internalType": "string",
          "name": "_imageUrl",
          "type": "string"
        },
        {
          "internalType": "string",
          "name": "_dataUrl",
          "type": "string"
        }
      ],
      "name": "createCampaign",
      "outputs": [],
      "stateMutability": "nonpayable",
      "type": "function"
    },
    {
      "inputs": [
        {
          "internalType": "uint256",
          "name": "_id",
          "type": "uint256"
        },
        {
          "internalType": "enum Crowdfunding.Status",
          "name": "_status",
          "type": "uint8"
        }
      ],
      "name": "evaluateCampaign",
      "outputs": [],
      "stateMutability": "nonpayable",
      "type": "function"
    },
    {
      "inputs": [
        {
          "internalType": "uint256",
          "name": "_campaignId",
          "type": "uint256"
        }
      ],
      "name": "donateToCampaign",
      "outputs": [],
      "stateMutability": "payable",
      "type": "function",
      "payable": true
    },
    {
      "inputs": [],
      "name": "getAllCampaigns",
      "outputs": [
        {
          "components": [
            {
              "internalType": "uint256",
              "name": "id",
              "type": "uint256"
            },
            {
              "internalType": "address",
              "name": "creator",
              "type": "address"
            },
            {
              "internalType": "string",
              "name": "field",
              "type": "string"
            },
            {
              "internalType": "string",
              "name": "title",
              "type": "string"
            },
            {
              "internalType": "string",
              "name": "description",
              "type": "string"
            },
            {
              "internalType": "uint256",
              "name": "endDate",
              "type": "uint256"
            },
            {
              "internalType": "uint256",
              "name": "period",
              "type": "uint256"
            },
            {
              "internalType": "uint256",
              "name": "amount",
              "type": "uint256"
            },
            {
              "internalType": "uint256",
              "name": "raisedAmount",
              "type": "uint256"
            },
            {
              "internalType": "address[]",
              "name": "donors",
              "type": "address[]"
            },
            {
              "internalType": "string",
              "name": "imageUrl",
              "type": "string"
            },
            {
              "internalType": "string",
              "name": "dataUrl",
              "type": "string"
            },
            {
              "internalType": "enum Crowdfunding.Status",
              "name": "status",
              "type": "uint8"
            }
          ],
          "internalType": "struct Crowdfunding.Campaign[]",
          "name": "",
          "type": "tuple[]"
        }
      ],
      "stateMutability": "view",
      "type": "function",
      "constant": true
    },
    {
      "inputs": [],
      "name": "getAllDonations",
      "outputs": [
        {
          "components": [
            {
              "internalType": "uint256",
              "name": "id",
              "type": "uint256"
            },
            {
              "internalType": "address",
              "name": "donor",
              "type": "address"
            },
            {
              "internalType": "uint256",
              "name": "amount",
              "type": "uint256"
            },
            {
              "internalType": "uint256",
              "name": "campaign",
              "type": "uint256"
            }
          ],
          "internalType": "struct Crowdfunding.Donation[]",
          "name": "",
          "type": "tuple[]"
        }
      ],
      "stateMutability": "view",
      "type": "function",
      "constant": true
    }
  ],
  "bytecode": "0x60806040526000805560006001553480156200001a57600080fd5b5060405162004bfb38038062004bfb83398181016040528101906200004091906200016c565b80600560006101000a81548173ffffffffffffffffffffffffffffffffffffffff021916908373ffffffffffffffffffffffffffffffffffffffff1602179055506040516200008f90620000f4565b604051809103906000f080158015620000ac573d6000803e3d6000fd5b50600460006101000a81548173ffffffffffffffffffffffffffffffffffffffff021916908373ffffffffffffffffffffffffffffffffffffffff160217905550506200019e565b612667806200259483390190565b600080fd5b600073ffffffffffffffffffffffffffffffffffffffff82169050919050565b6000620001348262000107565b9050919050565b620001468162000127565b81146200015257600080fd5b50565b60008151905062000166816200013b565b92915050565b60006020828403121562000185576200018462000102565b5b6000620001958482850162000155565b91505092915050565b6123e680620001ae6000396000f3fe6080604052600436106100b9576000357c01000000000000000000000000000000000000000000000000000000009004806342a4fda81161008157806342a4fda8146101b057806386cdf604146101cc578063b62367c9146101f7578063d56d229d14610222578063f0da09601461024d578063f8626af814610276576100b9565b8063141961bc146100be578063161432c7146101065780632e6186761461012f57806336cf0c191461015a57806338a59a0714610185575b600080fd5b3480156100ca57600080fd5b506100e560048036038101906100e091906113e4565b6102b6565b6040516100fd9c9b9a99989796959493929190611568565b60405180910390f35b34801561011257600080fd5b5061012d6004803603810190610128919061166a565b6105fb565b005b34801561013b57600080fd5b50610144610727565b60405161015191906116aa565b60405180910390f35b34801561016657600080fd5b5061016f61072d565b60405161017c91906116aa565b60405180910390f35b34801561019157600080fd5b5061019a610733565b6040516101a791906117e7565b60405180910390f35b6101ca60048036038101906101c591906113e4565b610806565b005b3480156101d857600080fd5b506101e1610b68565b6040516101ee9190611b0f565b60405180910390f35b34801561020357600080fd5b5061020c610ff3565b6040516102199190611b90565b60405180910390f35b34801561022e57600080fd5b50610237611019565b6040516102449190611bcc565b60405180910390f35b34801561025957600080fd5b50610274600480360381019061026f9190611d1c565b61103f565b005b34801561028257600080fd5b5061029d600480360381019061029891906113e4565b611293565b6040516102ad9493929190611e4a565b60405180910390f35b600281815481106102c657600080fd5b90600052602060002090600d02016000915090508060000154908060010160009054906101000a900473ffffffffffffffffffffffffffffffffffffffff169080600201805461031590611ebe565b80601f016020809104026020016040519081016040528092919081815260200182805461034190611ebe565b801561038e5780601f106103635761010080835404028352916020019161038e565b820191906000526020600020905b81548152906001019060200180831161037157829003601f168201915b5050505050908060030180546103a390611ebe565b80601f01602080910402602001604051908101604052809291908181526020018280546103cf90611ebe565b801561041c5780601f106103f15761010080835404028352916020019161041c565b820191906000526020600020905b8154815290600101906020018083116103ff57829003601f168201915b50505050509080600401805461043190611ebe565b80601f016020809104026020016040519081016040528092919081815260200182805461045d90611ebe565b80156104aa5780601f1061047f576101008083540402835291602001916104aa565b820191906000526020600020905b81548152906001019060200180831161048d57829003601f168201915b50505050509080600501549080600601549080600701549080600801549080600a0180546104d790611ebe565b80601f016020809104026020016040519081016040528092919081815260200182805461050390611ebe565b80156105505780601f1061052557610100808354040283529160200191610550565b820191906000526020600020905b81548152906001019060200180831161053357829003601f168201915b50505050509080600b01805461056590611ebe565b80601f016020809104026020016040519081016040528092919081815260200182805461059190611ebe565b80156105de5780601f106105b3576101008083540402835291602001916105de565b820191906000526020600020905b8154815290600101906020018083116105c157829003601f168201915b50505050509080600c0160009054906101000a900460ff1690508c565b600054821115610640576040517f08c379a000000000000000000000000000000000000000000000000000000000815260040161063790611f3b565b60405180910390fd5b60006002838154811061065657610655611f5b565b5b90600052602060002090600d020190506000600381111561067a576106796114f1565b5b81600c0160009054906101000a900460ff16600381111561069e5761069d6114f1565b5b146106de576040517f08c379a00000000000000000000000000000000000000000000000000000000081526004016106d590611fd6565b60405180910390fd5b8060060154426106ee9190612025565b81600501819055508181600c0160006101000a81548160ff0219169083600381111561071d5761071c6114f1565b5b0217905550505050565b60005481565b60015481565b60606003805480602002602001604051908101604052809291908181526020016000905b828210156107fd5783829060005260206000209060040201604051806080016040529081600082015481526020016001820160009054906101000a900473ffffffffffffffffffffffffffffffffffffffff1673ffffffffffffffffffffffffffffffffffffffff1673ffffffffffffffffffffffffffffffffffffffff1681526020016002820154815260200160038201548152505081526020019060010190610757565b50505050905090565b60005481111561084b576040517f08c379a000000000000000000000000000000000000000000000000000000000815260040161084290611f3b565b60405180910390fd5b60006002828154811061086157610860611f5b565b5b90600052602060002090600d0201905060026003811115610885576108846114f1565b5b81600c0160009054906101000a900460ff1660038111156108a9576108a86114f1565b5b146108e9576040517f08c379a00000000000000000000000000000000000000000000000000000000081526004016108e0906120a5565b60405180910390fd5b600460009054906101000a900473ffffffffffffffffffffffffffffffffffffffff1673ffffffffffffffffffffffffffffffffffffffff1663f24c9f06336001546040518363ffffffff167c01000000000000000000000000000000000000000000000000000000000281526004016109649291906120c5565b600060405180830381600087803b15801561097e57600080fd5b505af1158015610992573d6000803e3d6000fd5b505050506003604051806080016040528060015481526020013373ffffffffffffffffffffffffffffffffffffffff1681526020013481526020018481525090806001815401808255809150506001900390600052602060002090600402016000909190919091506000820151816000015560208201518160010160006101000a81548173ffffffffffffffffffffffffffffffffffffffff021916908373ffffffffffffffffffffffffffffffffffffffff1602179055506040820151816002015560608201518160030155505060016000815480929190610a74906120ee565b919050555034816008016000828254610a8d9190612025565b9250508190555080600901339080600181540180825580915050600190039060005260206000200160009091909190916101000a81548173ffffffffffffffffffffffffffffffffffffffff021916908373ffffffffffffffffffffffffffffffffffffffff1602179055508060010160009054906101000a900473ffffffffffffffffffffffffffffffffffffffff1673ffffffffffffffffffffffffffffffffffffffff166108fc349081150290604051600060405180830381858888f19350505050158015610b63573d6000803e3d6000fd5b505050565b60606002805480602002602001604051908101604052809291908181526020016000905b82821015610fea57838290600052602060002090600d0201604051806101a0016040529081600082015481526020016001820160009054906101000a900473ffffffffffffffffffffffffffffffffffffffff1673ffffffffffffffffffffffffffffffffffffffff1673ffffffffffffffffffffffffffffffffffffffff168152602001600282018054610c2090611ebe565b80601f0160208091040260200160405190810160405280929190818152602001828054610c4c90611ebe565b8015610c995780601f10610c6e57610100808354040283529160200191610c99565b820191906000526020600020905b815481529060010190602001808311610c7c57829003601f168201915b50505050508152602001600382018054610cb290611ebe565b80601f0160208091040260200160405190810160405280929190818152602001828054610cde90611ebe565b8015610d2b5780601f10610d0057610100808354040283529160200191610d2b565b820191906000526020600020905b815481529060010190602001808311610d0e57829003601f168201915b50505050508152602001600482018054610d4490611ebe565b80601f0160208091040260200160405190810160405280929190818152602001828054610d7090611ebe565b8015610dbd5780601f10610d9257610100808354040283529160200191610dbd565b820191906000526020600020905b815481529060010190602001808311610da057829003601f168201915b505050505081526020016005820154815260200160068201548152602001600782015481526020016008820154815260200160098201805480602002602001604051908101604052809291908181526020018280548015610e7357602002820191906000526020600020905b8160009054906101000a900473ffffffffffffffffffffffffffffffffffffffff1673ffffffffffffffffffffffffffffffffffffffff1681526020019060010190808311610e29575b50505050508152602001600a82018054610e8c90611ebe565b80601f0160208091040260200160405190810160405280929190818152602001828054610eb890611ebe565b8015610f055780601f10610eda57610100808354040283529160200191610f05565b820191906000526020600020905b815481529060010190602001808311610ee857829003601f168201915b50505050508152602001600b82018054610f1e90611ebe565b80601f0160208091040260200160405190810160405280929190818152602001828054610f4a90611ebe565b8015610f975780601f10610f6c57610100808354040283529160200191610f97565b820191906000526020600020905b815481529060010190602001808311610f7a57829003601f168201915b50505050508152602001600c820160009054906101000a900460ff166003811115610fc557610fc46114f1565b5b6003811115610fd757610fd66114f1565b5b8152505081526020019060010190610b8c565b50505050905090565b600560009054906101000a900473ffffffffffffffffffffffffffffffffffffffff1681565b600460009054906101000a900473ffffffffffffffffffffffffffffffffffffffff1681565b6002604051806101a0016040528060005481526020013373ffffffffffffffffffffffffffffffffffffffff1681526020018981526020018881526020018781526020016000815260200186815260200185815260200160008152602001600067ffffffffffffffff8111156110b8576110b7611bf1565b5b6040519080825280602002602001820160405280156110e65781602001602082028036833780820191505090505b5081526020018481526020018381526020016000600381111561110c5761110b6114f1565b5b81525090806001815401808255809150506001900390600052602060002090600d02016000909190919091506000820151816000015560208201518160010160006101000a81548173ffffffffffffffffffffffffffffffffffffffff021916908373ffffffffffffffffffffffffffffffffffffffff160217905550604082015181600201908161119e91906122de565b5060608201518160030190816111b491906122de565b5060808201518160040190816111ca91906122de565b5060a0820151816005015560c0820151816006015560e0820151816007015561010082015181600801556101208201518160090190805190602001906112119291906112f3565b5061014082015181600a01908161122891906122de565b5061016082015181600b01908161123f91906122de565b5061018082015181600c0160006101000a81548160ff0219169083600381111561126c5761126b6114f1565b5b02179055505050600080815480929190611285906120ee565b919050555050505050505050565b600381815481106112a357600080fd5b90600052602060002090600402016000915090508060000154908060010160009054906101000a900473ffffffffffffffffffffffffffffffffffffffff16908060020154908060030154905084565b82805482825590600052602060002090810192821561136c579160200282015b8281111561136b5782518260006101000a81548173ffffffffffffffffffffffffffffffffffffffff021916908373ffffffffffffffffffffffffffffffffffffffff16021790555091602001919060010190611313565b5b509050611379919061137d565b5090565b5b8082111561139657600081600090555060010161137e565b5090565b6000604051905090565b600080fd5b600080fd5b6000819050919050565b6113c1816113ae565b81146113cc57600080fd5b50565b6000813590506113de816113b8565b92915050565b6000602082840312156113fa576113f96113a4565b5b6000611408848285016113cf565b91505092915050565b61141a816113ae565b82525050565b600073ffffffffffffffffffffffffffffffffffffffff82169050919050565b600061144b82611420565b9050919050565b61145b81611440565b82525050565b600081519050919050565b600082825260208201905092915050565b60005b8381101561149b578082015181840152602081019050611480565b60008484015250505050565b6000601f19601f8301169050919050565b60006114c382611461565b6114cd818561146c565b93506114dd81856020860161147d565b6114e6816114a7565b840191505092915050565b7f4e487b7100000000000000000000000000000000000000000000000000000000600052602160045260246000fd5b60048110611531576115306114f1565b5b50565b600081905061154282611520565b919050565b600061155282611534565b9050919050565b61156281611547565b82525050565b60006101808201905061157e600083018f611411565b61158b602083018e611452565b818103604083015261159d818d6114b8565b905081810360608301526115b1818c6114b8565b905081810360808301526115c5818b6114b8565b90506115d460a083018a611411565b6115e160c0830189611411565b6115ee60e0830188611411565b6115fc610100830187611411565b81810361012083015261160f81866114b8565b905081810361014083015261162481856114b8565b9050611634610160830184611559565b9d9c50505050505050505050505050565b6004811061165257600080fd5b50565b60008135905061166481611645565b92915050565b60008060408385031215611681576116806113a4565b5b600061168f858286016113cf565b92505060206116a085828601611655565b9150509250929050565b60006020820190506116bf6000830184611411565b92915050565b600081519050919050565b600082825260208201905092915050565b6000819050602082019050919050565b6116fa816113ae565b82525050565b61170981611440565b82525050565b60808201600082015161172560008501826116f1565b5060208201516117386020850182611700565b50604082015161174b60408501826116f1565b50606082015161175e60608501826116f1565b50505050565b6000611770838361170f565b60808301905092915050565b6000602082019050919050565b6000611794826116c5565b61179e81856116d0565b93506117a9836116e1565b8060005b838110156117da5781516117c18882611764565b97506117cc8361177c565b9250506001810190506117ad565b5085935050505092915050565b600060208201905081810360008301526118018184611789565b905092915050565b600081519050919050565b600082825260208201905092915050565b6000819050602082019050919050565b600082825260208201905092915050565b600061185182611461565b61185b8185611835565b935061186b81856020860161147d565b611874816114a7565b840191505092915050565b600081519050919050565b600082825260208201905092915050565b6000819050602082019050919050565b60006118b78383611700565b60208301905092915050565b6000602082019050919050565b60006118db8261187f565b6118e5818561188a565b93506118f08361189b565b8060005b8381101561192157815161190888826118ab565b9750611913836118c3565b9250506001810190506118f4565b5085935050505092915050565b61193781611547565b82525050565b60006101a08301600083015161195660008601826116f1565b5060208301516119696020860182611700565b50604083015184820360408601526119818282611846565b9150506060830151848203606086015261199b8282611846565b915050608083015184820360808601526119b58282611846565b91505060a08301516119ca60a08601826116f1565b5060c08301516119dd60c08601826116f1565b5060e08301516119f060e08601826116f1565b50610100830151611a056101008601826116f1565b50610120830151848203610120860152611a1f82826118d0565b915050610140830151848203610140860152611a3b8282611846565b915050610160830151848203610160860152611a578282611846565b915050610180830151611a6e61018086018261192e565b508091505092915050565b6000611a85838361193d565b905092915050565b6000602082019050919050565b6000611aa582611809565b611aaf8185611814565b935083602082028501611ac185611825565b8060005b85811015611afd5784840389528151611ade8582611a79565b9450611ae983611a8d565b925060208a01995050600181019050611ac5565b50829750879550505050505092915050565b60006020820190508181036000830152611b298184611a9a565b905092915050565b6000819050919050565b6000611b56611b51611b4c84611420565b611b31565b611420565b9050919050565b6000611b6882611b3b565b9050919050565b6000611b7a82611b5d565b9050919050565b611b8a81611b6f565b82525050565b6000602082019050611ba56000830184611b81565b92915050565b6000611bb682611b5d565b9050919050565b611bc681611bab565b82525050565b6000602082019050611be16000830184611bbd565b92915050565b600080fd5b600080fd5b7f4e487b7100000000000000000000000000000000000000000000000000000000600052604160045260246000fd5b611c29826114a7565b810181811067ffffffffffffffff82111715611c4857611c47611bf1565b5b80604052505050565b6000611c5b61139a565b9050611c678282611c20565b919050565b600067ffffffffffffffff821115611c8757611c86611bf1565b5b611c90826114a7565b9050602081019050919050565b82818337600083830152505050565b6000611cbf611cba84611c6c565b611c51565b905082815260208101848484011115611cdb57611cda611bec565b5b611ce6848285611c9d565b509392505050565b600082601f830112611d0357611d02611be7565b5b8135611d13848260208601611cac565b91505092915050565b600080600080600080600060e0888a031215611d3b57611d3a6113a4565b5b600088013567ffffffffffffffff811115611d5957611d586113a9565b5b611d658a828b01611cee565b975050602088013567ffffffffffffffff811115611d8657611d856113a9565b5b611d928a828b01611cee565b965050604088013567ffffffffffffffff811115611db357611db26113a9565b5b611dbf8a828b01611cee565b9550506060611dd08a828b016113cf565b9450506080611de18a828b016113cf565b93505060a088013567ffffffffffffffff811115611e0257611e016113a9565b5b611e0e8a828b01611cee565b92505060c088013567ffffffffffffffff811115611e2f57611e2e6113a9565b5b611e3b8a828b01611cee565b91505092959891949750929550565b6000608082019050611e5f6000830187611411565b611e6c6020830186611452565b611e796040830185611411565b611e866060830184611411565b95945050505050565b7f4e487b7100000000000000000000000000000000000000000000000000000000600052602260045260246000fd5b60006002820490506001821680611ed657607f821691505b602082108103611ee957611ee8611e8f565b5b50919050565b7f496e76616c69642063616d706169676e20494400000000000000000000000000600082015250565b6000611f2560138361146c565b9150611f3082611eef565b602082019050919050565b60006020820190508181036000830152611f5481611f18565b9050919050565b7f4e487b7100000000000000000000000000000000000000000000000000000000600052603260045260246000fd5b7f43616d706169676e20737461747573206973206e6f742057616974696e670000600082015250565b6000611fc0601e8361146c565b9150611fcb82611f8a565b602082019050919050565b60006020820190508181036000830152611fef81611fb3565b9050919050565b7f4e487b7100000000000000000000000000000000000000000000000000000000600052601160045260246000fd5b6000612030826113ae565b915061203b836113ae565b925082820190508082111561205357612052611ff6565b5b92915050565b7f43616d706169676e20737461747573206973206e6f742056616c696400000000600082015250565b600061208f601c8361146c565b915061209a82612059565b602082019050919050565b600060208201905081810360008301526120be81612082565b9050919050565b60006040820190506120da6000830185611452565b6120e76020830184611411565b9392505050565b60006120f9826113ae565b91507fffffffffffffffffffffffffffffffffffffffffffffffffffffffffffffffff820361212b5761212a611ff6565b5b600182019050919050565b60008190508160005260206000209050919050565b60006020601f8301049050919050565b60008160020a8302905092915050565b60006008830261219b7fffffffffffffffffffffffffffffffffffffffffffffffffffffffffffffffff8261215b565b6121a5868361215b565b95508019841693508086168417925050509392505050565b60006121d86121d36121ce846113ae565b611b31565b6113ae565b9050919050565b6000819050919050565b6121f2836121bd565b6122066121fe826121df565b84845461216b565b825550505050565b600090565b61221b61220e565b6122268184846121e9565b505050565b5b8181101561224a5761223f600082612213565b60018101905061222c565b5050565b601f82111561228f5761226081612136565b6122698461214b565b81016020851015612278578190505b61228c6122848561214b565b83018261222b565b50505b505050565b60008160020a8304905092915050565b60006122b560001984600802612294565b1980831691505092915050565b60006122ce83836122a4565b9150826002028217905092915050565b6122e782611461565b67ffffffffffffffff811115612300576122ff611bf1565b5b61230a8254611ebe565b61231582828561224e565b600060209050601f8311600181146123485760008415612336578287015190505b61234085826122c2565b8655506123a8565b601f19841661235686612136565b60005b8281101561237e57848901518255600182019150602085019450602081019050612359565b8683101561239b5784890151612397601f8916826122a4565b8355505b6001600288020188555050505b50505050505056fea264697066735822122041fa4f80d167380f8288d6387611763fe9a63a0cc06c4f083b7f6df01574847c64736f6c6343000814003360806040523480156200001157600080fd5b50336040518060400160405280600b81526020017f446f6e6174696f6e4e46540000000000000000000000000000000000000000008152506040518060400160405280600481526020017f444e465400000000000000000000000000000000000000000000000000000000815250816000908162000090919062000481565b508060019081620000a2919062000481565b505050600073ffffffffffffffffffffffffffffffffffffffff168173ffffffffffffffffffffffffffffffffffffffff16036200011a5760006040517f1e4fbdf7000000000000000000000000000000000000000000000000000000008152600401620001119190620005ad565b60405180910390fd5b62000134816200013b640100000000026401000000009004565b50620005ca565b6000600660009054906101000a900473ffffffffffffffffffffffffffffffffffffffff16905081600660006101000a81548173ffffffffffffffffffffffffffffffffffffffff021916908373ffffffffffffffffffffffffffffffffffffffff1602179055508173ffffffffffffffffffffffffffffffffffffffff168173ffffffffffffffffffffffffffffffffffffffff167f8be0079c531659141344cd1fd0a4f28419497f9722a3daafe3b4186f6b6457e060405160405180910390a35050565b600081519050919050565b7f4e487b7100000000000000000000000000000000000000000000000000000000600052604160045260246000fd5b7f4e487b7100000000000000000000000000000000000000000000000000000000600052602260045260246000fd5b600060028204905060018216806200028357607f821691505b6020821081036200029957620002986200023b565b5b50919050565b60008190508160005260206000209050919050565b60006020601f8301049050919050565b60008160020a8302905092915050565b600060088302620003067fffffffffffffffffffffffffffffffffffffffffffffffffffffffffffffffff82620002c4565b620003128683620002c4565b95508019841693508086168417925050509392505050565b6000819050919050565b6000819050919050565b60006200035f6200035962000353846200032a565b62000334565b6200032a565b9050919050565b6000819050919050565b6200037b836200033e565b620003936200038a8262000366565b848454620002d4565b825550505050565b600090565b620003aa6200039b565b620003b781848462000370565b505050565b5b81811015620003df57620003d3600082620003a0565b600181019050620003bd565b5050565b601f8211156200042e57620003f8816200029f565b6200040384620002b4565b8101602085101562000413578190505b6200042b6200042285620002b4565b830182620003bc565b50505b505050565b60008160020a8304905092915050565b6000620004566000198460080262000433565b1980831691505092915050565b600062000471838362000443565b9150826002028217905092915050565b6200048c8262000201565b67ffffffffffffffff811115620004a857620004a76200020c565b5b620004b482546200026a565b620004c1828285620003e3565b600060209050601f831160018114620004f95760008415620004e4578287015190505b620004f0858262000463565b86555062000560565b601f19841662000509866200029f565b60005b8281101562000533578489015182556001820191506020850194506020810190506200050c565b868310156200055357848901516200054f601f89168262000443565b8355505b6001600288020188555050505b505050505050565b600073ffffffffffffffffffffffffffffffffffffffff82169050919050565b6000620005958262000568565b9050919050565b620005a78162000588565b82525050565b6000602082019050620005c460008301846200059c565b92915050565b61208d80620005da6000396000f3fe608060405234801561001057600080fd5b5060043610610128576000357c010000000000000000000000000000000000000000000000000000000090048063715018a6116100bf578063b88d4fde1161008e578063b88d4fde146102c1578063c87b56dd146102dd578063e985e9c51461030d578063f24c9f061461033d578063f2fde38b1461035957610128565b8063715018a61461025f5780638da5cb5b1461026957806395d89b4114610287578063a22cb465146102a557610128565b806323b872dd116100fb57806323b872dd146101c757806342842e0e146101e35780636352211e146101ff57806370a082311461022f57610128565b806301ffc9a71461012d57806306fdde031461015d578063081812fc1461017b578063095ea7b3146101ab575b600080fd5b610147600480360381019061014291906118d7565b610375565b604051610154919061191f565b60405180910390f35b610165610457565b60405161017291906119ca565b60405180910390f35b61019560048036038101906101909190611a22565b6104e9565b6040516101a29190611a90565b60405180910390f35b6101c560048036038101906101c09190611ad7565b610505565b005b6101e160048036038101906101dc9190611b17565b61051b565b005b6101fd60048036038101906101f89190611b17565b61061d565b005b61021960048036038101906102149190611a22565b61063d565b6040516102269190611a90565b60405180910390f35b61024960048036038101906102449190611b6a565b61064f565b6040516102569190611ba6565b60405180910390f35b610267610709565b005b61027161071d565b60405161027e9190611a90565b60405180910390f35b61028f610747565b60405161029c91906119ca565b60405180910390f35b6102bf60048036038101906102ba9190611bed565b6107d9565b005b6102db60048036038101906102d69190611d62565b6107ef565b005b6102f760048036038101906102f29190611a22565b61080c565b60405161030491906119ca565b60405180910390f35b61032760048036038101906103229190611de5565b610875565b604051610334919061191f565b60405180910390f35b61035760048036038101906103529190611ad7565b610909565b005b610373600480360381019061036e9190611b6a565b61091f565b005b60007f80ac58cd000000000000000000000000000000000000000000000000000000007bffffffffffffffffffffffffffffffffffffffffffffffffffffffff1916827bffffffffffffffffffffffffffffffffffffffffffffffffffffffff1916148061044057507f5b5e139f000000000000000000000000000000000000000000000000000000007bffffffffffffffffffffffffffffffffffffffffffffffffffffffff1916827bffffffffffffffffffffffffffffffffffffffffffffffffffffffff1916145b80610450575061044f826109a5565b5b9050919050565b60606000805461046690611e54565b80601f016020809104026020016040519081016040528092919081815260200182805461049290611e54565b80156104df5780601f106104b4576101008083540402835291602001916104df565b820191906000526020600020905b8154815290600101906020018083116104c257829003601f168201915b5050505050905090565b60006104f482610a0f565b506104fe82610a97565b9050919050565b6105178282610512610ad4565b610adc565b5050565b600073ffffffffffffffffffffffffffffffffffffffff168273ffffffffffffffffffffffffffffffffffffffff160361058d5760006040517f64a0ae920000000000000000000000000000000000000000000000000000000081526004016105849190611a90565b60405180910390fd5b60006105a1838361059c610ad4565b610aee565b90508373ffffffffffffffffffffffffffffffffffffffff168173ffffffffffffffffffffffffffffffffffffffff1614610617578382826040517f64283d7b00000000000000000000000000000000000000000000000000000000815260040161060e93929190611e85565b60405180910390fd5b50505050565b610638838383604051806020016040528060008152506107ef565b505050565b600061064882610a0f565b9050919050565b60008073ffffffffffffffffffffffffffffffffffffffff168273ffffffffffffffffffffffffffffffffffffffff16036106c25760006040517f89c62b640000000000000000000000000000000000000000000000000000000081526004016106b99190611a90565b60405180910390fd5b600360008373ffffffffffffffffffffffffffffffffffffffff1673ffffffffffffffffffffffffffffffffffffffff168152602001908152602001600020549050919050565b610711610d08565b61071b6000610d8f565b565b6000600660009054906101000a900473ffffffffffffffffffffffffffffffffffffffff16905090565b60606001805461075690611e54565b80601f016020809104026020016040519081016040528092919081815260200182805461078290611e54565b80156107cf5780601f106107a4576101008083540402835291602001916107cf565b820191906000526020600020905b8154815290600101906020018083116107b257829003601f168201915b5050505050905090565b6107eb6107e4610ad4565b8383610e55565b5050565b6107fa84848461051b565b61080684848484610fc4565b50505050565b606061081782610a0f565b5060006108226111b3565b90506000815111610842576040518060200160405280600081525061086d565b8061084c846111ca565b60405160200161085d929190611ef8565b6040516020818303038152906040525b915050919050565b6000600560008473ffffffffffffffffffffffffffffffffffffffff1673ffffffffffffffffffffffffffffffffffffffff16815260200190815260200160002060008373ffffffffffffffffffffffffffffffffffffffff1673ffffffffffffffffffffffffffffffffffffffff16815260200190815260200160002060009054906101000a900460ff16905092915050565b610911610d08565b61091b8282611298565b5050565b610927610d08565b600073ffffffffffffffffffffffffffffffffffffffff168173ffffffffffffffffffffffffffffffffffffffff16036109995760006040517f1e4fbdf70000000000000000000000000000000000000000000000000000000081526004016109909190611a90565b60405180910390fd5b6109a281610d8f565b50565b60007f01ffc9a7000000000000000000000000000000000000000000000000000000007bffffffffffffffffffffffffffffffffffffffffffffffffffffffff1916827bffffffffffffffffffffffffffffffffffffffffffffffffffffffff1916149050919050565b600080610a1b83611391565b9050600073ffffffffffffffffffffffffffffffffffffffff168173ffffffffffffffffffffffffffffffffffffffff1603610a8e57826040517f7e273289000000000000000000000000000000000000000000000000000000008152600401610a859190611ba6565b60405180910390fd5b80915050919050565b60006004600083815260200190815260200160002060009054906101000a900473ffffffffffffffffffffffffffffffffffffffff169050919050565b600033905090565b610ae983838360016113ce565b505050565b600080610afa84611391565b9050600073ffffffffffffffffffffffffffffffffffffffff168373ffffffffffffffffffffffffffffffffffffffff1614610b3c57610b3b818486611593565b5b600073ffffffffffffffffffffffffffffffffffffffff168173ffffffffffffffffffffffffffffffffffffffff1614610bcd57610b7e6000856000806113ce565b6001600360008373ffffffffffffffffffffffffffffffffffffffff1673ffffffffffffffffffffffffffffffffffffffff168152602001908152602001600020600082825403925050819055505b600073ffffffffffffffffffffffffffffffffffffffff168573ffffffffffffffffffffffffffffffffffffffff1614610c50576001600360008773ffffffffffffffffffffffffffffffffffffffff1673ffffffffffffffffffffffffffffffffffffffff168152602001908152602001600020600082825401925050819055505b846002600086815260200190815260200160002060006101000a81548173ffffffffffffffffffffffffffffffffffffffff021916908373ffffffffffffffffffffffffffffffffffffffff160217905550838573ffffffffffffffffffffffffffffffffffffffff168273ffffffffffffffffffffffffffffffffffffffff167fddf252ad1be2c89b69c2b068fc378daa952ba7f163c4a11628f55a4df523b3ef60405160405180910390a4809150509392505050565b610d10610ad4565b73ffffffffffffffffffffffffffffffffffffffff16610d2e61071d565b73ffffffffffffffffffffffffffffffffffffffff1614610d8d57610d51610ad4565b6040517f118cdaa7000000000000000000000000000000000000000000000000000000008152600401610d849190611a90565b60405180910390fd5b565b6000600660009054906101000a900473ffffffffffffffffffffffffffffffffffffffff16905081600660006101000a81548173ffffffffffffffffffffffffffffffffffffffff021916908373ffffffffffffffffffffffffffffffffffffffff1602179055508173ffffffffffffffffffffffffffffffffffffffff168173ffffffffffffffffffffffffffffffffffffffff167f8be0079c531659141344cd1fd0a4f28419497f9722a3daafe3b4186f6b6457e060405160405180910390a35050565b600073ffffffffffffffffffffffffffffffffffffffff168273ffffffffffffffffffffffffffffffffffffffff1603610ec657816040517f5b08ba18000000000000000000000000000000000000000000000000000000008152600401610ebd9190611a90565b60405180910390fd5b80600560008573ffffffffffffffffffffffffffffffffffffffff1673ffffffffffffffffffffffffffffffffffffffff16815260200190815260200160002060008473ffffffffffffffffffffffffffffffffffffffff1673ffffffffffffffffffffffffffffffffffffffff16815260200190815260200160002060006101000a81548160ff0219169083151502179055508173ffffffffffffffffffffffffffffffffffffffff168373ffffffffffffffffffffffffffffffffffffffff167f17307eab39ab6107e8899845ad3d59bd9653f200f220920489ca2b5937696c3183604051610fb7919061191f565b60405180910390a3505050565b60008373ffffffffffffffffffffffffffffffffffffffff163b11156111ad578273ffffffffffffffffffffffffffffffffffffffff1663150b7a02611008610ad4565b8685856040518563ffffffff167c01000000000000000000000000000000000000000000000000000000000281526004016110469493929190611f71565b6020604051808303816000875af192505050801561108257506040513d601f19601f8201168201806040525081019061107f9190611fd2565b60015b611106573d80600081146110b2576040519150601f19603f3d011682016040523d82523d6000602084013e6110b7565b606091505b5060008151036110fe57836040517f64a0ae920000000000000000000000000000000000000000000000000000000081526004016110f59190611a90565b60405180910390fd5b805181602001fd5b63150b7a027c0100000000000000000000000000000000000000000000000000000000027bffffffffffffffffffffffffffffffffffffffffffffffffffffffff1916817bffffffffffffffffffffffffffffffffffffffffffffffffffffffff1916146111ab57836040517f64a0ae920000000000000000000000000000000000000000000000000000000081526004016111a29190611a90565b60405180910390fd5b505b50505050565b606060405180602001604052806000815250905090565b6060600060016111d984611657565b01905060008167ffffffffffffffff8111156111f8576111f7611c37565b5b6040519080825280601f01601f19166020018201604052801561122a5781602001600182028036833780820191505090505b509050600082602001820190505b60011561128d578080600190039150507f3031323334353637383961626364656600000000000000000000000000000000600a86061a8153600a858161128157611280611fff565b5b04945060008503611238575b819350505050919050565b600073ffffffffffffffffffffffffffffffffffffffff168273ffffffffffffffffffffffffffffffffffffffff160361130a5760006040517f64a0ae920000000000000000000000000000000000000000000000000000000081526004016113019190611a90565b60405180910390fd5b600061131883836000610aee565b9050600073ffffffffffffffffffffffffffffffffffffffff168173ffffffffffffffffffffffffffffffffffffffff161461138c5760006040517f73c6ac6e0000000000000000000000000000000000000000000000000000000081526004016113839190611a90565b60405180910390fd5b505050565b60006002600083815260200190815260200160002060009054906101000a900473ffffffffffffffffffffffffffffffffffffffff169050919050565b80806114075750600073ffffffffffffffffffffffffffffffffffffffff168273ffffffffffffffffffffffffffffffffffffffff1614155b1561153b57600061141784610a0f565b9050600073ffffffffffffffffffffffffffffffffffffffff168373ffffffffffffffffffffffffffffffffffffffff161415801561148257508273ffffffffffffffffffffffffffffffffffffffff168173ffffffffffffffffffffffffffffffffffffffff1614155b801561149557506114938184610875565b155b156114d757826040517fa9fbf51f0000000000000000000000000000000000000000000000000000000081526004016114ce9190611a90565b60405180910390fd5b811561153957838573ffffffffffffffffffffffffffffffffffffffff168273ffffffffffffffffffffffffffffffffffffffff167f8c5be1e5ebec7d5bd14f71427d1e84f3dd0314c0f7b2291e5b200ac8c7c3b92560405160405180910390a45b505b836004600085815260200190815260200160002060006101000a81548173ffffffffffffffffffffffffffffffffffffffff021916908373ffffffffffffffffffffffffffffffffffffffff16021790555050505050565b61159e8383836117aa565b61165257600073ffffffffffffffffffffffffffffffffffffffff168373ffffffffffffffffffffffffffffffffffffffff160361161357806040517f7e27328900000000000000000000000000000000000000000000000000000000815260040161160a9190611ba6565b60405180910390fd5b81816040517f177e802f00000000000000000000000000000000000000000000000000000000815260040161164992919061202e565b60405180910390fd5b505050565b600080600090507a184f03e93ff9f4daa797ed6e38ed64bf6a1f01000000000000000083106116b5577a184f03e93ff9f4daa797ed6e38ed64bf6a1f01000000000000000083816116ab576116aa611fff565b5b0492506040810190505b6d04ee2d6d415b85acef810000000083106116f2576d04ee2d6d415b85acef810000000083816116e8576116e7611fff565b5b0492506020810190505b662386f26fc10000831061172157662386f26fc10000838161171757611716611fff565b5b0492506010810190505b6305f5e100831061174a576305f5e10083816117405761173f611fff565b5b0492506008810190505b612710831061176f57612710838161176557611764611fff565b5b0492506004810190505b60648310611792576064838161178857611787611fff565b5b0492506002810190505b600a83106117a1576001810190505b80915050919050565b60008073ffffffffffffffffffffffffffffffffffffffff168373ffffffffffffffffffffffffffffffffffffffff161415801561186257508273ffffffffffffffffffffffffffffffffffffffff168473ffffffffffffffffffffffffffffffffffffffff16148061182357506118228484610875565b5b8061186157508273ffffffffffffffffffffffffffffffffffffffff1661184983610a97565b73ffffffffffffffffffffffffffffffffffffffff16145b5b90509392505050565b6000604051905090565b600080fd5b600080fd5b60007fffffffff0000000000000000000000000000000000000000000000000000000082169050919050565b6118b48161187f565b81146118bf57600080fd5b50565b6000813590506118d1816118ab565b92915050565b6000602082840312156118ed576118ec611875565b5b60006118fb848285016118c2565b91505092915050565b60008115159050919050565b61191981611904565b82525050565b60006020820190506119346000830184611910565b92915050565b600081519050919050565b600082825260208201905092915050565b60005b83811015611974578082015181840152602081019050611959565b60008484015250505050565b6000601f19601f8301169050919050565b600061199c8261193a565b6119a68185611945565b93506119b6818560208601611956565b6119bf81611980565b840191505092915050565b600060208201905081810360008301526119e48184611991565b905092915050565b6000819050919050565b6119ff816119ec565b8114611a0a57600080fd5b50565b600081359050611a1c816119f6565b92915050565b600060208284031215611a3857611a37611875565b5b6000611a4684828501611a0d565b91505092915050565b600073ffffffffffffffffffffffffffffffffffffffff82169050919050565b6000611a7a82611a4f565b9050919050565b611a8a81611a6f565b82525050565b6000602082019050611aa56000830184611a81565b92915050565b611ab481611a6f565b8114611abf57600080fd5b50565b600081359050611ad181611aab565b92915050565b60008060408385031215611aee57611aed611875565b5b6000611afc85828601611ac2565b9250506020611b0d85828601611a0d565b9150509250929050565b600080600060608486031215611b3057611b2f611875565b5b6000611b3e86828701611ac2565b9350506020611b4f86828701611ac2565b9250506040611b6086828701611a0d565b9150509250925092565b600060208284031215611b8057611b7f611875565b5b6000611b8e84828501611ac2565b91505092915050565b611ba0816119ec565b82525050565b6000602082019050611bbb6000830184611b97565b92915050565b611bca81611904565b8114611bd557600080fd5b50565b600081359050611be781611bc1565b92915050565b60008060408385031215611c0457611c03611875565b5b6000611c1285828601611ac2565b9250506020611c2385828601611bd8565b9150509250929050565b600080fd5b600080fd5b7f4e487b7100000000000000000000000000000000000000000000000000000000600052604160045260246000fd5b611c6f82611980565b810181811067ffffffffffffffff82111715611c8e57611c8d611c37565b5b80604052505050565b6000611ca161186b565b9050611cad8282611c66565b919050565b600067ffffffffffffffff821115611ccd57611ccc611c37565b5b611cd682611980565b9050602081019050919050565b82818337600083830152505050565b6000611d05611d0084611cb2565b611c97565b905082815260208101848484011115611d2157611d20611c32565b5b611d2c848285611ce3565b509392505050565b600082601f830112611d4957611d48611c2d565b5b8135611d59848260208601611cf2565b91505092915050565b60008060008060808587031215611d7c57611d7b611875565b5b6000611d8a87828801611ac2565b9450506020611d9b87828801611ac2565b9350506040611dac87828801611a0d565b925050606085013567ffffffffffffffff811115611dcd57611dcc61187a565b5b611dd987828801611d34565b91505092959194509250565b60008060408385031215611dfc57611dfb611875565b5b6000611e0a85828601611ac2565b9250506020611e1b85828601611ac2565b9150509250929050565b7f4e487b7100000000000000000000000000000000000000000000000000000000600052602260045260246000fd5b60006002820490506001821680611e6c57607f821691505b602082108103611e7f57611e7e611e25565b5b50919050565b6000606082019050611e9a6000830186611a81565b611ea76020830185611b97565b611eb46040830184611a81565b949350505050565b600081905092915050565b6000611ed28261193a565b611edc8185611ebc565b9350611eec818560208601611956565b80840191505092915050565b6000611f048285611ec7565b9150611f108284611ec7565b91508190509392505050565b600081519050919050565b600082825260208201905092915050565b6000611f4382611f1c565b611f4d8185611f27565b9350611f5d818560208601611956565b611f6681611980565b840191505092915050565b6000608082019050611f866000830187611a81565b611f936020830186611a81565b611fa06040830185611b97565b8181036060830152611fb28184611f38565b905095945050505050565b600081519050611fcc816118ab565b92915050565b600060208284031215611fe857611fe7611875565b5b6000611ff684828501611fbd565b91505092915050565b7f4e487b7100000000000000000000000000000000000000000000000000000000600052601260045260246000fd5b60006040820190506120436000830185611a81565b6120506020830184611b97565b939250505056fea2646970667358221220cc7ac6eec566de2505ec536fcc2f5d963fcbf0e7af312683aab8a989722d728e64736f6c63430008140033",
  "immutableReferences": {},
  "source": "// SPDX-License-Identifier: MIT\r\npragma solidity ^0.8.0;\r\n\r\nimport \"./Auth.sol\";\r\nimport \"@openzeppelin/contracts/token/ERC721/ERC721.sol\";\r\nimport \"@openzeppelin/contracts/access/Ownable.sol\";\r\n\r\ncontract DonationNFT is ERC721, Ownable {\r\n    constructor() ERC721(\"DonationNFT\", \"DNFT\") Ownable(msg.sender) {}\r\n\r\n    function mintDonationNFT(address to, uint256 tokenId) external onlyOwner {\r\n        _mint(to, tokenId);\r\n    }\r\n}\r\n\r\ncontract Crowdfunding {\r\n    enum Status {\r\n        Waiting,\r\n        Invalid,\r\n        Valid,\r\n        Done\r\n    }\r\n\r\n    struct Campaign {\r\n        uint256 id;\r\n        address creator;\r\n        string field;\r\n        string title;\r\n        string description;\r\n        uint256 endDate;\r\n        uint256 period;\r\n        uint256 amount;\r\n        uint256 raisedAmount;\r\n        address[] donors;\r\n        string imageUrl;\r\n        string dataUrl;\r\n        Status status;\r\n    }\r\n\r\n    struct Donation {\r\n        uint256 id;\r\n        address donor;\r\n        uint256 amount;\r\n        uint256 campaign;\r\n    }\r\n\r\n    uint256 public campaignIdCounter = 0;\r\n    uint256 public donationIdCounter = 0;\r\n\r\n    Campaign[] public campaigns;\r\n    Donation[] public donations;\r\n\r\n    DonationNFT public nftContract;\r\n    Auth public authContract;\r\n\r\n    constructor(address _authContractAddress) {\r\n        authContract = Auth(_authContractAddress);\r\n        nftContract = new DonationNFT();\r\n    }\r\n\r\n    modifier onlyRole(Auth.Role role) {\r\n        require(\r\n            authContract.getActorRole(msg.sender) == role,\r\n            \"Owner permission required\"\r\n        );\r\n        _;\r\n    }\r\n\r\n    function createCampaign(\r\n        string memory _field,\r\n        string memory _title,\r\n        string memory _description,\r\n        uint256 _period,\r\n        uint256 _amount,\r\n        string memory _imageUrl,\r\n        string memory _dataUrl\r\n    ) public {\r\n        campaigns.push(\r\n            Campaign(\r\n                campaignIdCounter,\r\n                msg.sender,\r\n                _field,\r\n                _title,\r\n                _description,\r\n                0,\r\n                _period,\r\n                _amount,\r\n                0,\r\n                new address[](0),\r\n                _imageUrl,\r\n                _dataUrl,\r\n                Status.Waiting\r\n            )\r\n        );\r\n        campaignIdCounter++;\r\n    }\r\n\r\n    function evaluateCampaign(uint256 _id, Status _status) public {\r\n        require(_id <= campaignIdCounter, \"Invalid campaign ID\");\r\n        Campaign storage campaign = campaigns[_id];\r\n        require(\r\n            campaign.status == Status.Waiting,\r\n            \"Campaign status is not Waiting\"\r\n        );\r\n        campaign.endDate = block.timestamp + campaign.period;\r\n        campaign.status = _status;\r\n    }\r\n\r\n    function donateToCampaign(uint256 _campaignId) public payable {\r\n        require(_campaignId <= campaignIdCounter,\r\n            \"Invalid campaign ID\"\r\n        );\r\n        Campaign storage campaign = campaigns[_campaignId];\r\n        require(\r\n            campaign.status == Status.Valid,\r\n            \"Campaign status is not Valid\"\r\n        );\r\n\r\n        // Mint a new Donation NFT for the donor\r\n        nftContract.mintDonationNFT(msg.sender, donationIdCounter);\r\n\r\n        // Create a new Donation and associate it with the NFT\r\n        donations.push(\r\n            Donation(donationIdCounter, msg.sender, msg.value, _campaignId)\r\n        );\r\n        donationIdCounter++;\r\n\r\n        // Update the campaign's raisedAmount and donors\r\n        campaign.raisedAmount += msg.value;\r\n        campaign.donors.push(msg.sender);\r\n\r\n        // Transfer the donated ether to the campaign's creator\r\n        payable(campaign.creator).transfer(msg.value);\r\n    }\r\n\r\n    function getAllCampaigns() public view returns (Campaign[] memory) {\r\n        return campaigns;\r\n    }\r\n\r\n    function getAllDonations() public view returns (Donation[] memory) {\r\n        return donations;\r\n    }\r\n}\r\n",
  "sourcePath": "D:\\crowdfunding\\contracts\\Crowdfunding.sol",
  "compiler": {
    "name": "solc",
    "version": "0.8.20+commit.a1b79de6.Emscripten.clang"
  },
  "schemaVersion": "3.4.12",
  "updatedAt": "2023-11-12T07:17:05.747Z",
  "networkType": "ethereum",
  "devdoc": {
    "kind": "dev",
    "methods": {},
    "version": 1
  },
  "userdoc": {
    "kind": "user",
    "methods": {},
    "version": 1
  }
}