{
  "contractName": "Crowdfunding",
  "abi": [
    {
      "inputs": [
        {
          "internalType": "address",
          "name": "_authContractAddress",
          "type": "address"
        }
      ],
      "stateMutability": "nonpayable",
      "type": "constructor"
    },
    {
      "anonymous": false,
      "inputs": [
        {
          "indexed": false,
          "internalType": "uint256",
          "name": "campaignId",
          "type": "uint256"
        },
        {
          "indexed": false,
          "internalType": "address",
          "name": "donor",
          "type": "address"
        },
        {
          "indexed": false,
          "internalType": "uint256",
          "name": "amount",
          "type": "uint256"
        }
      ],
      "name": "DonationMade",
      "type": "event"
    },
    {
      "inputs": [],
      "name": "authContract",
      "outputs": [
        {
          "internalType": "contract Auth",
          "name": "",
          "type": "address"
        }
      ],
      "stateMutability": "view",
      "type": "function",
      "constant": true
    },
    {
      "inputs": [],
      "name": "campaignIdCounter",
      "outputs": [
        {
          "internalType": "uint256",
          "name": "",
          "type": "uint256"
        }
      ],
      "stateMutability": "view",
      "type": "function",
      "constant": true
    },
    {
      "inputs": [
        {
          "internalType": "uint256",
          "name": "",
          "type": "uint256"
        }
      ],
      "name": "campaigns",
      "outputs": [
        {
          "internalType": "uint256",
          "name": "id",
          "type": "uint256"
        },
        {
          "internalType": "address",
          "name": "creator",
          "type": "address"
        },
        {
          "internalType": "string",
          "name": "name",
          "type": "string"
        },
        {
          "internalType": "string",
          "name": "title",
          "type": "string"
        },
        {
          "internalType": "string",
          "name": "description",
          "type": "string"
        },
        {
          "internalType": "uint256",
          "name": "endDate",
          "type": "uint256"
        },
        {
          "internalType": "uint256",
          "name": "period",
          "type": "uint256"
        },
        {
          "internalType": "uint256",
          "name": "amount",
          "type": "uint256"
        },
        {
          "internalType": "uint256",
          "name": "raisedAmount",
          "type": "uint256"
        },
        {
          "internalType": "string",
          "name": "imageUrl",
          "type": "string"
        },
        {
          "internalType": "string",
          "name": "dataUrl",
          "type": "string"
        },
        {
          "internalType": "enum Crowdfunding.Status",
          "name": "status",
          "type": "uint8"
        }
      ],
      "stateMutability": "view",
      "type": "function",
      "constant": true
    },
    {
      "inputs": [],
      "name": "donationIdCounter",
      "outputs": [
        {
          "internalType": "uint256",
          "name": "",
          "type": "uint256"
        }
      ],
      "stateMutability": "view",
      "type": "function",
      "constant": true
    },
    {
      "inputs": [
        {
          "internalType": "uint256",
          "name": "",
          "type": "uint256"
        }
      ],
      "name": "donations",
      "outputs": [
        {
          "internalType": "uint256",
          "name": "id",
          "type": "uint256"
        },
        {
          "internalType": "address",
          "name": "donor",
          "type": "address"
        },
        {
          "internalType": "uint256",
          "name": "amount",
          "type": "uint256"
        },
        {
          "internalType": "uint256",
          "name": "campaign",
          "type": "uint256"
        }
      ],
      "stateMutability": "view",
      "type": "function",
      "constant": true
    },
    {
      "inputs": [],
      "name": "nftContract",
      "outputs": [
        {
          "internalType": "contract DonationNFT",
          "name": "",
          "type": "address"
        }
      ],
      "stateMutability": "view",
      "type": "function",
      "constant": true
    },
    {
      "inputs": [
        {
          "internalType": "string",
          "name": "_name",
          "type": "string"
        },
        {
          "internalType": "string",
          "name": "_title",
          "type": "string"
        },
        {
          "internalType": "string",
          "name": "_description",
          "type": "string"
        },
        {
          "internalType": "uint256",
          "name": "_period",
          "type": "uint256"
        },
        {
          "internalType": "uint256",
          "name": "_amount",
          "type": "uint256"
        },
        {
          "internalType": "string",
          "name": "_imageUrl",
          "type": "string"
        },
        {
          "internalType": "string",
          "name": "_dataUrl",
          "type": "string"
        }
      ],
      "name": "createCampaign",
      "outputs": [],
      "stateMutability": "nonpayable",
      "type": "function"
    },
    {
      "inputs": [
        {
          "internalType": "uint256",
          "name": "_id",
          "type": "uint256"
        },
        {
          "internalType": "enum Crowdfunding.Status",
          "name": "_status",
          "type": "uint8"
        }
      ],
      "name": "evaluateCampaign",
      "outputs": [],
      "stateMutability": "nonpayable",
      "type": "function"
    },
    {
      "inputs": [
        {
          "internalType": "uint256",
          "name": "_id",
          "type": "uint256"
        }
      ],
      "name": "donate",
      "outputs": [],
      "stateMutability": "payable",
      "type": "function",
      "payable": true
    },
    {
      "inputs": [],
      "name": "getAllCampaigns",
      "outputs": [
        {
          "components": [
            {
              "internalType": "uint256",
              "name": "id",
              "type": "uint256"
            },
            {
              "internalType": "address",
              "name": "creator",
              "type": "address"
            },
            {
              "internalType": "string",
              "name": "name",
              "type": "string"
            },
            {
              "internalType": "string",
              "name": "title",
              "type": "string"
            },
            {
              "internalType": "string",
              "name": "description",
              "type": "string"
            },
            {
              "internalType": "uint256",
              "name": "endDate",
              "type": "uint256"
            },
            {
              "internalType": "uint256",
              "name": "period",
              "type": "uint256"
            },
            {
              "internalType": "uint256",
              "name": "amount",
              "type": "uint256"
            },
            {
              "internalType": "uint256",
              "name": "raisedAmount",
              "type": "uint256"
            },
            {
              "internalType": "address[]",
              "name": "donors",
              "type": "address[]"
            },
            {
              "internalType": "string",
              "name": "imageUrl",
              "type": "string"
            },
            {
              "internalType": "string",
              "name": "dataUrl",
              "type": "string"
            },
            {
              "internalType": "enum Crowdfunding.Status",
              "name": "status",
              "type": "uint8"
            }
          ],
          "internalType": "struct Crowdfunding.Campaign[]",
          "name": "",
          "type": "tuple[]"
        }
      ],
      "stateMutability": "view",
      "type": "function",
      "constant": true
    },
    {
      "inputs": [],
      "name": "getAllDonations",
      "outputs": [
        {
          "components": [
            {
              "internalType": "uint256",
              "name": "id",
              "type": "uint256"
            },
            {
              "internalType": "address",
              "name": "donor",
              "type": "address"
            },
            {
              "internalType": "uint256",
              "name": "amount",
              "type": "uint256"
            },
            {
              "internalType": "uint256",
              "name": "campaign",
              "type": "uint256"
            }
          ],
          "internalType": "struct Crowdfunding.Donation[]",
          "name": "",
          "type": "tuple[]"
        }
      ],
      "stateMutability": "view",
      "type": "function",
      "constant": true
    },
    {
      "inputs": [],
      "name": "expired",
      "outputs": [],
      "stateMutability": "nonpayable",
      "type": "function"
    }
  ],
  "bytecode": "0x60806040526000805560006001553480156200001a57600080fd5b506040516200503e3803806200503e83398181016040528101906200004091906200016c565b80600560006101000a81548173ffffffffffffffffffffffffffffffffffffffff021916908373ffffffffffffffffffffffffffffffffffffffff1602179055506040516200008f90620000f4565b604051809103906000f080158015620000ac573d6000803e3d6000fd5b50600460006101000a81548173ffffffffffffffffffffffffffffffffffffffff021916908373ffffffffffffffffffffffffffffffffffffffff160217905550506200019e565b61266780620029d783390190565b600080fd5b600073ffffffffffffffffffffffffffffffffffffffff82169050919050565b6000620001348262000107565b9050919050565b620001468162000127565b81146200015257600080fd5b50565b60008151905062000166816200013b565b92915050565b60006020828403121562000185576200018462000102565b5b6000620001958482850162000155565b91505092915050565b61282980620001ae6000396000f3fe6080604052600436106100c4576000357c01000000000000000000000000000000000000000000000000000000009004806386cdf6041161008157806386cdf604146101d2578063b62367c9146101fd578063d56d229d14610228578063f0da096014610253578063f14faf6f1461027c578063f8626af814610298576100c4565b8063141961bc146100c9578063161432c7146101115780632e6186761461013a57806336cf0c191461016557806338a59a07146101905780634c2067c7146101bb575b600080fd5b3480156100d557600080fd5b506100f060048036038101906100eb9190611718565b6102d8565b6040516101089c9b9a9998979695949392919061189c565b60405180910390f35b34801561011d57600080fd5b506101386004803603810190610133919061199e565b61061d565b005b34801561014657600080fd5b5061014f610751565b60405161015c91906119de565b60405180910390f35b34801561017157600080fd5b5061017a610757565b60405161018791906119de565b60405180910390f35b34801561019c57600080fd5b506101a561075d565b6040516101b29190611b1b565b60405180910390f35b3480156101c757600080fd5b506101d0610830565b005b3480156101de57600080fd5b506101e7610928565b6040516101f49190611e43565b60405180910390f35b34801561020957600080fd5b50610212610db3565b60405161021f9190611ec4565b60405180910390f35b34801561023457600080fd5b5061023d610dd9565b60405161024a9190611f00565b60405180910390f35b34801561025f57600080fd5b5061027a60048036038101906102759190612050565b610dff565b005b61029660048036038101906102919190611718565b61106b565b005b3480156102a457600080fd5b506102bf60048036038101906102ba9190611718565b6114cf565b6040516102cf949392919061217e565b60405180910390f35b600281815481106102e857600080fd5b90600052602060002090600d02016000915090508060000154908060010160009054906101000a900473ffffffffffffffffffffffffffffffffffffffff1690806002018054610337906121f2565b80601f0160208091040260200160405190810160405280929190818152602001828054610363906121f2565b80156103b05780601f10610385576101008083540402835291602001916103b0565b820191906000526020600020905b81548152906001019060200180831161039357829003601f168201915b5050505050908060030180546103c5906121f2565b80601f01602080910402602001604051908101604052809291908181526020018280546103f1906121f2565b801561043e5780601f106104135761010080835404028352916020019161043e565b820191906000526020600020905b81548152906001019060200180831161042157829003601f168201915b505050505090806004018054610453906121f2565b80601f016020809104026020016040519081016040528092919081815260200182805461047f906121f2565b80156104cc5780601f106104a1576101008083540402835291602001916104cc565b820191906000526020600020905b8154815290600101906020018083116104af57829003601f168201915b50505050509080600501549080600601549080600701549080600801549080600a0180546104f9906121f2565b80601f0160208091040260200160405190810160405280929190818152602001828054610525906121f2565b80156105725780601f1061054757610100808354040283529160200191610572565b820191906000526020600020905b81548152906001019060200180831161055557829003601f168201915b50505050509080600b018054610587906121f2565b80601f01602080910402602001604051908101604052809291908181526020018280546105b3906121f2565b80156106005780601f106105d557610100808354040283529160200191610600565b820191906000526020600020905b8154815290600101906020018083116105e357829003601f168201915b50505050509080600c0160009054906101000a900460ff1690508c565b61062561152f565b60005482111561066a576040517f08c379a00000000000000000000000000000000000000000000000000000000081526004016106619061226f565b60405180910390fd5b6000600283815481106106805761067f61228f565b5b90600052602060002090600d02019050600060038111156106a4576106a3611825565b5b81600c0160009054906101000a900460ff1660038111156106c8576106c7611825565b5b14610708576040517f08c379a00000000000000000000000000000000000000000000000000000000081526004016106ff9061230a565b60405180910390fd5b8060060154426107189190612359565b81600501819055508181600c0160006101000a81548160ff0219169083600381111561074757610746611825565b5b0217905550505050565b60005481565b60015481565b60606003805480602002602001604051908101604052809291908181526020016000905b828210156108275783829060005260206000209060040201604051806080016040529081600082015481526020016001820160009054906101000a900473ffffffffffffffffffffffffffffffffffffffff1673ffffffffffffffffffffffffffffffffffffffff1673ffffffffffffffffffffffffffffffffffffffff1681526020016002820154815260200160038201548152505081526020019060010190610781565b50505050905090565b60005b6002805490508110156109255742600282815481106108555761085461228f565b5b90600052602060002090600d0201600501541015806108be5750600281815481106108835761088261228f565b5b90600052602060002090600d020160070154600282815481106108a9576108a861228f565b5b90600052602060002090600d02016008015410155b15610912576003600282815481106108d9576108d861228f565b5b90600052602060002090600d0201600c0160006101000a81548160ff0219169083600381111561090c5761090b611825565b5b02179055505b808061091d9061238d565b915050610833565b50565b60606002805480602002602001604051908101604052809291908181526020016000905b82821015610daa57838290600052602060002090600d0201604051806101a0016040529081600082015481526020016001820160009054906101000a900473ffffffffffffffffffffffffffffffffffffffff1673ffffffffffffffffffffffffffffffffffffffff1673ffffffffffffffffffffffffffffffffffffffff1681526020016002820180546109e0906121f2565b80601f0160208091040260200160405190810160405280929190818152602001828054610a0c906121f2565b8015610a595780601f10610a2e57610100808354040283529160200191610a59565b820191906000526020600020905b815481529060010190602001808311610a3c57829003601f168201915b50505050508152602001600382018054610a72906121f2565b80601f0160208091040260200160405190810160405280929190818152602001828054610a9e906121f2565b8015610aeb5780601f10610ac057610100808354040283529160200191610aeb565b820191906000526020600020905b815481529060010190602001808311610ace57829003601f168201915b50505050508152602001600482018054610b04906121f2565b80601f0160208091040260200160405190810160405280929190818152602001828054610b30906121f2565b8015610b7d5780601f10610b5257610100808354040283529160200191610b7d565b820191906000526020600020905b815481529060010190602001808311610b6057829003601f168201915b505050505081526020016005820154815260200160068201548152602001600782015481526020016008820154815260200160098201805480602002602001604051908101604052809291908181526020018280548015610c3357602002820191906000526020600020905b8160009054906101000a900473ffffffffffffffffffffffffffffffffffffffff1673ffffffffffffffffffffffffffffffffffffffff1681526020019060010190808311610be9575b50505050508152602001600a82018054610c4c906121f2565b80601f0160208091040260200160405190810160405280929190818152602001828054610c78906121f2565b8015610cc55780601f10610c9a57610100808354040283529160200191610cc5565b820191906000526020600020905b815481529060010190602001808311610ca857829003601f168201915b50505050508152602001600b82018054610cde906121f2565b80601f0160208091040260200160405190810160405280929190818152602001828054610d0a906121f2565b8015610d575780601f10610d2c57610100808354040283529160200191610d57565b820191906000526020600020905b815481529060010190602001808311610d3a57829003601f168201915b50505050508152602001600c820160009054906101000a900460ff166003811115610d8557610d84611825565b5b6003811115610d9757610d96611825565b5b815250508152602001906001019061094c565b50505050905090565b600560009054906101000a900473ffffffffffffffffffffffffffffffffffffffff1681565b600460009054906101000a900473ffffffffffffffffffffffffffffffffffffffff1681565b610e0761152f565b60008067ffffffffffffffff811115610e2357610e22611f25565b5b604051908082528060200260200182016040528015610e515781602001602082028036833780820191505090505b5090506000805490506000604051806101a001604052808381526020013373ffffffffffffffffffffffffffffffffffffffff1681526020018b81526020018a8152602001898152602001600081526020018881526020018781526020016000815260200184815260200186815260200185815260200160006003811115610edc57610edb611825565b5b815250905060028190806001815401808255809150506001900390600052602060002090600d02016000909190919091506000820151816000015560208201518160010160006101000a81548173ffffffffffffffffffffffffffffffffffffffff021916908373ffffffffffffffffffffffffffffffffffffffff1602179055506040820151816002019081610f73919061257d565b506060820151816003019081610f89919061257d565b506080820151816004019081610f9f919061257d565b5060a0820151816005015560c0820151816006015560e082015181600701556101008201518160080155610120820151816009019080519060200190610fe6929190611627565b5061014082015181600a019081610ffd919061257d565b5061016082015181600b019081611014919061257d565b5061018082015181600c0160006101000a81548160ff0219169083600381111561104157611040611825565b5b0217905550505060008081548092919061105a9061238d565b919050555050505050505050505050565b6000600282815481106110815761108061228f565b5b90600052602060002090600d020190506000548211156110d6576040517f08c379a00000000000000000000000000000000000000000000000000000000081526004016110cd9061226f565b60405180910390fd5b600260038111156110ea576110e9611825565b5b81600c0160009054906101000a900460ff16600381111561110e5761110d611825565b5b1461114e576040517f08c379a00000000000000000000000000000000000000000000000000000000081526004016111459061269b565b60405180910390fd5b60038081111561116157611160611825565b5b81600c0160009054906101000a900460ff16600381111561118557611184611825565b5b036111c5576040517f08c379a00000000000000000000000000000000000000000000000000000000081526004016111bc90612707565b60405180910390fd5b806007015481600801541061120f576040517f08c379a000000000000000000000000000000000000000000000000000000000815260040161120690612773565b60405180910390fd5b348160080160008282546112239190612359565b9250508190555080600901339080600181540180825580915050600190039060005260206000200160009091909190916101000a81548173ffffffffffffffffffffffffffffffffffffffff021916908373ffffffffffffffffffffffffffffffffffffffff160217905550600460009054906101000a900473ffffffffffffffffffffffffffffffffffffffff1673ffffffffffffffffffffffffffffffffffffffff1663f24c9f06336001546040518363ffffffff167c010000000000000000000000000000000000000000000000000000000002815260040161130a929190612793565b600060405180830381600087803b15801561132457600080fd5b505af1158015611338573d6000803e3d6000fd5b505050506000604051806080016040528060015481526020013373ffffffffffffffffffffffffffffffffffffffff16815260200134815260200184815250905060038190806001815401808255809150506001900390600052602060002090600402016000909190919091506000820151816000015560208201518160010160006101000a81548173ffffffffffffffffffffffffffffffffffffffff021916908373ffffffffffffffffffffffffffffffffffffffff160217905550604082015181600201556060820151816003015550506001600081548092919061141f9061238d565b91905055507fe555da28bdb778f65d22794d88927ebaeca03f7de9d1b7d39245bc8fb5ca078a833334604051611457939291906127bc565b60405180910390a18160010160009054906101000a900473ffffffffffffffffffffffffffffffffffffffff1673ffffffffffffffffffffffffffffffffffffffff166108fc349081150290604051600060405180830381858888f193505050501580156114c9573d6000803e3d6000fd5b50505050565b600381815481106114df57600080fd5b90600052602060002090600402016000915090508060000154908060010160009054906101000a900473ffffffffffffffffffffffffffffffffffffffff16908060020154908060030154905084565b60005b6002805490508110156116245742600282815481106115545761155361228f565b5b90600052602060002090600d0201600501541015806115bd5750600281815481106115825761158161228f565b5b90600052602060002090600d020160070154600282815481106115a8576115a761228f565b5b90600052602060002090600d02016008015410155b15611611576003600282815481106115d8576115d761228f565b5b90600052602060002090600d0201600c0160006101000a81548160ff0219169083600381111561160b5761160a611825565b5b02179055505b808061161c9061238d565b915050611532565b50565b8280548282559060005260206000209081019282156116a0579160200282015b8281111561169f5782518260006101000a81548173ffffffffffffffffffffffffffffffffffffffff021916908373ffffffffffffffffffffffffffffffffffffffff16021790555091602001919060010190611647565b5b5090506116ad91906116b1565b5090565b5b808211156116ca5760008160009055506001016116b2565b5090565b6000604051905090565b600080fd5b600080fd5b6000819050919050565b6116f5816116e2565b811461170057600080fd5b50565b600081359050611712816116ec565b92915050565b60006020828403121561172e5761172d6116d8565b5b600061173c84828501611703565b91505092915050565b61174e816116e2565b82525050565b600073ffffffffffffffffffffffffffffffffffffffff82169050919050565b600061177f82611754565b9050919050565b61178f81611774565b82525050565b600081519050919050565b600082825260208201905092915050565b60005b838110156117cf5780820151818401526020810190506117b4565b60008484015250505050565b6000601f19601f8301169050919050565b60006117f782611795565b61180181856117a0565b93506118118185602086016117b1565b61181a816117db565b840191505092915050565b7f4e487b7100000000000000000000000000000000000000000000000000000000600052602160045260246000fd5b6004811061186557611864611825565b5b50565b600081905061187682611854565b919050565b600061188682611868565b9050919050565b6118968161187b565b82525050565b6000610180820190506118b2600083018f611745565b6118bf602083018e611786565b81810360408301526118d1818d6117ec565b905081810360608301526118e5818c6117ec565b905081810360808301526118f9818b6117ec565b905061190860a083018a611745565b61191560c0830189611745565b61192260e0830188611745565b611930610100830187611745565b81810361012083015261194381866117ec565b905081810361014083015261195881856117ec565b905061196861016083018461188d565b9d9c50505050505050505050505050565b6004811061198657600080fd5b50565b60008135905061199881611979565b92915050565b600080604083850312156119b5576119b46116d8565b5b60006119c385828601611703565b92505060206119d485828601611989565b9150509250929050565b60006020820190506119f36000830184611745565b92915050565b600081519050919050565b600082825260208201905092915050565b6000819050602082019050919050565b611a2e816116e2565b82525050565b611a3d81611774565b82525050565b608082016000820151611a596000850182611a25565b506020820151611a6c6020850182611a34565b506040820151611a7f6040850182611a25565b506060820151611a926060850182611a25565b50505050565b6000611aa48383611a43565b60808301905092915050565b6000602082019050919050565b6000611ac8826119f9565b611ad28185611a04565b9350611add83611a15565b8060005b83811015611b0e578151611af58882611a98565b9750611b0083611ab0565b925050600181019050611ae1565b5085935050505092915050565b60006020820190508181036000830152611b358184611abd565b905092915050565b600081519050919050565b600082825260208201905092915050565b6000819050602082019050919050565b600082825260208201905092915050565b6000611b8582611795565b611b8f8185611b69565b9350611b9f8185602086016117b1565b611ba8816117db565b840191505092915050565b600081519050919050565b600082825260208201905092915050565b6000819050602082019050919050565b6000611beb8383611a34565b60208301905092915050565b6000602082019050919050565b6000611c0f82611bb3565b611c198185611bbe565b9350611c2483611bcf565b8060005b83811015611c55578151611c3c8882611bdf565b9750611c4783611bf7565b925050600181019050611c28565b5085935050505092915050565b611c6b8161187b565b82525050565b60006101a083016000830151611c8a6000860182611a25565b506020830151611c9d6020860182611a34565b5060408301518482036040860152611cb58282611b7a565b91505060608301518482036060860152611ccf8282611b7a565b91505060808301518482036080860152611ce98282611b7a565b91505060a0830151611cfe60a0860182611a25565b5060c0830151611d1160c0860182611a25565b5060e0830151611d2460e0860182611a25565b50610100830151611d39610100860182611a25565b50610120830151848203610120860152611d538282611c04565b915050610140830151848203610140860152611d6f8282611b7a565b915050610160830151848203610160860152611d8b8282611b7a565b915050610180830151611da2610180860182611c62565b508091505092915050565b6000611db98383611c71565b905092915050565b6000602082019050919050565b6000611dd982611b3d565b611de38185611b48565b935083602082028501611df585611b59565b8060005b85811015611e315784840389528151611e128582611dad565b9450611e1d83611dc1565b925060208a01995050600181019050611df9565b50829750879550505050505092915050565b60006020820190508181036000830152611e5d8184611dce565b905092915050565b6000819050919050565b6000611e8a611e85611e8084611754565b611e65565b611754565b9050919050565b6000611e9c82611e6f565b9050919050565b6000611eae82611e91565b9050919050565b611ebe81611ea3565b82525050565b6000602082019050611ed96000830184611eb5565b92915050565b6000611eea82611e91565b9050919050565b611efa81611edf565b82525050565b6000602082019050611f156000830184611ef1565b92915050565b600080fd5b600080fd5b7f4e487b7100000000000000000000000000000000000000000000000000000000600052604160045260246000fd5b611f5d826117db565b810181811067ffffffffffffffff82111715611f7c57611f7b611f25565b5b80604052505050565b6000611f8f6116ce565b9050611f9b8282611f54565b919050565b600067ffffffffffffffff821115611fbb57611fba611f25565b5b611fc4826117db565b9050602081019050919050565b82818337600083830152505050565b6000611ff3611fee84611fa0565b611f85565b90508281526020810184848401111561200f5761200e611f20565b5b61201a848285611fd1565b509392505050565b600082601f83011261203757612036611f1b565b5b8135612047848260208601611fe0565b91505092915050565b600080600080600080600060e0888a03121561206f5761206e6116d8565b5b600088013567ffffffffffffffff81111561208d5761208c6116dd565b5b6120998a828b01612022565b975050602088013567ffffffffffffffff8111156120ba576120b96116dd565b5b6120c68a828b01612022565b965050604088013567ffffffffffffffff8111156120e7576120e66116dd565b5b6120f38a828b01612022565b95505060606121048a828b01611703565b94505060806121158a828b01611703565b93505060a088013567ffffffffffffffff811115612136576121356116dd565b5b6121428a828b01612022565b92505060c088013567ffffffffffffffff811115612163576121626116dd565b5b61216f8a828b01612022565b91505092959891949750929550565b60006080820190506121936000830187611745565b6121a06020830186611786565b6121ad6040830185611745565b6121ba6060830184611745565b95945050505050565b7f4e487b7100000000000000000000000000000000000000000000000000000000600052602260045260246000fd5b6000600282049050600182168061220a57607f821691505b60208210810361221d5761221c6121c3565b5b50919050565b7f496e76616c69642063616d706169676e20494400000000000000000000000000600082015250565b60006122596013836117a0565b915061226482612223565b602082019050919050565b600060208201905081810360008301526122888161224c565b9050919050565b7f4e487b7100000000000000000000000000000000000000000000000000000000600052603260045260246000fd5b7f43616d706169676e20737461747573206973206e6f742057616974696e670000600082015250565b60006122f4601e836117a0565b91506122ff826122be565b602082019050919050565b60006020820190508181036000830152612323816122e7565b9050919050565b7f4e487b7100000000000000000000000000000000000000000000000000000000600052601160045260246000fd5b6000612364826116e2565b915061236f836116e2565b92508282019050808211156123875761238661232a565b5b92915050565b6000612398826116e2565b91507fffffffffffffffffffffffffffffffffffffffffffffffffffffffffffffffff82036123ca576123c961232a565b5b600182019050919050565b60008190508160005260206000209050919050565b60006020601f8301049050919050565b60008160020a8302905092915050565b60006008830261243a7fffffffffffffffffffffffffffffffffffffffffffffffffffffffffffffffff826123fa565b61244486836123fa565b95508019841693508086168417925050509392505050565b600061247761247261246d846116e2565b611e65565b6116e2565b9050919050565b6000819050919050565b6124918361245c565b6124a561249d8261247e565b84845461240a565b825550505050565b600090565b6124ba6124ad565b6124c5818484612488565b505050565b5b818110156124e9576124de6000826124b2565b6001810190506124cb565b5050565b601f82111561252e576124ff816123d5565b612508846123ea565b81016020851015612517578190505b61252b612523856123ea565b8301826124ca565b50505b505050565b60008160020a8304905092915050565b600061255460001984600802612533565b1980831691505092915050565b600061256d8383612543565b9150826002028217905092915050565b61258682611795565b67ffffffffffffffff81111561259f5761259e611f25565b5b6125a982546121f2565b6125b48282856124ed565b600060209050601f8311600181146125e757600084156125d5578287015190505b6125df8582612561565b865550612647565b601f1984166125f5866123d5565b60005b8281101561261d578489015182556001820191506020850194506020810190506125f8565b8683101561263a5784890151612636601f891682612543565b8355505b6001600288020188555050505b505050505050565b7f43616d706169676e20737461747573206973206e6f742056616c696400000000600082015250565b6000612685601c836117a0565b91506126908261264f565b602082019050919050565b600060208201905081810360008301526126b481612678565b9050919050565b7f43616d706169676e2073746174757320697320446f6e65000000000000000000600082015250565b60006126f16017836117a0565b91506126fc826126bb565b602082019050919050565b60006020820190508181036000830152612720816126e4565b9050919050565b7f43616d706169676e20697320616c72656164792066756c6c792066756e646564600082015250565b600061275d6020836117a0565b915061276882612727565b602082019050919050565b6000602082019050818103600083015261278c81612750565b9050919050565b60006040820190506127a86000830185611786565b6127b56020830184611745565b9392505050565b60006060820190506127d16000830186611745565b6127de6020830185611786565b6127eb6040830184611745565b94935050505056fea2646970667358221220912fb3cd15e198abca29f3160a7b8f54bc7486c9af4ae1cc24aa25417864835464736f6c6343000814003360806040523480156200001157600080fd5b50336040518060400160405280600b81526020017f446f6e6174696f6e4e46540000000000000000000000000000000000000000008152506040518060400160405280600481526020017f444e465400000000000000000000000000000000000000000000000000000000815250816000908162000090919062000481565b508060019081620000a2919062000481565b505050600073ffffffffffffffffffffffffffffffffffffffff168173ffffffffffffffffffffffffffffffffffffffff16036200011a5760006040517f1e4fbdf7000000000000000000000000000000000000000000000000000000008152600401620001119190620005ad565b60405180910390fd5b62000134816200013b640100000000026401000000009004565b50620005ca565b6000600660009054906101000a900473ffffffffffffffffffffffffffffffffffffffff16905081600660006101000a81548173ffffffffffffffffffffffffffffffffffffffff021916908373ffffffffffffffffffffffffffffffffffffffff1602179055508173ffffffffffffffffffffffffffffffffffffffff168173ffffffffffffffffffffffffffffffffffffffff167f8be0079c531659141344cd1fd0a4f28419497f9722a3daafe3b4186f6b6457e060405160405180910390a35050565b600081519050919050565b7f4e487b7100000000000000000000000000000000000000000000000000000000600052604160045260246000fd5b7f4e487b7100000000000000000000000000000000000000000000000000000000600052602260045260246000fd5b600060028204905060018216806200028357607f821691505b6020821081036200029957620002986200023b565b5b50919050565b60008190508160005260206000209050919050565b60006020601f8301049050919050565b60008160020a8302905092915050565b600060088302620003067fffffffffffffffffffffffffffffffffffffffffffffffffffffffffffffffff82620002c4565b620003128683620002c4565b95508019841693508086168417925050509392505050565b6000819050919050565b6000819050919050565b60006200035f6200035962000353846200032a565b62000334565b6200032a565b9050919050565b6000819050919050565b6200037b836200033e565b620003936200038a8262000366565b848454620002d4565b825550505050565b600090565b620003aa6200039b565b620003b781848462000370565b505050565b5b81811015620003df57620003d3600082620003a0565b600181019050620003bd565b5050565b601f8211156200042e57620003f8816200029f565b6200040384620002b4565b8101602085101562000413578190505b6200042b6200042285620002b4565b830182620003bc565b50505b505050565b60008160020a8304905092915050565b6000620004566000198460080262000433565b1980831691505092915050565b600062000471838362000443565b9150826002028217905092915050565b6200048c8262000201565b67ffffffffffffffff811115620004a857620004a76200020c565b5b620004b482546200026a565b620004c1828285620003e3565b600060209050601f831160018114620004f95760008415620004e4578287015190505b620004f0858262000463565b86555062000560565b601f19841662000509866200029f565b60005b8281101562000533578489015182556001820191506020850194506020810190506200050c565b868310156200055357848901516200054f601f89168262000443565b8355505b6001600288020188555050505b505050505050565b600073ffffffffffffffffffffffffffffffffffffffff82169050919050565b6000620005958262000568565b9050919050565b620005a78162000588565b82525050565b6000602082019050620005c460008301846200059c565b92915050565b61208d80620005da6000396000f3fe608060405234801561001057600080fd5b5060043610610128576000357c010000000000000000000000000000000000000000000000000000000090048063715018a6116100bf578063b88d4fde1161008e578063b88d4fde146102c1578063c87b56dd146102dd578063e985e9c51461030d578063f24c9f061461033d578063f2fde38b1461035957610128565b8063715018a61461025f5780638da5cb5b1461026957806395d89b4114610287578063a22cb465146102a557610128565b806323b872dd116100fb57806323b872dd146101c757806342842e0e146101e35780636352211e146101ff57806370a082311461022f57610128565b806301ffc9a71461012d57806306fdde031461015d578063081812fc1461017b578063095ea7b3146101ab575b600080fd5b610147600480360381019061014291906118d7565b610375565b604051610154919061191f565b60405180910390f35b610165610457565b60405161017291906119ca565b60405180910390f35b61019560048036038101906101909190611a22565b6104e9565b6040516101a29190611a90565b60405180910390f35b6101c560048036038101906101c09190611ad7565b610505565b005b6101e160048036038101906101dc9190611b17565b61051b565b005b6101fd60048036038101906101f89190611b17565b61061d565b005b61021960048036038101906102149190611a22565b61063d565b6040516102269190611a90565b60405180910390f35b61024960048036038101906102449190611b6a565b61064f565b6040516102569190611ba6565b60405180910390f35b610267610709565b005b61027161071d565b60405161027e9190611a90565b60405180910390f35b61028f610747565b60405161029c91906119ca565b60405180910390f35b6102bf60048036038101906102ba9190611bed565b6107d9565b005b6102db60048036038101906102d69190611d62565b6107ef565b005b6102f760048036038101906102f29190611a22565b61080c565b60405161030491906119ca565b60405180910390f35b61032760048036038101906103229190611de5565b610875565b604051610334919061191f565b60405180910390f35b61035760048036038101906103529190611ad7565b610909565b005b610373600480360381019061036e9190611b6a565b61091f565b005b60007f80ac58cd000000000000000000000000000000000000000000000000000000007bffffffffffffffffffffffffffffffffffffffffffffffffffffffff1916827bffffffffffffffffffffffffffffffffffffffffffffffffffffffff1916148061044057507f5b5e139f000000000000000000000000000000000000000000000000000000007bffffffffffffffffffffffffffffffffffffffffffffffffffffffff1916827bffffffffffffffffffffffffffffffffffffffffffffffffffffffff1916145b80610450575061044f826109a5565b5b9050919050565b60606000805461046690611e54565b80601f016020809104026020016040519081016040528092919081815260200182805461049290611e54565b80156104df5780601f106104b4576101008083540402835291602001916104df565b820191906000526020600020905b8154815290600101906020018083116104c257829003601f168201915b5050505050905090565b60006104f482610a0f565b506104fe82610a97565b9050919050565b6105178282610512610ad4565b610adc565b5050565b600073ffffffffffffffffffffffffffffffffffffffff168273ffffffffffffffffffffffffffffffffffffffff160361058d5760006040517f64a0ae920000000000000000000000000000000000000000000000000000000081526004016105849190611a90565b60405180910390fd5b60006105a1838361059c610ad4565b610aee565b90508373ffffffffffffffffffffffffffffffffffffffff168173ffffffffffffffffffffffffffffffffffffffff1614610617578382826040517f64283d7b00000000000000000000000000000000000000000000000000000000815260040161060e93929190611e85565b60405180910390fd5b50505050565b610638838383604051806020016040528060008152506107ef565b505050565b600061064882610a0f565b9050919050565b60008073ffffffffffffffffffffffffffffffffffffffff168273ffffffffffffffffffffffffffffffffffffffff16036106c25760006040517f89c62b640000000000000000000000000000000000000000000000000000000081526004016106b99190611a90565b60405180910390fd5b600360008373ffffffffffffffffffffffffffffffffffffffff1673ffffffffffffffffffffffffffffffffffffffff168152602001908152602001600020549050919050565b610711610d08565b61071b6000610d8f565b565b6000600660009054906101000a900473ffffffffffffffffffffffffffffffffffffffff16905090565b60606001805461075690611e54565b80601f016020809104026020016040519081016040528092919081815260200182805461078290611e54565b80156107cf5780601f106107a4576101008083540402835291602001916107cf565b820191906000526020600020905b8154815290600101906020018083116107b257829003601f168201915b5050505050905090565b6107eb6107e4610ad4565b8383610e55565b5050565b6107fa84848461051b565b61080684848484610fc4565b50505050565b606061081782610a0f565b5060006108226111b3565b90506000815111610842576040518060200160405280600081525061086d565b8061084c846111ca565b60405160200161085d929190611ef8565b6040516020818303038152906040525b915050919050565b6000600560008473ffffffffffffffffffffffffffffffffffffffff1673ffffffffffffffffffffffffffffffffffffffff16815260200190815260200160002060008373ffffffffffffffffffffffffffffffffffffffff1673ffffffffffffffffffffffffffffffffffffffff16815260200190815260200160002060009054906101000a900460ff16905092915050565b610911610d08565b61091b8282611298565b5050565b610927610d08565b600073ffffffffffffffffffffffffffffffffffffffff168173ffffffffffffffffffffffffffffffffffffffff16036109995760006040517f1e4fbdf70000000000000000000000000000000000000000000000000000000081526004016109909190611a90565b60405180910390fd5b6109a281610d8f565b50565b60007f01ffc9a7000000000000000000000000000000000000000000000000000000007bffffffffffffffffffffffffffffffffffffffffffffffffffffffff1916827bffffffffffffffffffffffffffffffffffffffffffffffffffffffff1916149050919050565b600080610a1b83611391565b9050600073ffffffffffffffffffffffffffffffffffffffff168173ffffffffffffffffffffffffffffffffffffffff1603610a8e57826040517f7e273289000000000000000000000000000000000000000000000000000000008152600401610a859190611ba6565b60405180910390fd5b80915050919050565b60006004600083815260200190815260200160002060009054906101000a900473ffffffffffffffffffffffffffffffffffffffff169050919050565b600033905090565b610ae983838360016113ce565b505050565b600080610afa84611391565b9050600073ffffffffffffffffffffffffffffffffffffffff168373ffffffffffffffffffffffffffffffffffffffff1614610b3c57610b3b818486611593565b5b600073ffffffffffffffffffffffffffffffffffffffff168173ffffffffffffffffffffffffffffffffffffffff1614610bcd57610b7e6000856000806113ce565b6001600360008373ffffffffffffffffffffffffffffffffffffffff1673ffffffffffffffffffffffffffffffffffffffff168152602001908152602001600020600082825403925050819055505b600073ffffffffffffffffffffffffffffffffffffffff168573ffffffffffffffffffffffffffffffffffffffff1614610c50576001600360008773ffffffffffffffffffffffffffffffffffffffff1673ffffffffffffffffffffffffffffffffffffffff168152602001908152602001600020600082825401925050819055505b846002600086815260200190815260200160002060006101000a81548173ffffffffffffffffffffffffffffffffffffffff021916908373ffffffffffffffffffffffffffffffffffffffff160217905550838573ffffffffffffffffffffffffffffffffffffffff168273ffffffffffffffffffffffffffffffffffffffff167fddf252ad1be2c89b69c2b068fc378daa952ba7f163c4a11628f55a4df523b3ef60405160405180910390a4809150509392505050565b610d10610ad4565b73ffffffffffffffffffffffffffffffffffffffff16610d2e61071d565b73ffffffffffffffffffffffffffffffffffffffff1614610d8d57610d51610ad4565b6040517f118cdaa7000000000000000000000000000000000000000000000000000000008152600401610d849190611a90565b60405180910390fd5b565b6000600660009054906101000a900473ffffffffffffffffffffffffffffffffffffffff16905081600660006101000a81548173ffffffffffffffffffffffffffffffffffffffff021916908373ffffffffffffffffffffffffffffffffffffffff1602179055508173ffffffffffffffffffffffffffffffffffffffff168173ffffffffffffffffffffffffffffffffffffffff167f8be0079c531659141344cd1fd0a4f28419497f9722a3daafe3b4186f6b6457e060405160405180910390a35050565b600073ffffffffffffffffffffffffffffffffffffffff168273ffffffffffffffffffffffffffffffffffffffff1603610ec657816040517f5b08ba18000000000000000000000000000000000000000000000000000000008152600401610ebd9190611a90565b60405180910390fd5b80600560008573ffffffffffffffffffffffffffffffffffffffff1673ffffffffffffffffffffffffffffffffffffffff16815260200190815260200160002060008473ffffffffffffffffffffffffffffffffffffffff1673ffffffffffffffffffffffffffffffffffffffff16815260200190815260200160002060006101000a81548160ff0219169083151502179055508173ffffffffffffffffffffffffffffffffffffffff168373ffffffffffffffffffffffffffffffffffffffff167f17307eab39ab6107e8899845ad3d59bd9653f200f220920489ca2b5937696c3183604051610fb7919061191f565b60405180910390a3505050565b60008373ffffffffffffffffffffffffffffffffffffffff163b11156111ad578273ffffffffffffffffffffffffffffffffffffffff1663150b7a02611008610ad4565b8685856040518563ffffffff167c01000000000000000000000000000000000000000000000000000000000281526004016110469493929190611f71565b6020604051808303816000875af192505050801561108257506040513d601f19601f8201168201806040525081019061107f9190611fd2565b60015b611106573d80600081146110b2576040519150601f19603f3d011682016040523d82523d6000602084013e6110b7565b606091505b5060008151036110fe57836040517f64a0ae920000000000000000000000000000000000000000000000000000000081526004016110f59190611a90565b60405180910390fd5b805181602001fd5b63150b7a027c0100000000000000000000000000000000000000000000000000000000027bffffffffffffffffffffffffffffffffffffffffffffffffffffffff1916817bffffffffffffffffffffffffffffffffffffffffffffffffffffffff1916146111ab57836040517f64a0ae920000000000000000000000000000000000000000000000000000000081526004016111a29190611a90565b60405180910390fd5b505b50505050565b606060405180602001604052806000815250905090565b6060600060016111d984611657565b01905060008167ffffffffffffffff8111156111f8576111f7611c37565b5b6040519080825280601f01601f19166020018201604052801561122a5781602001600182028036833780820191505090505b509050600082602001820190505b60011561128d578080600190039150507f3031323334353637383961626364656600000000000000000000000000000000600a86061a8153600a858161128157611280611fff565b5b04945060008503611238575b819350505050919050565b600073ffffffffffffffffffffffffffffffffffffffff168273ffffffffffffffffffffffffffffffffffffffff160361130a5760006040517f64a0ae920000000000000000000000000000000000000000000000000000000081526004016113019190611a90565b60405180910390fd5b600061131883836000610aee565b9050600073ffffffffffffffffffffffffffffffffffffffff168173ffffffffffffffffffffffffffffffffffffffff161461138c5760006040517f73c6ac6e0000000000000000000000000000000000000000000000000000000081526004016113839190611a90565b60405180910390fd5b505050565b60006002600083815260200190815260200160002060009054906101000a900473ffffffffffffffffffffffffffffffffffffffff169050919050565b80806114075750600073ffffffffffffffffffffffffffffffffffffffff168273ffffffffffffffffffffffffffffffffffffffff1614155b1561153b57600061141784610a0f565b9050600073ffffffffffffffffffffffffffffffffffffffff168373ffffffffffffffffffffffffffffffffffffffff161415801561148257508273ffffffffffffffffffffffffffffffffffffffff168173ffffffffffffffffffffffffffffffffffffffff1614155b801561149557506114938184610875565b155b156114d757826040517fa9fbf51f0000000000000000000000000000000000000000000000000000000081526004016114ce9190611a90565b60405180910390fd5b811561153957838573ffffffffffffffffffffffffffffffffffffffff168273ffffffffffffffffffffffffffffffffffffffff167f8c5be1e5ebec7d5bd14f71427d1e84f3dd0314c0f7b2291e5b200ac8c7c3b92560405160405180910390a45b505b836004600085815260200190815260200160002060006101000a81548173ffffffffffffffffffffffffffffffffffffffff021916908373ffffffffffffffffffffffffffffffffffffffff16021790555050505050565b61159e8383836117aa565b61165257600073ffffffffffffffffffffffffffffffffffffffff168373ffffffffffffffffffffffffffffffffffffffff160361161357806040517f7e27328900000000000000000000000000000000000000000000000000000000815260040161160a9190611ba6565b60405180910390fd5b81816040517f177e802f00000000000000000000000000000000000000000000000000000000815260040161164992919061202e565b60405180910390fd5b505050565b600080600090507a184f03e93ff9f4daa797ed6e38ed64bf6a1f01000000000000000083106116b5577a184f03e93ff9f4daa797ed6e38ed64bf6a1f01000000000000000083816116ab576116aa611fff565b5b0492506040810190505b6d04ee2d6d415b85acef810000000083106116f2576d04ee2d6d415b85acef810000000083816116e8576116e7611fff565b5b0492506020810190505b662386f26fc10000831061172157662386f26fc10000838161171757611716611fff565b5b0492506010810190505b6305f5e100831061174a576305f5e10083816117405761173f611fff565b5b0492506008810190505b612710831061176f57612710838161176557611764611fff565b5b0492506004810190505b60648310611792576064838161178857611787611fff565b5b0492506002810190505b600a83106117a1576001810190505b80915050919050565b60008073ffffffffffffffffffffffffffffffffffffffff168373ffffffffffffffffffffffffffffffffffffffff161415801561186257508273ffffffffffffffffffffffffffffffffffffffff168473ffffffffffffffffffffffffffffffffffffffff16148061182357506118228484610875565b5b8061186157508273ffffffffffffffffffffffffffffffffffffffff1661184983610a97565b73ffffffffffffffffffffffffffffffffffffffff16145b5b90509392505050565b6000604051905090565b600080fd5b600080fd5b60007fffffffff0000000000000000000000000000000000000000000000000000000082169050919050565b6118b48161187f565b81146118bf57600080fd5b50565b6000813590506118d1816118ab565b92915050565b6000602082840312156118ed576118ec611875565b5b60006118fb848285016118c2565b91505092915050565b60008115159050919050565b61191981611904565b82525050565b60006020820190506119346000830184611910565b92915050565b600081519050919050565b600082825260208201905092915050565b60005b83811015611974578082015181840152602081019050611959565b60008484015250505050565b6000601f19601f8301169050919050565b600061199c8261193a565b6119a68185611945565b93506119b6818560208601611956565b6119bf81611980565b840191505092915050565b600060208201905081810360008301526119e48184611991565b905092915050565b6000819050919050565b6119ff816119ec565b8114611a0a57600080fd5b50565b600081359050611a1c816119f6565b92915050565b600060208284031215611a3857611a37611875565b5b6000611a4684828501611a0d565b91505092915050565b600073ffffffffffffffffffffffffffffffffffffffff82169050919050565b6000611a7a82611a4f565b9050919050565b611a8a81611a6f565b82525050565b6000602082019050611aa56000830184611a81565b92915050565b611ab481611a6f565b8114611abf57600080fd5b50565b600081359050611ad181611aab565b92915050565b60008060408385031215611aee57611aed611875565b5b6000611afc85828601611ac2565b9250506020611b0d85828601611a0d565b9150509250929050565b600080600060608486031215611b3057611b2f611875565b5b6000611b3e86828701611ac2565b9350506020611b4f86828701611ac2565b9250506040611b6086828701611a0d565b9150509250925092565b600060208284031215611b8057611b7f611875565b5b6000611b8e84828501611ac2565b91505092915050565b611ba0816119ec565b82525050565b6000602082019050611bbb6000830184611b97565b92915050565b611bca81611904565b8114611bd557600080fd5b50565b600081359050611be781611bc1565b92915050565b60008060408385031215611c0457611c03611875565b5b6000611c1285828601611ac2565b9250506020611c2385828601611bd8565b9150509250929050565b600080fd5b600080fd5b7f4e487b7100000000000000000000000000000000000000000000000000000000600052604160045260246000fd5b611c6f82611980565b810181811067ffffffffffffffff82111715611c8e57611c8d611c37565b5b80604052505050565b6000611ca161186b565b9050611cad8282611c66565b919050565b600067ffffffffffffffff821115611ccd57611ccc611c37565b5b611cd682611980565b9050602081019050919050565b82818337600083830152505050565b6000611d05611d0084611cb2565b611c97565b905082815260208101848484011115611d2157611d20611c32565b5b611d2c848285611ce3565b509392505050565b600082601f830112611d4957611d48611c2d565b5b8135611d59848260208601611cf2565b91505092915050565b60008060008060808587031215611d7c57611d7b611875565b5b6000611d8a87828801611ac2565b9450506020611d9b87828801611ac2565b9350506040611dac87828801611a0d565b925050606085013567ffffffffffffffff811115611dcd57611dcc61187a565b5b611dd987828801611d34565b91505092959194509250565b60008060408385031215611dfc57611dfb611875565b5b6000611e0a85828601611ac2565b9250506020611e1b85828601611ac2565b9150509250929050565b7f4e487b7100000000000000000000000000000000000000000000000000000000600052602260045260246000fd5b60006002820490506001821680611e6c57607f821691505b602082108103611e7f57611e7e611e25565b5b50919050565b6000606082019050611e9a6000830186611a81565b611ea76020830185611b97565b611eb46040830184611a81565b949350505050565b600081905092915050565b6000611ed28261193a565b611edc8185611ebc565b9350611eec818560208601611956565b80840191505092915050565b6000611f048285611ec7565b9150611f108284611ec7565b91508190509392505050565b600081519050919050565b600082825260208201905092915050565b6000611f4382611f1c565b611f4d8185611f27565b9350611f5d818560208601611956565b611f6681611980565b840191505092915050565b6000608082019050611f866000830187611a81565b611f936020830186611a81565b611fa06040830185611b97565b8181036060830152611fb28184611f38565b905095945050505050565b600081519050611fcc816118ab565b92915050565b600060208284031215611fe857611fe7611875565b5b6000611ff684828501611fbd565b91505092915050565b7f4e487b7100000000000000000000000000000000000000000000000000000000600052601260045260246000fd5b60006040820190506120436000830185611a81565b6120506020830184611b97565b939250505056fea2646970667358221220518ddad9198cfb83b3b1c0c8383362486a40e7c8a036bdbb8135f7cf8b53fc1a64736f6c63430008140033",
  "immutableReferences": {},
  "source": "// SPDX-License-Identifier: MIT\r\npragma solidity ^0.8.20;\r\n\r\nimport \"./Auth.sol\";\r\nimport \"@openzeppelin/contracts/token/ERC721/ERC721.sol\";\r\nimport \"@openzeppelin/contracts/access/Ownable.sol\";\r\n\r\n\r\ncontract DonationNFT is ERC721, Ownable {\r\n    constructor() ERC721(\"DonationNFT\", \"DNFT\") Ownable(msg.sender) {}\r\n\r\n    function mintDonationNFT(address to, uint256 tokenId) external onlyOwner {\r\n        _mint(to, tokenId);\r\n    }\r\n}\r\n\r\ncontract Crowdfunding {\r\n    enum Status {\r\n        Waiting,\r\n        Invalid,\r\n        Valid,\r\n        Done\r\n    }\r\n\r\n    struct Campaign {\r\n        uint256 id;\r\n        address creator;\r\n        string name;\r\n        //string field;\r\n        string title;\r\n        string description;\r\n        uint256 endDate;\r\n        uint256 period;\r\n        uint256 amount;\r\n        uint256 raisedAmount;\r\n        address[] donors;\r\n        string imageUrl;\r\n        string dataUrl;\r\n        Status status;\r\n    }\r\n\r\n    struct Donation {\r\n        uint256 id;\r\n        address donor;\r\n        uint256 amount;\r\n        uint256 campaign;\r\n    }\r\n\r\n    uint256 public campaignIdCounter = 0;\r\n    uint256 public donationIdCounter = 0;\r\n\r\n    Campaign[] public campaigns;\r\n    Donation[] public donations;\r\n\r\n    DonationNFT public nftContract;\r\n    Auth public authContract;\r\n\r\n    event DonationMade(uint256 campaignId, address donor, uint256 amount);\r\n\r\n    constructor(address _authContractAddress) {\r\n        authContract = Auth(_authContractAddress);\r\n        nftContract = new DonationNFT();\r\n    }\r\n\r\n    function createCampaign(\r\n        string memory _name,\r\n        //string memory _field,\r\n        string memory _title,\r\n        string memory _description,\r\n        uint256 _period,\r\n        uint256 _amount,\r\n        string memory _imageUrl,\r\n        string memory _dataUrl\r\n    ) public {\r\n        expiredCampaigns();\r\n\r\n        // Create an empty array of donors\r\n        address[] memory emptyDonors = new address[](0);\r\n\r\n        // Increment the campaignIdCounter\r\n        uint256 newCampaignId = campaignIdCounter;\r\n\r\n        // Create the campaign with basic details\r\n        Campaign memory newCampaign = Campaign({\r\n            id: newCampaignId,\r\n            creator: msg.sender,\r\n            name: _name,\r\n           // field: _field,\r\n            title: _title,\r\n            description: _description,\r\n            endDate: 0,\r\n            period: _period,\r\n            amount: _amount,\r\n            raisedAmount: 0,\r\n            donors: emptyDonors,\r\n            imageUrl: _imageUrl,\r\n            dataUrl: _dataUrl,\r\n            status: Status.Waiting\r\n        });\r\n\r\n        // Push the new campaign to the array\r\n        campaigns.push(newCampaign);\r\n\r\n        // Increment the campaignIdCounter\r\n        campaignIdCounter++;\r\n    }\r\n\r\n    function evaluateCampaign(uint256 _id, Status _status) public {\r\n        expiredCampaigns();\r\n        require(_id <= campaignIdCounter, \"Invalid campaign ID\");\r\n        Campaign storage campaign = campaigns[_id];\r\n        require(\r\n            campaign.status == Status.Waiting,\r\n            \"Campaign status is not Waiting\"\r\n        );\r\n\r\n        // Update the campaign's endDate and status\r\n        campaign.endDate = block.timestamp + campaign.period;\r\n        campaign.status = _status;\r\n    }\r\n\r\n    function donate(uint256 _id) public payable {\r\n        Campaign storage campaign = campaigns[_id];\r\n        require(_id <= campaignIdCounter, \"Invalid campaign ID\");\r\n        require(\r\n            campaign.status == Status.Valid,\r\n            \"Campaign status is not Valid\"\r\n        );\r\n        require(\r\n            campaign.status != Status.Done,\r\n            \"Campaign status is Done\"\r\n        );\r\n        require(\r\n            campaign.raisedAmount < campaign.amount,\r\n            \"Campaign is already fully funded\"\r\n        );\r\n\r\n        // Update the campaign's raisedAmount and donors\r\n        campaign.raisedAmount += msg.value;\r\n        campaign.donors.push(msg.sender);\r\n\r\n        // Mint a new Donation NFT for the donor\r\n        nftContract.mintDonationNFT(msg.sender, donationIdCounter);\r\n        // Create a new Donation and associate it with the NFT\r\n        Donation memory newDonation = Donation({\r\n            id: donationIdCounter,\r\n            donor: msg.sender,\r\n            amount: msg.value,\r\n            campaign: _id\r\n        });\r\n        donations.push(newDonation);\r\n        donationIdCounter++;\r\n\r\n        // Emit an event to indicate that a donation has been made\r\n        emit DonationMade(_id, msg.sender, msg.value);\r\n\r\n        // Transfer the donated ether to the campaign's creator\r\n        payable(campaign.creator).transfer(msg.value);\r\n    }\r\n\r\n    function getAllCampaigns() public view returns (Campaign[] memory) {\r\n        return campaigns;\r\n    }\r\n\r\n    function getAllDonations() public view returns (Donation[] memory) {\r\n        return donations;\r\n    }\r\n    \r\n    function expiredCampaigns() internal {\r\n        for (uint256 i = 0; i < campaigns.length; i++) {\r\n            if (\r\n                campaigns[i].endDate >= block.timestamp ||\r\n                campaigns[i].raisedAmount >= campaigns[i].amount\r\n            ) {\r\n                campaigns[i].status = Status.Done;\r\n            }\r\n        }\r\n    }\r\n    function expired() public {\r\n        for (uint256 i = 0; i < campaigns.length; i++) {\r\n            if (\r\n                campaigns[i].endDate >= block.timestamp ||\r\n                campaigns[i].raisedAmount >= campaigns[i].amount\r\n            ) {\r\n                campaigns[i].status = Status.Done;\r\n            }\r\n        }\r\n    }\r\n}\r\n",
  "sourcePath": "D:\\crowdfunding\\contracts\\Crowdfunding.sol",
  "compiler": {
    "name": "solc",
    "version": "0.8.20+commit.a1b79de6.Emscripten.clang"
  },
  "schemaVersion": "3.4.12",
  "updatedAt": "2023-12-12T00:31:51.016Z",
  "networkType": "ethereum",
  "devdoc": {
    "kind": "dev",
    "methods": {},
    "version": 1
  },
  "userdoc": {
    "kind": "user",
    "methods": {},
    "version": 1
  }
}